:020000040800F2
:100000004882002075030008E3080008DB080008A8
:10001000DF080008D5080008CD090008000000002E
:10002000000000000000000000000000B502000811
:10003000D90800080000000011030008E5080008C6
:100040008F0300088F0300088F0300088F03000848
:100050008F0300088F0300088F0300088F03000838
:100060008F0300088F0300088F0300088F03000828
:100070008F0300088F0300088F0300088F03000818
:100080008F0300088F0300088F0300088F03000808
:100090008F0300088F0300088F0300088F030008F8
:1000A0008F0300088F0300088F0300088F030008E8
:1000B000A90900088F0300088F0300088F030008B8
:1000C0008F0300088F0300088F0300088F030008C8
:1000D0008F0300088F0300088F0300088F030008B8
:1000E0008F0300088F0300088F0300088F030008A8
:1000F0008F0300088F0300088F0300088F03000898
:100100008F0300088F0300088F0300088F03000887
:100110008F0300088F0300088F0300088F03000877
:100120008F0300088F0300088F0300088F03000867
:100130008F0300088F0300088F0300088F03000857
:100140008F0300088F0300088F0300088F03000847
:100150008F0300088F030008000000008F030008D1
:100160008F0300088F03000800000000000000005B
:100170008F0300088F0300088F03000800000000B1
:10018000000000008F0300088F0300088F030008A1
:100190008F030008000000000000000000000000C5
:1001A0000000000000000000000000008F030008B5
:1001B0008F030008000000008F030008000000000B
:1001C000000000000000000000000000000000002F
:1001D00000000000000000008F0300088F030008EB
:1001E0008F0300088F0300088F0300088F030008A7
:1001F0008F0300088F0300088F0300088F03000897
:100200008F0300088F0300088F03000800F002F836
:1002100000F041F80AA090E8000C82448344AAF15F
:100220000107DA4501D100F036F8AFF2090EBAE85D
:100230000F0013F0010F18BFFB1A43F0010318471A
:100240000C2E00002C2E0000103A24BF78C878C174
:10025000FAD8520724BF30C830C144BF04680C60CC
:10026000704700000023002400250026103A28BF14
:1002700078C1FBD8520728BF30C148BF0B60704718
:10028000642900F04F81002070471FB502F0BAFECC
:100290001FBD10B510BD00F0D5FA1146FFF7F5FFF0
:1002A00000F0C8FD00F0F3FA03B4FFF7F2FF03BC5F
:1002B00000F08EFB2C4B19680868B0E8F04F80F313
:1002C0000988BFF36F8F4FF0000080F311887047EB
:1002D0000000000008480068006880F308884FF0BC
:1002E000000080F3148862B661B6BFF34F8FBFF38E
:1002F0006F8F00DF00BF00BF08ED00E0DFF80C00EB
:10030000016841F470010160704700BF88ED00E0B2
:10031000EFF30980BFF36F8F134B1A681EF0100FB5
:1003200008BF20ED108A20E9F04F106009B44FF0AB
:10033000100080F31188BFF34F8FBFF36F8F01F070
:10034000A3FF4FF0000080F3118809BC196808680A
:10035000B0E8F04F1EF0100F08BFB0EC108A80F329
:100360000988BFF36F8F704748000020EFF30580C6
:10037000704700000948804709480047FEE7FEE74C
:10038000FEE7FEE7FEE7FEE7FEE7FEE7FEE7FEE745
:1003900004480549054A064B704700001909000842
:1003A0000D020008487C002048820020487E002082
:1003B000487E0020704753EA020C00F069802DE966
:1003C000F04B4FF00006002B1FBFB3FA83F503FA82
:1003D00005F424FA05F65E4012BF1643B2FA82F520
:1003E00002FA05F4C5F120051EBF22FA05FC44EA15
:1003F0000C04203556EA044C4FEA144418BF641C20
:100400004FF000084FF00009904271EB030C39D314
:10041000002919BFB1FA81F701FA07F6B0FA80F79F
:1004200000FA07F6C7F120071EBF20FA07FC46EACC
:100430000C062037B6FBF4FCA7EB0507103F07F0CE
:100440001F0BCBF120060CFA0BFB2CFA06F644BF6F
:10045000B3460026202FA4BF5E464FF0000B5BEA98
:10046000060C08BF4FF0010B19EB0B09ABFB027C2C
:1004700048EB0608C01B06FB02CC0BFB03CC71EB60
:100480000C01C1E70B46024641464846BDE8F08BE9
:1004900013B54FF000004FF00001AFF30080BDE84E
:1004A0001C4070470FB4044910B503AA029800F02D
:1004B0005FF910BC5DF814FB300000202DE9F0411D
:1004C0000E460446002020622046E168884730B38B
:1004D000252805D0D4E901219047206A401CF2E785
:1004E000E168204600278847050018D0A5F14100A3
:1004F000192802D820354FF4006732462946204695
:100500002760FFF7BDFE40B1012804D0F61D26F09C
:1005100007060836D8E7361DD6E72846DAE7206A08
:10052000BDE8F0812DE9F0410646002410687529E8
:10053000314616A510D0AFF30080002802DA404201
:1005400013A507E031688A0701D512A502E0490723
:1005500004D511A5012401E0AFF3008000210A2297
:1005600006F1240709E0B0FBF2FCB0FBF2F302FB5A
:100570001C00303078541846491C0028F3D123461B
:100580002A463046BDE8F04100F080B80000000087
:100590002D0000002B00000020000000032A40F284
:1005A000308010F0030C00F0158011F8013BBCF115
:1005B000020F624498BF11F801CB00F8013B38BF2D
:1005C00011F8013BA2F1040298BF00F801CB38BF3B
:1005D00000F8013B11F0030300F0DC80083AC0F0A2
:1005E000088051F8043B083A51F804CBA0E8081001
:1005F000F5E7121D5CBF51F8043B40F8043BAFF334
:100600000080D20724BF11F8013B11F801CB48BF8D
:1006100011F8012B24BF00F8013B00F801CB48BFC3
:1006200000F8012B704702F0FF0343EA032242EA7D
:10063000024200F0E3B84FF0000200B513469446C2
:100640009646203922BFA0E80C50A0E80C50B1F12A
:100650002001BFF4F7AF090728BFA0E80C5048BF3E
:100660000CC05DF804EB890028BF40F8042B08BFDC
:10067000704748BF20F8022B11F0804F18BF00F8D8
:10068000012B704770477047704770472DE9F0475E
:100690000D4699469246044600F1240801688806F2
:1006A00004D5E06921F01001216000E00120A8429A
:1006B00001DD471B00E00027A1697A1902EB090060
:1006C000081AA0612078C00602D42046AFF300804B
:1006D000002608E0D4E901211AF806009047206AB4
:1006E000401C761C20624E45F4DB2078C0060AD5FB
:1006F0002046AFF3008006E0D4E901213020904786
:10070000206A401C2062381EA7F10107F4DC07E0D4
:10071000D4E9012118F805009047206A401C2062A6
:10072000281EA5F10105F3DC2046AFF300802078F8
:10073000000602D50220BDE8F0870120FBE700009B
:1007400001694A1C02610878704700B58FB0CDE995
:1007500001310021059105497944CDE90310114685
:100760006846FFF7ABFE0FB000BD0000E5FFFFFFDE
:10077000074B70B50D467B44FFF7E7FF044628465C
:1007800000F05CF810B14FF0FF3070BD204670BD36
:10079000C705000010B5203AC0F00B80B1E8185032
:1007A000203AA0E81850B1E81850A0E81850BFF45B
:1007B000F5AF5FEA027C24BFB1E81850A0E81850FA
:1007C00044BF18C918C0BDE810405FEA827C24BF4E
:1007D00051F8043B40F8043B08BF7047D20728BFDC
:1007E00031F8023B48BF11F8012B28BF20F8023B2B
:1007F00048BF00F8012B70474FF000020429C0F0F9
:10080000128010F0030C3FF418AFCCF1040CBCF1D3
:10081000020F18BF00F8012BA8BF20F8022BA1EB94
:100820000C01FFF70ABF5FEAC17C24BF00F8012B6F
:1008300000F8012B48BF00F8012B7047007B00F047
:1008400080007047754600F02BF8AE4605006946FB
:10085000534620F00700854618B020B5FFF798FDF5
:10086000BDE820404FF000064FF000074FF00008B1
:100870004FF0000B21F00701AC46ACE8C009ACE832
:10088000C009ACE8C009ACE8C0098D46704710B596
:100890000446AFF300802046BDE81040FFF704BDDA
:1008A00000487047E87B002006E004A0FFF7FAFD4F
:1008B0004FF47A7001F012FCF7E7000061707020CD
:1008C0006D61696E207461736B20646F696E670D72
:1008D0000A00000000BFFEE7704700BFFEE700BF50
:1008E000FEE7704710B500BF102080F31188BFF3FA
:1008F0004F8FBFF36F8F00BF02F048F918B14FF070
:1009000080500449086000BF002080F3118800BFB8
:1009100010BD000004ED00E01F48006840F47000C6
:100920001D4908601D48006820F00100401C1B495B
:10093000086000BF19480068C0F340000028F9D0E3
:1009400016480830006820F0030014490831086098
:1009500000BF124808300068C0F381000028F8D1B9
:100960000E4800680E4908400C49086000200B49F9
:10097000083108600B48091F086000200749A031B2
:1009800008604FF41F0005490C3108604FF000600B
:10099000014980390860704788ED00E00038024066
:1009A000FFFFF2FE0230030010B50121880701F0BD
:1009B0008AF940B104480068401C034908600121DD
:1009C000880701F07DF910BD3C00002000BFFEE764
:1009D00000BF70470349096860F30711014A1160BD
:1009E00070470000083802400349096860F38C2111
:1009F000014A116070470000083802400349096845
:100A000060F34F31014A116070470000083802401E
:100A1000012807D10749096821F030013031054A22
:100A2000116005E00349096821F03001014A1160B5
:100A300070470000A438024005282BD2DFE800F000
:100A4000030A11182100154A126861F30002134BC2
:100A50001A6020E0114A126861F310420F4B1A60CD
:100A600019E00E4A126861F318620C4B1A6012E02A
:100A70000A4A7032126861F30002084B70331A6040
:100A800009E0064A7432126861F30002034B7433C2
:100A90001A6000E000BF00BF70470000003802404D
:100AA0002DE9FE4F04464FF00009CA46CB46002010
:100AB000029001900025002600F03AF9009000987D
:100AC00020B1012812D002283FD112E0314800683D
:100AD000C0F3803038B12F480068C0F3003010B147
:100AE0002D48206001E02D48206031E02B48206037
:100AF0002EE028489C380068C0F3805002902548BA
:100B00009C380068C0F3881922489C38006800F0BF
:100B10000F0A20489C380068C0F30240204911F8B1
:100B200000B0029810B91D48019001E01B480190E7
:100B30000AFB0BFC0198A0FB0970014662460023EA
:100B40003846FFF738FC206002E01448206000BF00
:100B500000BF104898380068C0F303151148465D7F
:100B60002068F04060600B4898380068C0F3822528
:100B70000D48465D6068F040E060064898380068BF
:100B8000C0F342350948465D6068F040A060BDE8AA
:100B9000FE8F0000A0380240006CDC0200127A00D8
:100BA0002E3000080E3000081E30000826300008E5
:100BB00010B501460020094B03EB1142D2F8002882
:100BC00001F01F040123A3401A4001F01F04012378
:100BD000A3409A4200D000E0012010BD0030024046
:100BE00030B50024002500E0641C1120FFF7E0FF71
:100BF000012802D0B4F5405FF6D31120FFF7D8FFEB
:100C0000012801D0002500E00125284630BD000064
:100C100010B501290FD1104B03EB1042D2F8002878
:100C200000F01F040123A3401A430B4C04EB1043B4
:100C3000C3F800280EE0084B03EB1042D2F800285E
:100C400000F01F040123A3409A43034C04EB10431C
:100C5000C3F8002810BD00000030024030B538B99C
:100C60000F4C246824F4805404F580540C4D2C60FF
:100C70000B4C9C3C246860F39654094D9C3D2C60C1
:100C80002C46246861F38E142C602C46246862F391
:100C900003042C602C46246863F312442C6030BD9E
:100CA000A03802401A48006820F00100401C184992
:100CB000086000BF16480068C0F340000028F9D063
:100CC00013480830006820F003001149083108601B
:100CD00000BF0F4808300068C0F381000028F8D139
:100CE0000B4800680B490840094908600020084982
:100CF000083108600848091F086000200449A03135
:100D000008604FF41F0002490C3108607047000072
:100D100000380240FFFFF2FE023003000349096879
:100D200060F30101014A1160704700000838024079
:100D300002480068C0F38100704700000838024094
:100D400070B504460D4600BF8021054801F007F844
:100D50000028F9D0A1B2024800F0F8FF204670BD8B
:100D6000001001404FF6FF71016000218171017197
:100D700041710121C171704770B50A460021148884
:100D8000A3B233E003F001046CB304684E00032502
:100D9000B540AC43046094794D00AC4005682C43E9
:100DA0000460446801258D40AC4344604468157973
:100DB0008D402C43446084684E000325B540AC430D
:100DC0008460D4794D00AC4085682C438460C4684D
:100DD0004E000325B540AC43C46054794D00AC408F
:100DE000C5682C43C4605B104C1CA1B2002BC9DC4D
:100DF00070BDF0B5002300244D07ED0E02FA05F397
:100E0000CD105DB1456A4E07F70E0F26BE40B543C3
:100E10004562456A45EA030444620AE0056A4E07F2
:100E2000F70E0F26BE40B5430562056A45EA030486
:100E30000462F0BD00B587B000F07CFE4FF4E130F5
:100E400000F04AFF03A8FFF72BFE13A0FFF72AFBD1
:100E500018A00399FFF726FB1CA00499FFF722FBBB
:100E600020A00699FFF71EFB24A00599FFF71AFBA7
:100E700001F024F82748012100230A02CDE90010DF
:100E800025A1284801F03CFE01F042F801F0A2F94A
:100E9000002007B000BD000053797374656D2043D6
:100EA0006C6F636B20696E666F726D6174696F6ED3
:100EB0000D0A0000535953434C4B5F4672657175E0
:100EC000656E6379203D2025640D0A0048434C4B34
:100ED0005F4672657175656E63792020203D20251F
:100EE000640D0A0050434C4B315F46726571756565
:100EF0006E637920203D2025640D0A0050434C4B41
:100F0000325F4672657175656E637920203D2025DC
:100F1000640D0A00040000204170705F6D61696E0D
:100F200000000000A90800082DE9F04105460E4622
:100F30001C4807681C480068001D00F074FF50B989
:100F40001948006890F82C1001208840174909685A
:100F5000814316480160681C38B936B112480168EF
:100F6000091D134800F09DFF1AE07C190E48006827
:100F70004460BC4207D20C480168091D0D48006856
:100F800000F075FF0CE008480168091D0A48006878
:100F900000F06DFF09480068844201D207480460F0
:100FA000BDE8F0815C0000204800002060000020C7
:100FB000AC030020500000204C00002078000020EE
:100FC00010B5044600F07AFF24480068401C23490D
:100FD00008602348006840B921480460084600685A
:100FE00001280DD100F0CEF90AE01E48006838B99A
:100FF0001B480068C06AE16A884201D8184804604A
:1010000019480068401C1849086008460068606478
:1010100094F82C10012088401449096808431349AA
:101020000860E16A01EB8101114A02EB8100211D98
:1010300000F037FF00F06CFF0A48006868B108480C
:101040000068C06AE16A884207D24FF080500949BF
:101050000860BFF34F8FBFF36F8F10BD58000020A3
:101060004800002064000020740000206000002080
:10107000DC00002004ED00E010B500F01FFF0C487C
:10108000006890B90B4800F0E2FE0B4800F0DFFE6C
:1010900008480A49086008480949086000220C21EC
:1010A0000F2001F00BFA0249086000F031FF10BD7B
:1010B0009C000020C0030020D403002094000020E6
:1010C0009800002010B516E000F0F8FE0C48C0684B
:1010D000C468201D00F0A7FE0A480068401E0949A8
:1010E000086009480068401E0749086000F010FFCA
:1010F000204600F05FF8044800680028E4D110BDE5
:1011000098030020580000205400002070B50446C9
:101110000D46206C70B1216CE0680144E160D4E9B7
:101120000210884201D32168E1602846226CE16800
:10113000FFF734FA70BD2DE9F04104460F4615461D
:101140004FF00008A66B206C48B9206800282CD10D
:10115000A06801F0BFFD80460020A06025E07DB9B9
:101160003946226C6068FFF719FA216C6068084400
:101170006060D4E90101884217D32068606014E000
:101180003946226CE068FFF709FA216CE068411AE1
:10119000E1602168E068884203D2216CA068411AAE
:1011A000E160022D01D106B1761E701CA06340469D
:1011B000BDE8F08110B50446206B00F0C7FE204664
:1011C00000F0C4FE10BD00000146084A1268126813
:1011D0000AB9012200E000220A600A6822B9034A23
:1011E0001268D268106800E0002070479400002068
:1011F00030B54FF4F043174800F007042CB1C01D80
:1012000020F00700134C041B1B1B0246124C2260EB
:101210000024114D6C60D018083820F007000F4CE6
:10122000206000240D4D2D686C600C4D2D682C60E5
:101230001146441A4C60094C24680C60084D4C68F7
:101240002C60084D4C682C604FF00044064D2C601B
:1012500030BD0000E8030020AC000020B4000020F6
:10126000BC000020B8000020C800002000BFFFF72D
:1012700029FF064800680128F9D94FF08050044939
:101280000860BFF34F8FBFF36F8FF0E7DC000020E3
:1012900004ED00E02DE9F04106460D46174698465C
:1012A000069C0DB9246000E02760E66325640121F7
:1012B000204601F055F984F850800020A064BDE874
:1012C000F0812DE9F05F82460E4690469B460A9FCC
:1012D0000C9C4FEA8801A522206BFFF7A4F9A8F126
:1012E0000100216B01EB800929F0070909F00700D3
:1012F00008B9012000E0002050B900BF102080F3A1
:101300001188BFF34F8FBFF36F8F00BF00BFFEE7A1
:1013100086B1002507E0715D04F134004155705D30
:1013200000B902E06D1C102DF5D300BF0021432051
:10133000015502E0002084F83400202F00D31F273D
:10134000E762E76400202065201D00F08DFD04F1B8
:10135000180000F089FD2461C7F12000A0616462DB
:1013600000206065A06584F85C005A4651464846F6
:1013700000F0CAFB20600B9808B10B980460BDE830
:10138000F09F000010B5002407E004EB84010F4A31
:1013900002EB810000F05BFD641C202CF5D30C48AF
:1013A00000F055FD0B4800F052FD0B4800F04FFDDA
:1013B0000A4800F04CFD0A4800F049FD044809497C
:1013C000086004480849086010BD0000DC000020E7
:1013D0005C03002070030020840300209803002099
:1013E000AC0300204C0000205000002010B5014646
:1013F000164800E0006803688B42FBD3024643684E
:1014000013448B4204D143684C6823444360014633
:101410000A464B6813440468A34211D10C4C03687C
:101420002468A34208D04B680468646823444B6076
:1014300003681B680B6005E0054B1B680B6001E04F
:1014400003680B60884200D0016010BDAC00002032
:10145000B40000202DE9F04104460D4616461F4613
:101460004FF0000865602461B5420CD8F01BA169FB
:10147000884202D34FF0010811E0211D094800689D
:1014800000F0F5FC0BE0BE4204D2BD4202D34FF0A7
:10149000010804E0211D0448006800F0E8FC404613
:1014A000BDE8F081980000209400002070B505464A
:1014B00000F004FDA86B08B9012400E0002400F04E
:1014C00027FD204670BD70B5054600F0F7FCA86BFF
:1014D000E96B884201D1012400E0002400F018FDEE
:1014E000204670BDF1B50098846C002654B900BF49
:1014F000102080F31188BFF34F8FBFF36F8F00BFB1
:1015000000BFFEE7A06BE16B884201D2012000E042
:10151000002050B900BF102080F31188BFF34F8F17
:10152000BFF36F8F00BF00BFFEE7A06BE16B884287
:101530002CD294F94550002269462046FFF7FBFD66
:101540000646681C60B9606A08B9012000E0002006
:10155000D8B904F1240001F01BFCB0B1012614E05D
:101560007F2D01D0012000E0002050B900BF1020E5
:1015700080F31188BFF34F8FBFF36F8F00BF00BFA1
:10158000FEE7681C40B284F8450000BF3046F8BD55
:10159000F8B505460F461A480068C068C468201DA3
:1015A00000F041FC94F8280000F00400E8B1A069C4
:1015B00041192B463A462046FFF74CFFD8B1002090
:1015C00003462A4601460090204601F0D9FC064613
:1015D00056B900BF102080F31188BFF34F8FBFF3BF
:1015E0006F8F00BF00BFFEE705E094F8280020F0F1
:1015F000010084F828002046216A8847F8BD0000D1
:101600009400002070B586B08BE003980028FBDBC7
:10161000059C606908B9012000E0002010B9201D78
:1016200000F001FC02A800F0DBF8054603980A2848
:1016300075D2DFE800F009050739416306083A4230
:1016400000BF00BF00BF00BF94F8280040F00100B9
:1016500084F828000498A269811803462A46204687
:10166000FFF7F8FEF8B12046216A884794F8280071
:1016700000F00400B8B1002000900498A16942185D
:1016800000231946204601F07BFC064656B900BFF0
:10169000102080F31188BFF34F8FBFF36F8F00BF0F
:1016A00000BFFEE700BF3BE000BF94F8280020F039
:1016B000010084F8280033E000BF94F8280040F0CF
:1016C000010084F828000498A061A06908B10120F5
:1016D00000E0002050B900BF102080F31188BFF354
:1016E0004F8FBFF36F8F00BF00BFFEE7A0694119A6
:1016F0002B462A462046FFF7ADFE11E094F828005D
:1017000000F0020018B9204600F020FC05E094F833
:10171000280020F0010084F8280001E0FFE700BF66
:1017200000BF002203A90448006801F0EDF800287A
:101730007FF46BAF06B070BD9C000020F8B5054685
:101740000C4600F099FD684600F04AF806460098FD
:1017500020BB44B9B54206D801F066FB31462846A5
:10176000FFF716FF1CE03CB10E480068006808B99E
:10177000012000E000200446A91B22460A48006818
:1017800000F086FC01F050FB50B94FF08050074943
:101790000860BFF34F8FBFF36F8F01E001F044FB90
:1017A000F8BD0000980000209C00002004ED00E03F
:1017B00009480068006808B9012000E0002020B155
:1017C0004FF0FF300549086005E003480068C06835
:1017D00000680249086070474C0000207800002033
:1017E00070B5044601F0CCF905460748006885420B
:1017F00004D200F00BF80120206001E000202060FE
:1018000001480560284670BDA40000202DE9F8437A
:1018100034E025480068C068056823480068C0684F
:10182000C468201D00F0FFFA2046216A884794F81A
:10183000280000F0040008B3A0694619AE4207D999
:1018400066602461211D1848006800F010FB15E057
:10185000002003462A4601460090204601F090FBF6
:10186000074657B900BF102080F31188BFF34F8F90
:10187000BFF36F8F00BF00BFFEE700BF0A480068DC
:10188000006808B9012000E000200028C1D0064807
:10189000D0F8008005480068034908600348C0F894
:1018A0000080BDE8F883000094000020980000202C
:1018B0000E480068401C08B9012000E0002050B923
:1018C00000BF102080F31188BFF34F8FBFF36F8FDD
:1018D00000BF00BFFEE700BF102080F31188BFF3F8
:1018E0004F8FBFF36F8F00BF00BFFEE7D000002017
:1018F00008B500BF6846FFF767FC0446204600991C
:10190000FFF71CFFFFF77EFEF4E770B5044600F01A
:10191000D5FA94F9455019E0A06C30B12046FFF794
:10192000E1FD88B100F014FC0EE0606A08B9012006
:1019300000E0002038B904F1240001F029FA18B1C0
:1019400000F006FC00E003E0681E45B2002DE3DC79
:1019500000BFFF2084F8450000F0DAFA00F0AEFA8C
:1019600094F9445010E0206908B9012000E00020FB
:1019700048B904F1100001F00BFA08B100F0E8FBDF
:10198000681E45B200E001E0002DECDC00BFFF2046
:1019900084F8440000F0BCFA70BD00002DE9F0416D
:1019A00004464FF0000800F067FC5148006808B991
:1019B000FFF71EFC4F480068204000287ED13CB352
:1019C00004F10800A04223D9083404F0070000B352
:1019D00004F00700C0F108002044A04216D904F02A
:1019E0000700C0F10800044404F0070008B9012012
:1019F00000E0002068B900BF102080F31188BFF319
:101A00004F8FBFF36F8F00BF00BFFEE7002400E0E1
:101A10000024002C54D038480068844250D8374EF7
:101A20003046056801E02E462D686868A04202D263
:101A300028680028F7D12E480068854240D03068D9
:101A400000F10808286830606868001B102819D960
:101A50002F1907F0070008B9012000E0002050B955
:101A600000BF102080F31188BFF34F8FBFF36F8F3B
:101A700000BF00BFFEE76868001B78606C603846F6
:101A8000FFF7B4FC1C4968680968081A1A4908601D
:101A9000084600681A490968884203D21648006857
:101AA000174908601349686809680843686000209E
:101AB000286014480068401C124900E000E00860FB
:101AC00001F0B2F908F0070008B9012000E0002099
:101AD00050B900BF102080F31188BFF34F8FBFF3C0
:101AE0006F8F00BF00BFFEE74046BDE8F0810000F9
:101AF000B4000020C8000020B8000020AC00002086
:101B0000BC000020C0000020001F4FF08073036065
:101B1000001F21F001030360001F054B0360143810
:101B20000260001F6FF0020303602038704700005E
:101B3000B118000810B5FFF7B5F801212148FFF7EB
:101B400067F82148006920F00700401C1E49086121
:101B50001E48006820F00300401C1C490860012159
:101B60000846FEF769FF00BFFFF73AF80028FBD0F0
:101B70000223012290211046FFF770F80121022074
:101B8000FEF75AFF00BF1920FFF712F80128FAD11B
:101B90000020FEF71FFF0420FEF730FF0420FEF7B1
:101BA00023FF0120FEF734FF0220FFF7B7F800BF44
:101BB000FFF7BEF80228FBD10020FEF729FF00F056
:101BC00007F810BD1C00400000700040603C02405F
:101BD0002DE9FC5F002400250026A146A246A3466D
:101BE00000200190FFF7A4F80090009820B1012890
:101BF00014D0022841D115E02B480068C0F3803092
:101C000040B129480068C0F3003018B1274828497E
:101C1000086002E027482649086032E02548244948
:101C200008602EE020489C380068C0F380591E48A8
:101C30009C380068C0F388141B489C38006800F08A
:101C40000F0519489C380068C0F302401A490E5C21
:101C5000B9F1000F02D1DFF85CA001E0DFF854A079
:101C600005FB06FCAAFB04700146624600233846C9
:101C7000FEF7A1FB0E49086003E00E480C4908601E
:101C800000BF00BF084898380068C0F3031B0B482A
:101C900010F80B000190064800680199C8400449FB
:101CA0000860BDE8FC9F0000A0380240006CDC0228
:101CB0004000002000127A00443000083430000850
:101CC000CA43026170470246002013690B400BB102
:101CD000012000E0002070471CB50446012118488F
:101CE000FEF796FF01214FF44010FEF791FF684682
:101CF000FFF738F801208DF8070000208DF8040068
:101D000002208DF806000002009000208DF80500EA
:101D100069460C48FFF730F8072209210948FFF708
:101D200068F8002301222146074800F021F801212C
:101D3000054800F073F80121034800F00BF81CBDC2
:101D4000040044000000024000100140C1F30802FA
:101D500042607047C26861F34D32C260704702460C
:101D60001068084008B1012070470020FCE700001F
:101D70002DE9FF4704468846164699466846FEF711
:101D80008FFE2448844202D02348844201D1029F1E
:101D900000E0039F07EB87004000B0FBF8F50A2046
:101DA000B5FBF0F100FB1150052803D20A20B5FB6A
:101DB000F0F503E00A20B5FBF0F0451CA06865F3E0
:101DC0000F00A06056B9E06820F0805000F180500C
:101DD000E060E06820F48050E06014E0012E08D15B
:101DE000E06820F08050E060E06820F48050E0601F
:101DF00009E0E06820F08050E060E06820F4805066
:101E000000F58050E060206969F30D302061BDE885
:101E1000FF8700000010014000140140C26861F318
:101E2000C302C260704701460A69D1E90130986077
:101E3000D1E9010358605068884201D18868506038
:101E4000002008611068401E10601068704700F1A3
:101E5000080141604FF0FF31816000F10801C1606D
:101E6000016100210160704700210161704710B5D8
:101E700002460B685C1C0CB9106907E002F108000F
:101E800000E04068446824689C42FAD944684C6089
:101E90004C68A160886041600A611468641C146029
:101EA00010BD42684A6093688B6093685960916086
:101EB000086103685B1C03607047000000BF1020CE
:101EC00080F31188BFF34F8FBFF36F8F00BF0E48B1
:101ED0000068401C0C49086008460068012812D1BF
:101EE0000A480068C0B208B9012000E0002050B9DB
:101EF00000BF102080F31188BFF34F8FBFF36F8FA7
:101F000000BF00BFFEE77047D000002004ED00E0F6
:101F10000D48006850B900BF102080F31188BFF34E
:101F20004F8FBFF36F8F00BF00BFFEE7064800680A
:101F3000401E054908600846006820B9002080F36B
:101F4000118800BF00BF7047D000002070B5064662
:101F50003546002E44D0083D2C4622496068096869
:101F6000084008B1012000E0002050B900BF102057
:101F700080F31188BFF34F8FBFF36F8F00BF00BF97
:101F8000FEE7206808B9012000E0002050B900BF3A
:101F9000102080F31188BFF34F8FBFF36F8F00BF06
:101FA00000BFFEE70F49606809680840C0B12068BB
:101FB000B0B90C49606809688843606000F05CF95A
:101FC0000949606809680844074908602046FFF726
:101FD0000DFA06480068401C0449086000F024FF20
:101FE00070BD0000C8000020B8000020C400002020
:101FF00000204FF0E02108618861064800684FF436
:102000007A71B0FBF1F0401E4FF0E02148610720EB
:1020100008617047CC00002070B5FEF7A7F90446B0
:10202000102C16D304F1E02090F8F05315480078F6
:10203000854201DB012000E0002050B900BF1020E4
:1020400080F31188BFF34F8FBFF36F8F00BF00BFC6
:10205000FEE70D48006800F4E0600C49096888421A
:1020600001D8012000E0002050B900BF102080F30B
:102070001188BFF34F8FBFF36F8F00BF00BFFEE724
:1020800070BD0000D40000200CED00E0D80000205E
:102090002DE9F04105460E4617462C46FFF70EFF88
:1020A00094F94400401C10B9002084F8440094F9CD
:1020B0004500401C10B9002084F84500FFF728FFB8
:1020C000A06B28B93A46314604F1240000F062F8CA
:1020D0002046FFF71AFCBDE8F081000070B5044609
:1020E0000025D4B11248006808B9012000E00020A2
:1020F00050B900BF102080F31188BFF34F8FBFF39A
:102100006F8F00BF00BFFEE700F0B6F80021204649
:10211000FEF70AFF00F088FE05463DB94FF08050FB
:1021200004490860BFF34F8FBFF36F8F70BD00008D
:102130008400002004ED00E00349096801600349C0
:102140000968416070470000700000205C000020BA
:1021500001200149086070476C00002070B50446FA
:102160000D4654B900BF102080F31188BFF34F8F84
:10217000BFF36F8F00BF00BFFEE70548016818314D
:102180002046FFF774FE01212846FEF7CDFE70BD04
:102190004800002070B505460E46144655B900BFEC
:1021A000102080F31188BFF34F8FBFF36F8F00BFF4
:1021B00000BFFEE70648016818312846FFF771FEA8
:1021C0000CB14FF0FF3621463046FEF7ADFE70BD34
:1021D000480000201CB51F4800210B468022CDE995
:1021E00000101DA11E4800F08BFC0446012C02D1FA
:1021F00000F09CFE0446012C17D100BF102080F394
:102200001188BFF34F8FBFF36F8F00BF4FF0FF30C8
:10221000144908600120144908600020134908602F
:102220001349086000F096F810E0601C08B1012026
:1022300000E0002050B900BF102080F31188BFF3E8
:102240004F8FBFF36F8F00BF00BFFEE709480068E4
:102250001CBD00007C00002049444C4500000000EB
:102260006D12000878000020640000205C0000204F
:102270003C0000208000002002480068401C01490A
:1022800008607047840000202A48006818B10120C7
:10229000294908604CE00020274908602748006869
:1022A00027490860084600682649096888420BD912
:1022B0002549096801F15400496D214A1268214BF2
:1022C0001B68D21A114401601D4800681D4908604E
:1022D0001E480068B0FA80F0C0F11F0101EB8100D8
:1022E0001B4A52F8200008B1012000E0002050B93C
:1022F00000BF102080F31188BFF34F8FBFF36F8FA3
:1023000000BF00BFFEE701EB8102114B03EB82002F
:1023100042685268426000F108024368934202D169
:102320004268526842604268D268074B1A6000BF38
:1023300070470000840000206C0000203C0000205A
:102340008C00002088000020480000206000002051
:10235000DC0000201CB5524800685249884201D078
:10236000012000E0002050B900BF102080F3118848
:10237000BFF34F8FBFF36F8F00BF00BFFEE748482A
:1023800000684849491E884201D0012000E0002031
:1023900050B900BF102080F31188BFF34F8FBFF3F7
:1023A0006F8F00BF00BFFEE73F49084600780190ED
:1023B000FF200A4610700846007800909DF8000043
:1023C00000F0F0009DF80020904201D1012000E0D3
:1023D000002050B900BF102080F31188BFF34F8F49
:1023E000BFF36F8F00BF00BFFEE79DF8000000F055
:1023F00010002E4A107007202D4A106009E02C486A
:102400000068401E2A4A10609DF800004006000E39
:1024100000909DF8000000F080008028EFD0244854
:102420000068C0F10700042801D1012000E000206D
:1024300050B900BF102080F31188BFF34F8FBFF356
:102440006F8F00BF00BFFEE7194800680002184AFE
:1024500010601046008800F4E0601060124A019895
:1024600010700F482030006840F470000C49203193
:1024700008600846006840F070400860FFF7B8FD4B
:1024800000200C490860FDF739FF0B48006840F058
:10249000404009490860FDF71DFF00201CBD0000F9
:1024A00000ED00E071C20F4100E400E0D400002024
:1024B000D8000020D000002034EF00E02DE9F843E0
:1024C00006460F4690460EB1012000E0002050B9AC
:1024D00000BF102080F31188BFF34F8FBFF36F8FC1
:1024E00000BF00BFFEE706FB07F51FB1B5FBF7F025
:1024F000B04201D1012000E0002050B900BF1020FF
:1025000080F31188BFF34F8FBFF36F8F00BF00BF01
:10251000FEE705F15400A84201D9012000E00020A7
:1025200050B900BF102080F31188BFF34F8FBFF365
:102530006F8F00BF00BFFEE705F15400FFF72EFAD2
:1025400004464CB1A14609F1540943464A4639466E
:1025500030460094FEF79EFE2046BDE8F88300005A
:1025600070B505460E462C4654B900BF102080F3C6
:102570001188BFF34F8FBFF36F8F00BF00BFFEE71F
:10258000FFF79CFCD4E90F12206801FB0200A06059
:102590000020A06320686060E06B401E226C216810
:1025A00000FB0211E160FF2084F8440084F845003C
:1025B0009EB9206908B9012000E00020A8B904F103
:1025C000100000F0E5FB80B14FF080500949086031
:1025D000BFF34F8FBFF36F8F07E004F11000FFF7D9
:1025E00036FC04F12400FFF732FCFFF791FC0120D8
:1025F00070BD000004ED00E02DE9FF4782B0064603
:1026000088461D464FF00009344654B900BF1020DB
:1026100080F31188BFF34F8FBFF36F8F00BF00BFF0
:10262000FEE7B8F1000F01D1206C08B9012000E0ED
:10263000002050B900BF102080F31188BFF34F8FE6
:10264000BFF36F8F00BF00BFFEE7022D02D1E06B2A
:10265000012801D1012000E0002050B900BF102066
:1026600080F31188BFF34F8FBFF36F8F00BF00BFA0
:10267000FEE700F075FA08B9049808B9012000E0F7
:10268000002050B900BF102080F31188BFF34F8F96
:10269000BFF36F8F00BF00BFFEE700BFFFF70EFC68
:1026A000A06BE16B884201D3022D3ED1D4F838A053
:1026B0002A4641462046FEF73EFD0746A06C88B1FB
:1026C000022D02D1BAF1000F29D12046FEF70AFFF0
:1026D00028B34FF080503D490860BFF34F8FBFF3E0
:1026E0006F8F1CE0606A08B9012000E0002068B923
:1026F00004F1240000F04CFB88B14FF080503349C6
:102700000860BFF34F8FBFF36F8F08E03FB14FF00A
:1027100080502E490860BFF34F8FBFF36F8FFFF7D4
:10272000F7FB012006B0BDE8F087049818B9FFF761
:10273000EFFB0020F6E7B9F1000F04D16846FFF780
:10274000FBFC4FF00109FFF7E3FBFFF795FDFFF7F7
:10275000B5FB94F94400401C10B9002084F84400F3
:1027600094F94500401C10B9002084F84500FFF79B
:10277000CFFB04A9684600F07BF9F8B92046FEF7C4
:10278000A2FEA8B104F110000499FFF7E7FC20466F
:10279000FFF7BBF800F048FB00287FF47FAF4FF055
:1027A00080500A490860BFF34F8FBFF36F8F75E702
:1027B0002046FFF7AAF800F037FB6FE72046FFF747
:1027C000A4F800F031FB0020ACE7000004ED00E0CD
:1027D0002DE9F84F80468B4615461E46444654B9AF
:1027E00000BF102080F31188BFF34F8FBFF36F8FAE
:1027F00000BF00BFFEE7BBF1000F01D1206C08B99C
:10280000012000E0002050B900BF102080F31188A3
:10281000BFF34F8FBFF36F8F00BF00BFFEE7022EE5
:1028200002D1E06B012801D1012000E0002050B965
:1028300000BF102080F31188BFF34F8FBFF36F8F5D
:1028400000BF00BFFEE7FFF7E7FB00BF1021EFF37B
:10285000118081F31188BFF34F8FBFF36F8F00BFDB
:102860000746A06BE16B884201D3022E42D194F956
:1028700045A0A06B0090324659462046FEF75BFC0F
:102880000AF10100E0B9A06C58B1022E01D1009804
:1028900068BB2046FEF726FE48B345B301202860FA
:1028A00025E0606A08B9012000E00020F8B904F1D1
:1028B000240000F06DFAD0B1CDB10120286016E0FF
:1028C000BAF17F0F01D0012000E0002050B900BF15
:1028D000102080F31188BFF34F8FBFF36F8F00BFBD
:1028E00000BFFEE70AF1010040B284F845004FF056
:1028F000010901E04FF0000900BF87F3118800BF14
:102900004846BDE8F88F00002DE9F74183B0054641
:102910000E464FF000082C4654B900BF102080F33B
:102920001188BFF34F8FBFF36F8F00BF00BFFEE76B
:102930000EB9206C08B9012000E0002050B900BF9A
:10294000102080F31188BFF34F8FBFF36F8F00BF4C
:1029500000BFFEE700F004F908B9059808B90120A6
:1029600000E0002050B900BF102080F31188BFF3B1
:102970004F8FBFF36F8F00BF00BFFEE700BFFFF7B1
:102980009DFAA76BF7B131462046FEF7BFFB781ED4
:10299000A063206908B9012000E0002060B904F1BB
:1029A000100000F0F5F938B14FF080502F49086061
:1029B000BFF34F8FBFF36F8FFFF7AAFA012006B066
:1029C000BDE8F081059818B9FFF7A2FA0020F6E7F4
:1029D000B8F1000F04D101A8FFF7AEFB4FF00108DA
:1029E000FFF796FAFFF748FCFFF768FA94F94400FE
:1029F000401C10B9002084F8440094F94500401CA4
:102A000010B9002084F84500FFF782FA05A901A853
:102A100000F02EF8F0B92046FEF748FDA0B104F111
:102A200024000599FFF79AFB2046FEF76EFF00F0A1
:102A3000FBF90028A3D14FF080500C490860BFF388
:102A40004F8FBFF36F8F9AE72046FEF75EFF00F0CF
:102A5000EBF994E72046FEF758FF00F0E5F9204631
:102A6000FEF724FD00288AD00020A8E704ED00E04E
:102A700070B505460C4655B900BF102080F311888B
:102A8000BFF34F8FBFF36F8F00BF00BFFEE754B996
:102A900000BF102080F31188BFF34F8FBFF36F8FFB
:102AA00000BF00BFFEE7FFF709FA13480268686835
:102AB000131A2068401C08B9002619E00F4928683D
:102AC0000968884206D06868904203D80126002031
:102AD00020600DE02068984207D92068C01A206065
:102AE0002846FFF729FB002602E00020206001268F
:102AF000FFF70EFA304670BD5C0000207000002029
:102B00002DE9FF4F85B0804689461746DDE912ABB7
:102B1000B800FEF743FF064656B16020FEF73EFFC1
:102B200004460CB1266304E03046FFF70FFA00E0DC
:102B300000247CB10020CDE900ABCDE902403A464B
:102B400049464046089BFEF7BCFB2046FEF738FA94
:102B5000012501E04FF0FF35284609B0BDE8F08FB0
:102B60000549096809B9012005E00449096809B95E
:102B7000022000E000207047640000208400002054
:102B800001490868704700005C0000202DE9F04111
:102B90004FF000084448006800287CD14348006892
:102BA000451C4248056015BB41480068006808B9EB
:102BB000012000E0002050B900BF102080F31188F0
:102BC000BFF34F8FBFF36F8F00BF00BFFEE73848E2
:102BD0000768384800683649086036480760364854
:102BE0000068401C34490860FEF7E2FD00BF33482E
:102BF000006885423CD300BF2D480068006808B9D2
:102C0000012000E0002020B14FF0FF302B49086088
:102C10002DE027480068C068C4686668B54202D2E3
:102C20002648066023E0201DFFF7FDF8A06A18B1D2
:102C300004F11800FFF7F7F894F82C1001208840F1
:102C40001F49096808431E490860E16A01EB8101D8
:102C50001C4A02EB8100211DFFF723F91A49E06AA3
:102C60000968C96A8842C7D34FF00108C4E700BFAA
:102C700015480068C06A00EB8000124951F8200036
:102C8000012801D94FF001081048006808B14FF041
:102C9000010805E0FFE70E480068401C0C49086089
:102CA0004046BDE8F0810000840000205C00002068
:102CB0004C00002050000020700000207800002010
:102CC00060000020DC000020480000206C00002094
:102CD0006800002070B505462C460026002D4ED019
:102CE00028480068844201D1012000E0002050B94A
:102CF00000BF102080F31188BFF34F8FBFF36F8F99
:102D000000BF00BFFEE7206D50B900BF102080F368
:102D10001188BFF34F8FBFF36F8F00BF00BFFEE777
:102D2000206D401E2065E16CE06A884227D0206D4E
:102D300028BB201DFFF777F840B994F82C1001202C
:102D400088401149096881430F480160E06CE062E6
:102D5000E06AC0F12000A06194F82C1001208840A6
:102D600009490968084308490860E16A01EB8101E3
:102D7000064A02EB8100211DFFF793F80126304639
:102D800070BD00004800002060000020DC00002032
:102D900070B50646F068C46854B900BF102080F3CF
:102DA0001188BFF34F8FBFF36F8F00BF00BFFEE7E7
:102DB00004F11800FFF737F815480068A8B9201D7E
:102DC000FFF731F894F82C10012088401149096868
:102DD000084310490860E16A01EB81010E4A02EBE9
:102DE0008100211DFFF75DF804E004F118010B4894
:102DF000FFF757F80A49E06A0968C96A884204D9A6
:102E0000012501200749086000E00025284670BD23
:102E10008400002060000020DC00002084030020EB
:102E2000480000206C00002070B5002400263648C1
:102E3000006850B900BF102080F31188BFF34F8F96
:102E4000BFF36F8F00BF00BFFEE7FFF737F82E48D4
:102E50000068401E2C4908600846006800284FD1D1
:102E60002A48006800284BD024E02948C068C4687C
:102E700004F11800FEF7D7FF201DFEF7D4FF94F8E9
:102E80002C10012088402349096808432149086023
:102E9000E16A01EB8101204A02EB8100211DFFF76D
:102EA00000F81E49E06A0968C96A884202D3012015
:102EB0001B4908601648006808B9012000E000209E
:102EC0000028D2D00CB1FEF773FC1648056865B136
:102ED00000BFFFF75BFE10B10120114908606D1EB5
:102EE000002DF6D100200F4908600D48006838B168
:102EF000012630070C490860BFF34F8FBFF36F8F77
:102F0000FFF706F8304670BD84000020580000200E
:102F10008403002060000020DC0000204800002026
:102F20006C0000206800002004ED00E01CB50024C7
:102F3000FEF7A2F80D48006850B10D480A210023A1
:102F40008022CDE900100BA10C48FFF7D9FD044603
:102F500054B900BF102080F31188BFF34F8FBFF327
:102F60006F8F00BF00BFFEE720461CBD9C00002005
:102F7000A0000020546D722053766300F118000801
:102F80002DE9FE4304460D4616461F46DDF828800F
:102F90004FF0000954B900BF102080F31188BFF32F
:102FA0004F8FBFF36F8F00BF00BFFEE7144800686C
:102FB00010B3009501960294062D15DAFFF7D0FDA7
:102FC000022808D10023424669460D480068FFF7F1
:102FD00013FB814610E000231A4669460848006842
:102FE000FFF70AFB814607E000233A46694604489A
:102FF0000068FFF7EDFB81464846BDE8FE83000010
:103000009C0000204FF04070E1EE100A7047000075
:103010000000000000000102030406070809000088
:103020000000010203040000000001020304010289
:10303000040810200000000000000000010203044A
:103040000607080901020408102000006C3000087F
:1030500000000020DC0000004802000848310008A1
:10306000DC0000206C8100006402000800882A1146
:1030700000000000000C0240000C0240000C024066
:1030800000200040008000000300300003003000FA
:1030900003003000000000000000000000000000FD
:1030A0000100000000882A110000000000127A00D0
:1030B00000882A110000000000000000000000004D
:1030C0000000000000000000000000000000000000
:1030D00000000000000000000000000000000000F0
:1030E0000000000000000000000000001F000000C1
:1030F00000000000000000000000000000882A110D
:1031000000000000000000000000000000000000BF
:103110000000000000882A110000000000000000EC
:10312000000000000000000000000000000000009F
:10313000000000000000000000882A11AAAAAAAA24
:08314000000000000000000087
:040000050800020DE0
:00000001FF
