:020000040800F2
:10000000789E0120AD030008E90B00088308000872
:10001000E50B00087D080008D10C00080000000076
:10002000000000000000000000000000ED020008D9
:10003000810800080000000049030008ED0B0008DB
:10004000C7030008C7030008C7030008C703000868
:10005000C7030008C7030008C7030008C703000858
:10006000C7030008C7030008C7030008C703000848
:10007000C7030008C7030008C7030008C703000838
:10008000C7030008C7030008C7030008C703000828
:10009000C7030008C7030008C7030008C703000818
:1000A000C7030008B10C0008C7030008C703000815
:1000B000C7030008C7030008C7030008C7030008F8
:1000C000C7030008C7030008C7030008C7030008E8
:1000D000C7030008C7030008C7030008C7030008D8
:1000E000C7030008C7030008C7030008C7030008C8
:1000F000C7030008C7030008C7030008C7030008B8
:10010000C7030008C7030008C7030008C7030008A7
:10011000C7030008C7030008C7030008C703000897
:10012000C7030008C7030008C7030008C703000887
:10013000C7030008C7030008C7030008C703000877
:10014000C7030008C7030008C7030008C703000867
:10015000C7030008C703000800000000C703000829
:10016000C7030008C70300080000000000000000EB
:10017000C7030008C7030008C70300080000000009
:1001800000000000C7030008C7030008C7030008F9
:10019000C70300080000000000000000000000008D
:1001A000000000000000000000000000C70300087D
:1001B000C703000800000000C7030008000000009B
:1001C000000000000000000000000000000000002F
:1001D0000000000000000000C7030008C70300087B
:1001E000C7030008C7030008C7030008C7030008C7
:1001F000C7030008C7030008C7030008C7030008B7
:10020000C7030008C7030008C703000800F002F88E
:1002100000F05CF80AA090E8000C82448344AAF144
:100220000107DA4501D100F051F8AFF2090EBAE842
:100230000F0013F0010F18BFFB1A43F0010318471A
:10024000F0020500100305000A444FF0000C10F8FE
:10025000013B13F0070408BF10F8014B1D1108BF44
:1002600010F8015B641E05D010F8016B641E01F8E4
:10027000016BF9D113F0080F1EBF10F8014BAD1C34
:100280000C1B09D16D1E58BF01F801CBFAD505E052
:1002900014F8016B01F8016B6D1EF9D59142D6D3AC
:1002A000704700000023002400250026103A28BFD4
:1002B00078C1FBD8520728BF30C148BF0B607047D8
:1002C0001FB530F09BFD1FBD10B510BD00F056FAF4
:1002D0001146FFF7F5FF27F079FC00F074FA03B43C
:1002E000FFF7F2FF03BC02F04EF900002C4B196837
:1002F0000868B0E8F04F80F30988BFF36F8F4FF0C4
:10030000000080F311887047000000000848006872
:10031000006880F308884FF0000080F3148862B60C
:1003200061B6BFF34F8FBFF36F8F00DF00BF00BF19
:1003300008ED00E0DFF80C00016841F47001016095
:10034000704700BF88ED00E0EFF30980BFF36F8FC7
:10035000134B1A681EF0100F08BF20ED108A20E919
:10036000F04F106009B44FF0300080F31188BFF3F4
:100370004F8FBFF36F8F2FF087FD4FF0000080F39A
:10038000118809BC19680868B0E8F04F1EF0100F1A
:1003900008BFB0EC108A80F30988BFF36F8F7047F5
:1003A00048000020EFF305807047000009488047AF
:1003B00009480047FEE7FEE7FEE7FEE7FEE7FEE747
:1003C000FEE7FEE7FEE7FEE704480549054A064B5F
:1003D00070470000210C00080D02000878980120E9
:1003E000789E0120789A0120789A0120704753EA7C
:1003F000020C00F069802DE9F04B4FF00006002B55
:100400001FBFB3FA83F503FA05F424FA05F65E403C
:1004100012BF1643B2FA82F502FA05F4C5F12005BF
:100420001EBF22FA05FC44EA0C04203556EA044CAF
:100430004FEA144418BF641C4FF000084FF0000945
:10044000904271EB030C39D3002919BFB1FA81F73F
:1004500001FA07F6B0FA80F700FA07F6C7F12007AD
:100460001EBF20FA07FC46EA0C062037B6FBF4FC58
:10047000A7EB0507103F07F01F0BCBF120060CFA86
:100480000BFB2CFA06F644BFB3460026202FA4BF70
:100490005E464FF0000B5BEA060C08BF4FF0010B05
:1004A00019EB0B09ABFB027C48EB0608C01B06FBF3
:1004B00002CC0BFB03CC71EB0C01C1E70B460246EF
:1004C00041464846BDE8F08B13B54FF000004FF0B1
:1004D0000001AFF30080BDE81C40704740EA010313
:1004E000024630B59B0710D14FF0013400E008C23E
:1004F00008C91D1B9D4315EAC41FF8D013F0FF0166
:1005000002F8011B0DD01B0AF8E711F8013B002B84
:1005100002F8013B05D011F8013B002B02F8013B2A
:10052000F3D130BD10B5431C02E010F8011B71B1CE
:100530008107FAD14FF0013202C88C1A8C4314EAB9
:10054000C211F9D0C01A0A0603D0C01E10BDC01ACD
:1005500010BD0A0401D0801E10BD0902FCD0401E4F
:1005600010BD032A40F2308010F0030C00F015801B
:1005700011F8013BBCF1020F624498BF11F801CBA6
:1005800000F8013B38BF11F8013BA2F1040298BF0B
:1005900000F801CB38BF00F8013B11F0030300F075
:1005A0002580083AC0F0088051F8043B083A51F819
:1005B00004CBA0E80810F5E7121D5CBF51F8043B1E
:1005C00040F8043BAFF30080D20724BF11F8013B91
:1005D00011F801CB48BF11F8012B24BF00F8013BF3
:1005E00000F801CB48BF00F8012B704710B5203A46
:1005F000C0F00B80B1E81850203AA0E81850B1E8DC
:100600001850A0E81850BFF4F5AF5FEA027C24BF91
:10061000B1E81850A0E8185044BF18C918C0BDE888
:1006200010405FEA827C24BF51F8043B40F8043B51
:1006300008BF7047D20728BF31F8023B48BF11F806
:10064000012B28BF20F8023B48BF00F8012B704760
:1006500002F0FF0343EA032242EA024200F002B83A
:100660004FF000020429C0F0128010F0030C00F0DB
:100670001B80CCF1040CBCF1020F18BF00F8012B59
:10068000A8BF20F8022BA1EB0C0100F00DB85FEA27
:10069000C17C24BF00F8012B00F8012B48BF00F8F3
:1006A000012B70474FF0000200B513469446964662
:1006B000203922BFA0E80C50A0E80C50B1F1200175
:1006C000BFF4F7AF090728BFA0E80C5048BF0CC023
:1006D0005DF804EB890028BF40F8042B08BF704781
:1006E00048BF20F8022B11F0804F18BF00F8012BF3
:1006F000704700004FF0013C50F8042B51F8043BC8
:100700009A4221D1A2EB0C03934313EACC1317D1E5
:1007100050F8042B51F8043B9A4215D1A2EB0C037C
:10072000934313EACC130BD150F8042B51F8043B3C
:100730009A4209D1A2EB0C03934313EACC13DBD00A
:100740004FF00000704700BFD01A01BAB1FA81F132
:1007500001F0180122FA01F0CB40C1F12001DBB217
:10076000C0B2C01A2CFA01F3D11A914311EAC31195
:10077000E6D170477047704770477047754600F084
:100780002BF8AE4605006946534620F00700854623
:1007900018B020B5FFF718FEBDE820404FF0000666
:1007A0004FF000074FF000084FF0000B21F0070159
:1007B000AC46ACE8C009ACE8C009ACE8C009ACE89C
:1007C000C0098D46704710B50446AFF3008020463F
:1007D000BDE81040FFF783BD00487047189801201E
:1007E0003FE04FF4FA602FF079FA002207211D480C
:1007F000006818F08FFF4FF4FA602FF06FFA0022B4
:1008000007211948006818F085FF4FF4FA602FF0AF
:1008100065FA002207211548006818F07BFF4FF4A5
:10082000FA602FF05BFA002207211148006818F0E7
:1008300071FF4FF4FA602FF051FA002207210D48A2
:10084000006818F067FF4FF4FA602FF047FA0022B3
:1008500007210948006818F05DFF4FF4FA602FF097
:100860003DFABEE7E8020020FC020020EC02002076
:1008700008030020F00200202403002000BFFEE750
:10088000704700BFFEE72DE9F04107460C461546CC
:100890001E462A2000F06EF9384600F05BF9284623
:1008A00000F058F92B2000F065F9204600F052F9CD
:1008B000304600F04FF92C2000F05CF9BDE8F081E3
:1008C0001FB501214FF4401004F0F6FD012130481E
:1008D00004F0F2FD02A80FF026FD00208DF80C00B8
:1008E00001208DF80F0002208DF80E0020200290CC
:1008F00002A928480FF021FD2020029002A92648D5
:100900000FF01BFD01208DF80E001820029002A9A7
:1009100020480FF012FD0920029002A91E480FF096
:100920000CFD052211461B480FF044FD052211461F
:1009300019480FF03FFD0121184804F0BDFD68463D
:100940002AF089FD03208DF8000001208DF80100B8
:1009500000208DF802008DF803008DF804000120BE
:100960008DF805008DF806008DF8070069460C48E3
:100970002AF095FD01210A482AF084FD012108484A
:100980002AF074FD01210248153004F095FD1FBDC9
:100990000100300000000240000402400C0044004E
:1009A0000030014010B5FFF78BFF082167480FF0BA
:1009B000B6FC642004F0B6FF082164480FF0B1FCD7
:1009C000642004F0AFFF082161480FF0AAFC642006
:1009D00004F0A8FF112000F0CDF8782004F0A2FF69
:1009E000362000F0C7F8002000F0BDF83A2000F0F3
:1009F000C1F8052000F0B7F8B22000F0BBF80C20D9
:100A000000F0B1F80C2000F0AEF8002000F0ABF8D8
:100A1000332000F0A8F8332000F0A5F8B72000F04C
:100A2000A9F8352000F09FF8BB2000F0A3F81920AA
:100A300000F099F8C02000F09DF82C2000F093F809
:100A4000C22000F097F8012000F08DF8C32000F0DC
:100A500091F8122000F087F8C42000F08BF82020D5
:100A600000F081F8C62000F085F80F2000F07BF838
:100A7000D02000F07FF8A42000F075F8A12000F04D
:100A800072F8E02000F076F8D02000F06CF8042036
:100A900000F069F80D2000F066F8112000F063F80E
:100AA000132000F060F82B2000F05DF83F2000F0EC
:100AB0005AF8542000F057F84C2000F054F8182051
:100AC00000F051F80D2000F04EF80B2000F04BF82C
:100AD0001F2000F048F8232000F045F8E12000F046
:100AE00049F8D02000F03FF8042000F03CF80C203A
:100AF00000F039F8112000F036F8132000F033F838
:100B00002C2000F030F83F2000F02DF8442000F0B9
:100B10002AF8512000F027F82F2000F024F81F2099
:100B200000F021F81F2000F01EF8202000F01BF834
:100B3000232000F018F8212000F01CF8112000F00C
:100B400019F8292000F016F810BD0000000402403A
:100B50000000024010B50446201200F01BF8E0B27D
:100B600000F018F810BD10B50446204600F012F849
:100B700010BD000010B50446012105480FF0CFFB61
:100B8000204600F007F8012101480FF0CAFB10BD14
:100B90000004024010B5044610210B480FF0BFFBC3
:100BA00000210A482AF067FC214608482AF068FC20
:100BB00000BF802105482AF06AFC0128F9D01021E5
:100BC00001480FF0AEFB10BD0000024000300140B4
:100BD0002EF094FD05E000BF26F050FA0A202FF019
:100BE0007DF8F8E700BFFEE77047000010B500BFD2
:100BF000302080F31188BFF34F8FBFF36F8F00BF9A
:100C00002FF09CFE18B14FF080500449086000BFDF
:100C1000002080F3118800BF10BD000004ED00E04B
:100C20001F48006840F470001D4908601D480068B6
:100C300020F00100401C1B49086000BF19480068F3
:100C4000C0F340000028F9D016480830006820F0B2
:100C5000030014490831086000BF124808300068DA
:100C6000C0F381000028F8D10E4800680E49084002
:100C70000C49086000200B49083108600B48091F27
:100C8000086000200749A03108604FF41F000549A3
:100C90000C3108604FF000600149803908607047EE
:100CA00088ED00E000380240FFFFF2FE0230030052
:100CB00010B5012105482DF079FE012805D126F057
:100CC00009F9012101482DF06EFE10BD0000014020
:100CD00000BFFEE770B50446002508E02168481C07
:100CE00020600878303805EB850100EB410521686C
:100CF000087800F004F80028F0D1284670BD0146BD
:100D0000302903DB392901DC012070470020FCE792
:100D100010B54421074800F0C7FD00220A2106480B
:100D200026F040F90549086002F04AF9002004491C
:100D3000087010BD00150120A13000081802002025
:100D40001402002030B50346B1F90040B2F900505A
:100D5000AC4202DDB1F9004001E0B2F900401C8074
:100D6000B1F90240B2F90250AC4202DDB1F90240E1
:100D700001E0B2F902405C80B1F90440B2F90450DC
:100D8000AC4202DAB1F9044001E0B2F904409C80BF
:100D9000B1F90640B2F90650AC4202DAB1F90640A8
:100DA00001E0B2F90640DC800120B3F90040B3F95C
:100DB0000450AC4205DCB3F90240B3F90650AC4232
:100DC00000DD002030BDF8B504460D46164600276C
:100DD000B4F90000B5F90010884212DBB4F9020042
:100DE000B5F9021088420CDBB4F90400B5F904101F
:100DF000884206DCB4F90600B5F90610884200DC2A
:100E000001270FB90020F8BD0EB90120FBE72088AB
:100E1000ADF800006088ADF8020032466946284609
:100E200000F0A7F808B90020EDE7A088ADF80000B1
:100E30006088ADF8020032466946284600F099F80D
:100E400008B90020DFE72088ADF80000E088ADF8A1
:100E5000020032466946284600F08BF808B90020A7
:100E6000D1E7A088ADF80000E088ADF80200324676
:100E70006946284600F07DF808B90020C3E7012044
:100E8000C1E70246B2F90000B1F90430984213DC20
:100E9000B2F90400B1F9003098420DDBB2F902005A
:100EA000B1F90630984207DCB2F90600B1F9023018
:100EB000984201DB012070470020FCE7F8B50446AA
:100EC0000D461646B4F90400B5F90010884211DB4E
:100ED000B4F90600B5F9021088420BDBB4F9000042
:100EE000B5F90410884205DCB4F90200B5F9061022
:100EF000884201DD0120F8BD0EB90020FBE7208803
:100F0000ADF800006088ADF8020032466946284618
:100F100000F02FF808B10020EDE7A088ADF8000040
:100F20006088ADF8020032466946284600F021F894
:100F300008B10020DFE72088ADF80000E088ADF8B8
:100F4000020032466946284600F013F808B1002036
:100F5000D1E7A088ADF80000E088ADF80200324685
:100F60006946284600F005F808B10020C3E70120D3
:100F7000C1E72DE9FC5F05460E4614464FF0000A16
:100F8000B6F90000B5F90010884213DBB6F900008D
:100F9000B5F9041088420DDCB6F90200B5F902106B
:100FA000884207DBB6F90200B5F90610884201DC79
:100FB0004FF0010ABAF1000F02D10020BDE8FC9FFA
:100FC000002C01DC0120F9E7284611F089FC83465A
:100FD00000EBDB704710284611F008FC834600EB5D
:100FE000DB704FEA6008474501DA384600E04046CA
:100FF00081464C4500DD4C462888ADF80000288825
:10100000204400B2ADF804006888ADF8020068889A
:10101000204400B2ADF80600002231466846FFF7D2
:10102000A8FF80B1BDF80400204400B2ADF8040070
:10103000BDF80600204400B2ADF80600314668460F
:1010400022F0A6FBBAE7E888001B00B2ADF8020068
:10105000E888ADF80600002231466846FFF789FFB0
:1010600080B1BDF80400204400B2ADF80400BDF822
:101070000200001B00B2ADF802003146684622F0C3
:1010800087FB9BE7A888001B00B2ADF80000A8888A
:10109000ADF80400002231466846FFF76AFF80B1D0
:1010A000BDF80000001B00B2ADF80000BDF8020062
:1010B000001B00B2ADF802003146684622F068FB22
:1010C0007CE76888ADF802006888204400B2ADF87B
:1010D0000600002231466846FFF74BFF80B1BDF89D
:1010E0000000001B00B2ADF80000BDF8060020446F
:1010F00000B2ADF806003146684622F049FB5DE7D4
:1011000001205BE710B5B1F90030B2F90040A3420D
:1011100002DAB1F9003001E0B2F900300380B1F930
:101120000230B2F90240A34202DAB1F9023001E022
:10113000B2F902304380B1F90430B2F90440A3425D
:1011400002DDB1F9043001E0B2F904308380B1F975
:101150000630B2F90640A34202DDB1F9063001E0E3
:10116000B2F90630C38010BD2DE9FE43074625F0D5
:10117000A1FE8146002002901FB18B49F8680860EB
:1011800003E014F033FB884908608749096808695F
:1011900022F092F984480068406920B182490968C8
:1011A000486922F089F980490968C86922F084F900
:1011B0007D490968086A22F07FF97B480068006968
:1011C00040B9002078490968A1F8500100BF00BF6C
:1011D000BDE8FE8322F0CEFB28F008FE72480068CE
:1011E000B0F8500130B34FF480716F480068303070
:1011F0001CF070FA20216C48006800F598701CF013
:1012000069FA002068490968A1F85001484625F0AC
:1012100043FE0290644800680068406A50B1624929
:10122000096808686049096809684B6A5F490A6883
:10123000029998471BF0C6FF00F0FCF800F0C4F8D4
:101240005B484669002E53D100BF14F0CFFA054623
:1012500014F0FFFA04461AF053FC064600227F21E0
:10126000304621F0A7FF00BF00221146104613F0C0
:1012700092FC0090BDF80010084600220146019043
:10128000304621F07BFF00BFFF221146104613F0CD
:1012900082FC0090BDF80010084600220146019033
:1012A000304622F04FF800220321304622F032F877
:1012B00000220321304622F009F8002203213046A3
:1012C00022F010F800220321304622F017F8002205
:1012D0000321304622F02AF836A130461BF012FCDA
:1012E00000231A46062130461CF0BDFE30484661F8
:1012F0002F49086825F0D0FDB0F5967F10D22B4815
:10130000006841F2883188424BD9294840680299E7
:1013100008442749486008468068401C886040E0CF
:1013200025F0C8FD224908601F480068406840B1A8
:101330001D480068406800684FF47A71B1FBF0F412
:1013400000E064241A48406810B901201849486038
:101350001748806808B9254608E0154880684FF4AA
:101360007A71484312494968B0FBF1F500201049F1
:1013700048608860A54200D925460D480069284488
:101380000B4908610846C068401CC86025F070FE23
:10139000C0F1640843462A4607A130461BF0FAFB19
:1013A00000BF00BF14E70000080100200401002076
:1013B000B81401203F0000002575204650530A252F
:1013C000752525204350550010B5002416E0C4EBC8
:1013D000C4000C4951F8200030B1C4EBC401094AE3
:1013E00052F821001BF0A0FFC4EBC401054A02EB38
:1013F00081001C211CF06EF9601CC4B2042CE6DBD9
:1014000010BD0000DC1501200146094A10680BE000
:1014100042688A4202D002688A4204D1027E22F0E7
:101420000102521C027640690028F1D17047000089
:10143000DC0000207047000010B50421014800F0D6
:1014400033FA10BDF414012010B52021014800F03A
:101450002BFA10BD0C1501202DE9FF4704460D465F
:1014600016461F46DDE90C896FB9B8F5807F0AD1B1
:10147000002020806080681E00B2A080701E00B234
:10148000E080BDE8FF87002000900190029003906B
:10149000ADF80450ADF80A60ADF80C50ADF80E6030
:1014A0004B4642463946684622F0A8F84B4642462B
:1014B000394601A822F0A2F84B464246394602A816
:1014C00022F09CF84B464246394603A822F096F893
:1014D000BDF90000BDF90410884202DABDF9000030
:1014E00001E0BDF90400BDF90810BDF90C209142DE
:1014F00002DABDF9081001E0BDF90C1088420BDAE0
:10150000BDF90000BDF90410884202DABDF90000FF
:101510000DE0BDF904000AE0BDF90800BDF90C10AA
:10152000884202DABDF9080001E0BDF90C00801E16
:1015300000B22080BDF90000BDF90410884202DD30
:10154000BDF9000001E0BDF90400BDF90810BDF9C6
:101550000C20914202DDBDF9081001E0BDF90C102C
:1015600088420BDDBDF90000BDF90410884202DDA0
:10157000BDF900000DE0BDF904000AE0BDF9080066
:10158000BDF90C10884202DDBDF9080001E0BDF98B
:101590000C00801C00B2A080BDF90210BDF906004D
:1015A000814202DABDF9020001E0BDF90600BDF991
:1015B0000A20BDF90E108A4202DABDF90A1001E0D4
:1015C000BDF90E1088420BDABDF90210BDF9060014
:1015D000814202DABDF902000DE0BDF906000AE021
:1015E000BDF90A10BDF90E00814202DABDF90A0008
:1015F00001E0BDF90E00801E00B26080BDF902104E
:10160000BDF90600814202DDBDF9020001E0BDF92D
:101610000600BDF90A20BDF90E108A4202DDBDF9AF
:101620000A1001E0BDF90E1088420BDDBDF9021071
:10163000BDF90600814202DDBDF902000DE0BDF9F1
:1016400006000AE0BDF90A10BDF90E00814202DD74
:10165000BDF90A0001E0BDF90E00801C00B2E08077
:1016600000BF0EE72DE9F743054616460024134C4C
:1016700025F020FC8046334629462046019A19F081
:101680005DFB07465FB900BF00BF2C2120461CF060
:1016900021F84FF00040A0620020BDE8FE8300204A
:1016A000A062E06918B9404625F0F6FBE061E06908
:1016B00008B90120E0612046EFE700003015012065
:1016C00010B514210D4800F0EFF819F0F1FA0446B6
:1016D00014B900BF00BF10BD0949204619F0C0FB76
:1016E0000849204619F0BEFB0749204619F0BCFB0B
:1016F0000649204619F0B2FB00BFECE7181501209F
:1017000009A50108DDA90108BDAB0108D1A40108A4
:101710002DE9FF4104460F4614B914F067F804465A
:101720000CB9BDE8FF81204614F0F9F800B9F8E7DC
:1017300094F82800C0F3800010B100BF00BFF0E7AC
:101740001FB90020A4F85001EBE70020ADF8080015
:10175000ADF80A00204614F061F8401E00B2ADF862
:101760000C00204614F0C0F8401E00B2ADF80E0088
:1017700002AA39466846FFF7E5FA064606B9D0E7F9
:101780002068007CC0F3400060B102982063039899
:1017900060630120A4F85001606810B1606825F012
:1017A00023FDBEE72068806918B120686946826918
:1017B000904700250BE004F1300000EBC50100224A
:1017C0006846FFF700FB00B1ABE7681C85B2B4F8D0
:1017D0005001A842EFDCB4F85001202809DAB4F82F
:1017E000502104F1300101EBC200694610F081FF85
:1017F0000BE00020A4F85001B4F8502104F13001AE
:1018000001EBC20002A910F074FFB4F85001401CB3
:10181000A4F85001606810B1606825F0E5FC00BFD5
:101820007FE770B50546284600F013F80446002609
:101830000CE02146284600F024F8064621462846BA
:1018400000F086F820461BF06FFD3446002CF0D1E6
:1018500070BD014609B9002070474868FCE770B5C3
:10186000064600243046FFF7F4FF054605E0641CF9
:101870002946304600F005F80546002DF7D12046F0
:1018800070BD02460B461068001D0344186870477F
:1018900002460B461068034418687047014609B9B0
:1018A000002070478868FCE7002242608260CA1C02
:1018B00022F003010160704770B50446216801F110
:1018C00008001BF053FC0546A5B10022294620461E
:1018D00026F098FE29462046626826F085FE60685C
:1018E00020B12A462046616826F08CFE6560A0681B
:1018F00000B9A560284670BD70B50446216801F1A5
:1019000008001BF033FC0546A5B1002229462046FD
:1019100026F06AFE29462046A26826F073FEA068DB
:1019200020B12A462046A16826F05EFEA5606068C8
:1019300000B96560284670BD014609B901207047AD
:10194000486818B9886808B90120F8E70020F6E768
:101950002DE9F04104460D460CB9BDE8F081204662
:10196000FFF777FFA8420FD129462046FFF789FFEE
:101970006060606810B90020A0602FE0002220465F
:10198000616826F03FFE29E02046FFF787FFA84266
:101990000FD129462046FFF77BFFA060A06810B951
:1019A000002060601AE000222046A16826F01CFE9C
:1019B00014E029462046FFF76BFF064629462046DD
:1019C000FFF75FFF07463A463146204626F00CFEF9
:1019D00032463946204626F015FE00BF00BFBCE760
:1019E00010B504462068806818B1206821468268D6
:1019F00090472068006828B1206800682060204671
:101A0000FFF7EEFF10BD0146886818B18868B0F98D
:101A1000160070470020FCE70146886818B1886806
:101A2000807E800970470020FCE72DE9F0410446E4
:101A30000D4616461DB916B90120BDE8F0812046B5
:101A40001CF05EFDA068008A284400B2A1680882EC
:101A5000A068408A304401B2A06841820123324626
:101A60002946204620F020F800220B21204617F0BE
:101A700051FE0746012F01D03846DEE720461FF011
:101A80003BFF0120D9E7F7B582B004460E4614B9F2
:101A9000049805B0F0BD00BF6122314620461FF01A
:101AA0006BF80190019D00BFBDB12868A8B100BFCF
:101AB0006222314620461FF05FF801900198C0B2C3
:101AC00007464FB13A462B6828460499984701903B
:101AD000BDF80400ADF8100000BF0498D9E700007D
:101AE0002DE9F04F95B004468B4691469A461E9DCF
:101AF000608C20F00400001D6084A4F820902A89E6
:101B0000594620461FF038F81490A4F820A02A89DE
:101B1000594620461FF030F81390608C20F00400E6
:101B20006084DDE9131088420CD1DDE9131088428E
:101B300008D1BDF85000BDF84C10884202D115B054
:101B4000BDE8F08FA4F820902A89594620461FF05E
:101B500013F81490A4F820A0594620460EF07DFBFF
:101B600012902989129A1068149A23F097FE2889F6
:101B70000B2833D147F6FF711498884202D013988E
:101B800088422BD120461FF0DAFA009000EBD0708B
:101B9000471020461DF002FD009000EBD0704FEA88
:101BA000600847F6FF711498884208D1781C08F144
:101BB0000101884200DA01E008F10100149047F6C3
:101BC000FF711398884208D1781C08F101018842FE
:101BD00000DA01E008F10100139000BF2048FFF790
:101BE0006BFE064606B9AAE71498F06013983061B8
:101BF00034602889B080C6F808B001A80FF03AFF19
:101C0000314601A80FF0F5FF164901A80FF0BAFF01
:101C10001548039000BF154901A80FF0C1FFFF222E
:101C2000002101A80FF0D3FF298801A80FF0C1FF00
:101C3000698801A80FF09FFFE868089000BF01A81D
:101C4000002190F8422061F3000280F8422000BF9A
:101C50002869079001A80FF0E3FF00BF6FE70000BD
:101C600024150120D5E9020879EC0208A9EB020845
:101C700010B514210148FFF717FE10BD24150120EF
:101C80002DE9FE4F04460F4690464FF0000900250F
:101C90004CE1E06800EBC5004068C0F3406000B173
:101CA00043E1E16801EBC501496821F07F4021F083
:101CB000C9FB064626EA070008B9012000E000201B
:101CC000029026EA080008B9012000E000200190F7
:101CD000DDE90101814270D0E06850F835A04FF095
:101CE000000B6A461021504623F0BCF910B14FF0AA
:101CF000010B98E06A461121504623F0B3F910B168
:101D00004FF0010B8FE06A461221504623F0AAF9EA
:101D100010B14FF0010B86E06A461321504623F0C4
:101D2000A1F910B14FF0010B7DE06A461521504634
:101D300023F098F910B14FF0010B74E06A461421BA
:101D4000504623F08FF910B14FF0010B6BE06A465B
:101D50000A21504623F086F910B14FF0010B62E0E2
:101D60006A466A21504623F07DF910B14FF0010B0D
:101D700059E06A466B21504623F074F910B14FF0D8
:101D8000010B50E06A460121504623F06BF910B177
:101D90004FF0010B47E06A460421504623F062F9F8
:101DA00010B14FF0010B3EE06A460221504623F08D
:101DB00059F918B14FF0010B35E0B5E06A4603213F
:101DC000504623F04FF910B14FF0010B2BE06A465B
:101DD0000521504623F046F910B14FF0010B22E0E7
:101DE0006A460621504623F03DF910B14FF0010B31
:101DF00019E06A463221504623F034F910B14FF011
:101E0000010B10E06A466D21504623F02BF910B10A
:101E10004FF0010B07E06A466C21504623F022F98F
:101E200008B14FF0010BBBF1000F02D00320BDE859
:101E3000FE8F6A466821504623F014F910B14FF026
:101E4000020970E06A466921504623F00BF910B18F
:101E50004FF0020967E06A466D21504623F002F90F
:101E600010B14FF002095EE06A466C21504623F043
:101E7000F9F810B14FF0020955E06A463721504693
:101E800023F0F0F810B14FF002094CE06A46382117
:101E9000504623F0E7F810B14FF0020943E06A46DC
:101EA0003521504623F0DEF810B14FF002093AE038
:101EB0006A464021504623F0D5F810B14FF0020990
:101EC00031E06A464521504623F0CCF810B14FF07E
:101ED000020928E06A464121504623F0C3F810B1B8
:101EE0004FF002091FE06A464221504623F0BAF83B
:101EF00010B14FF0020916E06A464321504623F024
:101F0000B1F810B14FF002090DE06A464921504680
:101F100023F0A8F810B14FF0020904E0B9F1000F66
:101F200001D14FF0010900BF00BF6D1C608CC0F3F0
:101F3000C500A8423FF6ADAE484678E701480068C4
:101F4000704700000801002010B5024826F093FCFD
:101F500010BD0000B81401200146C1F30412072A85
:101F600000DD0722D0B2704701464FF6FF70814274
:101F700001D11F20704709B90020FBE7702902DA60
:101F80000948405CF6E7A1F1700081B2074800689B
:101F900038B107480068814203D204480068405CB9
:101FA000E8E70020E6E70000A04C03083C02002020
:101FB0005002002010B518210348FFF775FC0120DE
:101FC00025F024F810BD0000D01401202DE9F041C7
:101FD00005460F4616460DB9BDE8F0812846FEF7C6
:101FE000A1FA8046394628460A4A126890470746B1
:101FF000E8193146074A1268904706463C4603E016
:10200000A019285C2855641CA8EB0600A042F7D252
:1020100000BFE1E7800200202DE9F04106460C46B2
:1020200017461D4629463046084A126890472060E8
:10203000206830B1296888190021044A1268904745
:1020400000E000203860BDE8F08100007802002048
:102050002DE9F04F87B004460F4692469846DDE9D9
:1020600010560DB1002028801CB9002007B0BDE833
:10207000F08F207808B90020F8E70FB90020F5E7C5
:102080004FF0000906F0020010B906F0040098B104
:10209000002000E0401C215C0A2905D0215C0D29AC
:1020A00002D0215C0029F5D1215C01B1401C15B1A1
:1020B0004FF0FF312980D9E706F0020008B141F660
:1020C000FF7800200690059038E0002004900598E5
:1020D00008B9012000E0002006A904AACDE90062A9
:1020E000CDE902100599601843465246394625F05D
:1020F000FBF983460498A8EB00000FFA80F80498D7
:1021000048440FFA80F9BBF1000F00D11CE005989C
:102110005844059020780A2802D020780D2800D154
:1021200012E00598205C0A2803D00598205C0D2851
:1021300003D10598401C059006E000BF0598205C7F
:1021400010B1B8F1000FC0DC00BF059870B905A947
:102150002046094A12689047834635B10022594605
:10216000384617F03BFC0FFA80F900BF0DB1A5F817
:10217000009005987AE70000780200202DE9F047EA
:1021800006468846174606B10FB9BDE8F0873046C7
:10219000FEF7C8F981463846FEF7C4F9044604B98B
:1021A000F3E704EB090A414630460B4A12689047B0
:1021B0008046554603E0281B305C70556D1E08EBC9
:1021C0000400A842F7D906EB0800224639461BF066
:1021D0003BFA00BFD9E70000800200200246002041
:1021E0000FA31B788B4211D113781BB901231370F5
:1021F00001200BE01378012B02D10023137005E0BE
:102200001378022B02D10023137001201378012BC5
:1022100004D1202901D1022313700120704700004E
:102220002300000073B582B0064603980190324641
:1022300000210846019B25F077FC04460020019010
:102240000025601C1AF092FF054615B9002004B065
:1022500070BD002028553246611C2846039B25F09E
:1022600063FC2846F3E72DE9F04781460E46144605
:102270001F46DDF820A035461BE0600800FB07552F
:1022800029464846D047B0F1000809DD04F00100B6
:1022900080F00100C0EB5404E8190546064608E04A
:1022A000B8F1000F02DA6408354602E02846BDE8BE
:1022B000F087002CE1D10020F9E72DE9FF4F85B030
:1022C0008346DDE9158ADDE91349DDE91775129EBC
:1022D00005F00200F8B94FB105F0010030B1B9F1D5
:1022E000000F02D105F00C0000B17F1E03E0302288
:1022F0002046641C3254544501D2202CF7D303E00D
:1023000030222046641C325405F0010018B1BC4252
:1023100001D2202CF4D305F01000B0B305F4806096
:1023200050B94CB1544501D0BC4205D1641E1CB11A
:10233000B8F1100F00D1641EB8F1100F09D105F0EB
:10234000200030B9202C04D278222046641C32545C
:1023500015E0B8F1100F09D105F0200030B1202CA4
:1023600004D258222046641C325408E0B8F1020F0F
:1023700005D1202C03D262222046641C3254202C2A
:1023800003D230222046641C3254202C16D2B9F1DC
:10239000000F04D02D222046641C32540EE005F0BC
:1023A000040020B12B222046641C325406E005F0C4
:1023B000080018B120222046641C3254CDE9027571
:1023C000CDE90064584606A90EC900F0A2F809B08C
:1023D000BDE8F08F2DE9FF4F8FB08046DDE91FABE0
:1023E000DDE91D96219D1C9C00270CB925F01005E8
:1023F00005F4806000B1E4B100BFB4FBF6F106FB68
:102400001141C8B20A2802DA00F1300107E005F0F4
:10241000200109B1412100E0612101440A39CBB218
:1024200039467F1C07AA5354B4FBF6F40CB1202F95
:10243000E3D307A8CDE904AB8DE8810203960695A6
:10244000404610A90EC9FFF738FF13B0BDE8F08F62
:102450002DE9FF4F8FB0DDE9217BDDF89080209ED4
:10246000DDE91C454FF00009002184EA01006940C4
:10247000084301D128F0100808F4806028B1002139
:1024800084EA0100694008432DD000BF32463B4634
:1024900020462946FDF7ABFF02F0FF0ABAF10A0F0A
:1024A00002DA0AF1300007E008F0200008B141200C
:1024B00000E0612050440A38C2B2484609F10109DF
:1024C00007A90A5432463B4620462946FDF78FFFAE
:1024D00004460D46002184EA01006940084302D009
:1024E000B9F1200FD2D32398CDE9036BCDE90508CC
:1024F00007A91E98CDE9001902900FA80FC8FFF791
:10250000DCFE13B0BDE8F08F9A4200D288547047C9
:1025100070472DE9FF5F05461446DDE90EA6DDE9AB
:102520001087A34607F0020078B907F0010060B9F0
:10253000B14607E02246641C2020039B0199A8476E
:1025400009F10109C145F5D300BF08E02246641C2A
:10255000711E0E461AF80100039B0199A847002E30
:10256000F4D107F0020050B105E02246641C20209F
:10257000039B0199A847A4EB0B004045F5D32046E7
:1025800004B0BDE8F09F00BF7047F8B504460D46A3
:1025900016461F4600203B463246294600902046FC
:1025A00021F0A8FCF8BD00002DE9FF4F8BB00746D5
:1025B00000250C9800B9FA4FEAE20E980078252819
:1025C0000AD02A466D1C0E990878DDE90C13B8472D
:1025D0000E98401C0E90DBE20E98401C0E900024DA
:1025E00000BF0E9800782B2819D004DC20281ED0BC
:1025F00023282CD123E02D2809D0302827D144F0DE
:1026000001040E98401C0E9001200A9022E044F034
:1026100002040E98401C0E9001200A901AE044F02B
:1026200004040E98401C0E9001200A9012E044F021
:1026300008040E98401C0E9001200A900AE044F015
:1026400010040E98401C0E9001200A9002E0002019
:102650000A9000BF00BF0A980028C2D180460E9998
:102660000878FEF74CFB20B10EA8FEF733FB80463E
:1026700012E00E9800782A280ED1189901C91891F5
:10268000002804DA44F00204C0F1000800E08046AB
:102690000E99491C0E9100BF4FF000090E9800786A
:1026A0002E281FD144F480640E98401C0E900E9981
:1026B0000878FEF724FB20B10EA8FEF70BFB81463D
:1026C00010E00E9800782A280CD1189901C91891A9
:1026D000002801DD014600E0002189460E99491CD1
:1026E0000E9100BF0E9800786C280AD004DC682890
:1026F00016D06A2835D128E0742820D07A2830D125
:1027000029E044F480740E98401C0E900E980078D6
:102710006C2804D144F400740E98401C0E9021E003
:1027200044F080040E98401C0E900E9800786828A3
:1027300004D144F040040E98401C0E9012E044F482
:1027400080740E98401C0E900CE044F400740E98B7
:10275000401C0E9006E044F480740E98401C0E90CD
:1027600000E000BF00BF0E98007869281DD00EDC85
:10277000622821D006DC25287ED050281AD058287F
:102780007BD115E0632879D06428F9D10CE0732857
:1027900075D004DC6F280ED07028F1D109E07528BF
:1027A00004D07828ECD102E000BF00BF00BF00BF1A
:1027B00000BF00BF00BF00BF0E980078782803D08C
:1027C0000E980078582801D1102623E00E98007842
:1027D000702803D00E98007850280CD1102644F0B1
:1027E000100444F480740E984078562812D10E9844
:1027F000401C0E900EE00E9800786F2801D108263C
:1028000008E00E980078622801D1022602E00A262C
:1028100024F010040E980078582803D00E98007801
:10282000502801D144F020040E980078692805D082
:102830000E980078642801D024F00C0404F4806021
:1028400008B124F001040E980078692803D00E988E
:10285000007864287CD104F40070B8B31898C01DC7
:1028600020F007001890D0E900AB189A08321892AF
:102870000020CDE9069803E073E17CE1F2E01CE181
:10288000CDE904600894BAEB00017BEB000001DAAB
:10289000012000E00020002102900846B1EB0A016F
:1028A00070EB0B0002DA5046594605E00020014665
:1028B000B0EB0A0061EB0B01CDE900012A46384676
:1028C000DDE90C13FFF7C4FD0546C7E0FFE704F49C
:1028D0008070D0B1189850F804AB18904FEADA70B5
:1028E000CDE9039802960594BAF1000F01DD514637
:1028F00001E0CAF10001CDE900102A463846DDE9C1
:102900000C13FFF767FD0546A8E004F0400028B16E
:10291000189810F8041B1890C8B20DE004F080005D
:1029200028B1189830F8041B189008B204E01898E1
:1029300000681899091D189182464FEADA70CDE9AE
:10294000039802960594BAF1000F02DD514602E0A9
:102950000BE0CAF10001CDE900102A463846DDE956
:102960000C13FFF737FD054678E00E9800785628DF
:1029700018D1189850F804AB1890DAF804000068E1
:10298000099009980090DAF800300D98421B0C98D5
:1029900041193846FFF708FE0544002009905DE024
:1029A0001125000804F40070D0B11898C01D20F063
:1029B0000700CDE90698089418900020CDE904603E
:1029C0000290189903C9189A08321892CDE90001AB
:1029D0002A463846DDE90C13FFF73AFD05463DE08F
:1029E00004F4807098B10022CDE903980296059412
:1029F000189800681899091DCDE9000218912A4617
:102A00003846DDE90C13FFF7E5FC054626E004F047
:102A1000400028B1189810F8041B1890C8B20DE0B7
:102A200004F0800028B1189830F8041B189088B280
:102A300004E0189800681899091D18918246002032
:102A4000CDE900A0CDE90398029605942A463846C0
:102A5000DDE90C13FFF7BEFC054600BF0E98401CD5
:102A60000E9093E0012604F0020050B905E02A46DA
:102A70006D1C2020DDE90C13B8473046761C40451C
:102A8000F5D3189911F8043BD8B22A466D1C189159
:102A9000DDE90C13B84704F0020050B105E02A4606
:102AA0006D1C2020DDE90C13B8473046761C4045EC
:102AB000F5D30E98401C0E9068E0189850F804ABBF
:102AC00018905046B9F1000F01D0494601E04FF08F
:102AD000FF310A46014600E0491C0B781BB1131E6A
:102AE000A2F10102F8D10E1A04F4806028B14E451B
:102AF00001D2304600E04846064604F0020050B9D4
:102B000005E02A466D1C2020DDE90C13B84730464D
:102B1000761C4045F5D306E01AF8010B2A466D1CD9
:102B2000DDE90C13B8479AF8000040B104F4806066
:102B30000028F1D0B9F10000A9F10109ECD104F0AD
:102B4000020050B105E02A466D1C2020DDE90C137F
:102B5000B8473046761C4045F5D30E98401C0E9081
:102B600014E02A466D1C2520DDE90C13B8470E98A9
:102B7000401C0E900AE02A466D1C0E990878DDE98B
:102B80000C13B8470E98401C0E9000BF00BF00BF4A
:102B90000E98007800287FF410AD0D98854201D280
:102BA000284601E00D98401E02460020DDE90C1386
:102BB000B84728460FB0BDE8F08F2DE9F041044634
:102BC0000E46002774B13146204600F02DF8054628
:102BD000B5F5004F05D20C2D01D9284600E00C2098
:102BE000074600BF3846BDE8F081024600BF481ED8
:102BF000084018B100BF00BF00BFFEE700BF481E7D
:102C00001040101A704710B502464B1E13444C1E5C
:102C100023EA040000BF4B1E0B401BB100BF00BFE6
:102C200000BFFEE700BF10BD024600BF481E0840BF
:102C300018B100BF00BF00BFFEE700BF481E104430
:102C40004B1E9843704700002DE9F04180460E4628
:102C5000444601206086002500270DE056F8270035
:102C60001DA1FDF747FD10B1681C85B202E0608E22
:102C7000401C6086781C87B256F8270020B156F8B1
:102C8000270000780028E9D1208EA84201D1BDE8B4
:102C9000F081A06A20B1A06A1AF046FB0020A06271
:102CA000E06A20B1E06A1AF03FFB0020E062E80031
:102CB0001AF05CFAA06268001AF058FAE062A06AA2
:102CC00008B1E06A00B900256900E06A1AF002FD67
:102CD000258600BFDBE700000A0000002DE9F84F61
:102CE00081460E46924699F8090000F00700022836
:102CF00001D1304600E050468346564501DD30465E
:102D000000E050460746032000EB470020F0030098
:102D100000F110053648006836490968A0EB010843
:102D2000002405EB080034490968884206D230487F
:102D30000468606820F00040606033E02E4800685E
:102D4000854221D813E04FF0FF3000900022694601
:102D50002A480EF049FA0022694629480EF044FA42
:102D60002348006823490968A0EB010800BF08EB6D
:102D70000500214909688842E5D81D480468606853
:102D800020F0004060600DE028461AF0EFF904469C
:102D900014B90020BDE8F88F606820F0004000F111
:102DA0000040606032465946484602F0C5F820604F
:102DB000606800F04040401C6060606820F0804027
:102DC0006060A781A4F80EB06068C00F20B12046F3
:102DD00000F11001A16008E0054800681030A06013
:102DE000034800682844024908602046D2E70000F2
:102DF000B002002038020020AC0200206BE700087F
:102E000069120108F0B585B006460D46344600202B
:102E100004900390029065480088A84202D0FF20E9
:102E2000634908706148058094F83C0000F0030095
:102E300020B1012838D0022866D000BF94F83C00A9
:102E400000F003005A49097888421BD02620005D13
:102E500000EB001000EB4000142190FBF1F055490D
:102E600008702720005D00EB001000EB40001421EB
:102E700090FBF1F05049087094F83C0000F003001A
:102E80004B49087002A803A9CDE9001005EB4501E4
:102E90004FF6FF7202EA410004AB47490A78454900
:102EA00009780BF032F95FE094F83C0000F0030081
:102EB0003F49097888421AD0A08C00EB40004002BC
:102EC0004FF4B471B0FBF1F03C4908802720005D5D
:102ED00000EB001000EB4000142190FBF1F03649AC
:102EE000087094F83C0000F003003149087002A813
:102EF00003A9CDE90010E9B204AB2F4802782F48AE
:102F000000880BF002F92FE094F83C0000F0030079
:102F10002749097888421AD0A08C00EB4000400273
:102F20004FF4B471B0FBF1F0244908802620005D15
:102F300000EB001000EB4000142190FBF1F01D4964
:102F4000087094F83C0000F003001949087002A8CA
:102F500003A9EAB204ABCDE900101648017817487E
:102F600000880BF0D2F800BF00BF9DF810009DF85C
:102F70000C109DF80820D708BDF8003067F3040353
:102F80008F080093BDF8003067F34A13C708009319
:102F9000BDF8003067F3CF230093BDF800703B46C7
:102FA0000193BDF80410084605B0F0BD680100208B
:102FB00066010020640100206501002062010020FC
:102FC00010B50120074908700748FEF742FC20B9F8
:102FD0000648006824F0FCF803E00448006824F088
:102FE00003F910BD14020020001501201802002072
:102FF00010B5044694F84200C0F3400070B9B4F82C
:10300000400000280ADDB4F840004FF6FF71884206
:1030100004D0B4F84000401EA4F84000B4F84000CA
:10302000D0B9A06B20B194F84200C0F3400098B131
:1030300021461A48FEF78CFCFFF7C2FFE06810B18A
:103040002046E1688847206910B1204621698847F9
:1030500020461AF069F91FE0E06B40422063A06B44
:10306000D0B194F84210C1F3400111B9616B4942EB
:10307000216394F842104908C94394F8422061F34F
:10308000410284F84220206AA16A2162A062E06ABB
:10309000A16BE162A06300BF10BD0000001501201C
:1030A0002DE9F04180464248006823F0F5FE0646CF
:1030B0004048007880F001003E4908703E48FEF725
:1030C000C8FB04466BE000203C49087094F84200BD
:1030D000C0F3800037490978884253D035480178D9
:1030E0003034A07C61F38200A07420688719A07C32
:1030F000303CC0F3C00010BB206B00281FDC002F49
:103100001DDB94F8420000F0010060B9606950B125
:103110002046616988470546206A28442062A06AE3
:103120002844A06200BFA06810B12046A16888476B
:1031300094F8420020F00800083084F84200206B28
:1031400030442063206B00281BDBD4E90B1088423D
:1031500001DDE06A20632046E16988470546606A30
:10316000A84206D06562606818B12946D4E9000219
:103170009047D4E90B10884202DB2046FFF738FF66
:1031800000BF00BF0D48007820B10B48FEF761FB7F
:10319000044604E021460848FEF773FB0446002C71
:1031A00091D123F087FE02490860BDE8F08100005C
:1031B000100200201502002000150120140200203A
:1031C00070B504460D46606818B129466068FFF77F
:1031D000F7FF206818B1294620462268904770BD45
:1031E00070B505460C46A1B228460FF0AFF970BD88
:1031F00070B505460C46A1B228460FF0F8F970BD2F
:103200002DE9FF4F8FB01F46DDF888801C980E9087
:103210001D980D9000200B902398042806D00528B7
:1032200009D006280CD014281AD114E000200C90E4
:103230004FF0020917E001200C904FF0030912E053
:1032400001200C904FF00209FEF778FE0546286831
:10325000008F0B9007E001200C904FF0020902E074
:1032600013B0BDE8F08F00BF002489E11E986043D1
:103270000E9901EB20201C901F9860430D9901EBE3
:1032800020201D901C9805121D980612002D07DBAA
:103290001098854204DA002E02DB1198864203DB87
:1032A000002008F8040069E11C98C0B20A901D983B
:1032B00000F0FF0A0A98802807DA4FF0FF3B0A98CF
:1032C000C0F17F0040000A9005E04FF0010B0A9822
:1032D000803840000A90BAF1800F07DA4FF0FF30D3
:1032E0000990CAF17F004FEA400A05E001200990E9
:1032F000AAF180004FEA400A0F98089006FB07F0F9
:1033000000FB09F005FB090108980844089005EB4B
:103310000B0000287EDB05EB0B011098401E81425C
:1033200078DC099830440028F4DB099831181198AA
:10333000401E8142F4DC0898079008980BFB0900B6
:103340000690099800FB07F1089801FB0900059019
:103350000C9800287FD0239B052B06D1079B9878DB
:10336000059B9978069B9A783BE0239B142B18D1F8
:10337000DDF844C007FB0CFCDDF83CE00EEB4C0331
:1033800006FB073C1CF8050006FB073CAC441CF898
:103390000B20DDF824C0B4440CFB073C1CF80510DE
:1033A0001FE0239B062B19D1079B1B88BDF82CC05F
:1033B00063450BD0059B1B88BDF82CC0634505D029
:1033C000069B1B88BDF82CC0634503D1002308F879
:1033D0000430D3E0FF20FF21FF2202E0FF20FF2185
:1033E000FF22814207D001FB0AF3CAF5807C00FB73
:1033F0000C33C3F30721824209D00A9B5343DDF803
:1034000028C0CCF5807C00FB0C33C3F307228B185B
:103410005B1000E059E008F8043018F8043003B9F4
:10342000ACE0079B93F800C05B780CEB03239BB2E6
:103430000493059B93F800C05B780CEB03239BB2CD
:103440000393069B93F800C05B780CEB03239BB2BD
:1034500002930CE0FFE70798008804900698008824
:103460000290059800880390FF2008F80400BDF83A
:103470001000BDF80C1088420CD1BDF81000BDF84A
:103480000810884206D1219800EB4400BDF81010C6
:10349000018019E00AF0FF02DDE9030111F08AFC66
:1034A00003900A98C2B20499029811F083FC02902A
:1034B0007F22DDE9020111F07DFC0190219800EBF3
:1034C0004400BDF80410018057E008990A78497853
:1034D00002EB01218AB2219921F8142023990529B0
:1034E00004D0062905D0142919D10EE0089988784E
:1034F00017E0219931F81410BDF82C20914201D128
:10350000002100E0FF2108460BE0119A07FB02F1C1
:103510000F9A02EB410106FB0711485D01E0FF2015
:1035200000BF00BF15B9BBF1000F06DB1099491EA3
:10353000A9420BD1BBF1000F08DD0A99C1F1FF01CF
:103540004143C1F3072108F8041015E016B90999A1
:10355000002906DB1199491EB1420AD109990029B7
:1035600007DDCAF1FF014143C1F3072108F8041048
:1035700002E0002108F8041000BF00BF601C04B284
:1035800020988442FFF672AE00BF69E62DE9F84F3D
:1035900004468C4690469946109FDDE90A56AA4695
:1035A0000096002032E00C9941430AEB21250D9949
:1035B0004143DDF800B00BEB21262A123312002A1A
:1035C00005DB624503DA002B01DB434502DB00210A
:1035D000395419E0214603FB09FB0BEB4B0B02EBC3
:1035E000420EF344594491F800B091F801E00BEB1E
:1035F0000E2B1FFA8BFEDDF83CB02BF810E091F893
:1036000002B007F800B000BF411C08B20E99884212
:10361000C9DBBDE8F88F000030B591B004462546FF
:10362000A88F18B9204626F013F81EE068460EF061
:1036300021FA294668460EF0E0FA0D4968460EF078
:10364000A7FAA98F68460EF0B8FA01220021684651
:103650000EF0C9FA074968460EF09EFA0648039034
:1036600000BF68460EF0DCFA00BF11B030BD0000AC
:10367000D99602085F1B0108DB96020870B5044664
:103680000D4600BF204600F03BF818B100BF00BF58
:1036900000BFFEE700BF284600F050F9001D61683A
:1036A00008446060204600F03AF8204670BD70B5CE
:1036B00005460C46284600F041F904F11001884205
:1036C00001D3012070BD0020FCE70146A1F10800F4
:1036D00070477CB505460C46204600F02FF906469B
:1036E0006A4601A924F0AEFD21462846DDE90032F4
:1036F0000DF0D2F87CBD0146087900F0010070475A
:1037000010B50446204600F019F908B9012010BD93
:103710000020FCE70146087900F00200704770B510
:103720000446204600F097F805462C60284670BDF8
:103730007CB506460C4600200190009000256CB137
:103740006A4601A9204624F09AFD0198092805DA65
:103750006A4601A9304627F044FC054685B100BF02
:10376000284600F0EBF8A04203D200BF00BF00BF24
:10377000FEE700BF29463046DDE9003226F0E2FFD1
:1037800028467CBD70B504462046FFF7C8FF0546B5
:10379000284600F0BEF8204600F0B6F870BD70B5BF
:1037A0000446204600F057F80546284600F0B6F8D3
:1037B000204600F0BEF870BD70B506460D4628469E
:1037C00000F049F8044600BF1CB900BF00BF00BFAD
:1037D000FEE700BF2046FFF78EFF90B100BF2846EE
:1037E000FFF78EFF18B100BF00BF00BFFEE700BFAC
:1037F0002146304600F076F821462846FFF73EFF86
:103800000546284670BD70B506460D462846FFF7AA
:1038100081FFF0B1284600F057F8044600BF1CB9FC
:1038200000BF00BF00BFFEE700BF00BF2046FFF79C
:1038300062FF18B900BF00BF00BFFEE700BF21460E
:10384000304600F04FF829462046FFF717FF05469F
:1038500000BF284670BD2DE9F0410446204600F027
:103860006DF8061F204600F0B8F80746314624F0F0
:10387000F6FF054600BF2046FFF742FF18B100BF24
:1038800000BF00BFFEE700BF2846BDE8F0812DE97C
:10389000F04106460C461546002794B100BF1DB9FD
:1038A00000BF00BF00BFFEE700BF2A4621463046EA
:1038B00000F097F82046FFF772FF204600F08DF8E1
:1038C00007463846BDE8F08110B5044600BF2046E3
:1038D000FFF720FF18B900BF00BF00BFFEE700BF21
:1038E000206810BD7CB505460C46204600F026F841
:1038F00006466A4601A924F0A5FC21462846DDE9D2
:10390000003226F01FFF7CBD416841F0010141609B
:103910007047416841F0020141607047416821F001
:10392000020141607047426802F003030B434360A9
:103930007047416821F001014160704701464868C5
:1039400020F0030070472DE9F04706460C4630464C
:1039500000F043F88046211F24F081FF07463046DF
:10396000FFF7ECFF211D451A00BF384600F035F87F
:103970008146384600F031F880460421FFF743F9CC
:10398000814503D000BF00BF00BFFEE700BF00BFFE
:103990003046FFF7D3FF2919091D884203D000BF25
:1039A00000BF00BFFEE700BF29463846FFF7BBFF58
:1039B00000BF3846FFF7C2FF0C2803D200BF00BF8C
:1039C00000BFFEE700BF21463046FFF7ACFF384698
:1039D000FFF7D8FE3846BDE8F087014601F1080040
:1039E00070472DE9F04106460C46154600BF2046BB
:1039F000FFF781FE18B900BF00BF00BFFEE700BFA0
:103A000029462046FFF753FE78B129462046FFF7A6
:103A10009AFF07462046FFF782FE3846FFF779FFF8
:103A200039463046FFF755FE00BFBDE8F0812DE96D
:103A3000F04106460C46154600BF2046FFF75BFEE8
:103A400018B100BF00BF00BFFEE700BF29462046F7
:103A5000FFF72DFE88B129462046FFF774FF074681
:103A60003846FFF75BFF39463046FFF7A5FE0746AD
:103A700039463046FFF72DFE00BFBDE8F0812DE945
:103A8000F8430646344617F0F7FC8046404617F0E8
:103A900038FD78BB304615F05AFB38B3304615F088
:103AA000D3F9208FE18E884212D0E08E2087E08EFD
:103AB00000906A461C21304615F02CFE0746012F67
:103AC00002D03846BDE8F88330461DF015FF00BF30
:103AD000404617F026FD0546042D06D130461BF062
:103AE00053FD0746002116F02FFC09E0304615F083
:103AF00091FB05E0FFE7208FE08630461DF0FCFEDD
:103B00000120DFE72DE9F0410446204615F0FCFDD9
:103B1000054628461BF092FD064628460FF0C2FDDA
:103B2000074601223946304622F0E2FBBDE8F0812B
:103B30000146C1F3C01070470146C1F380107047C1
:103B40000146C1F3C01070470146C1F30020704721
:103B50000146C1F3C00070470146C1F340107047F1
:103B60000146C1F3402070470146C1F30030704761
:103B70000146C1F3001070472DE9F04F89B00446AB
:103B80000D46002120461BF0F3FB30B91C212846CE
:103B900019F0A0FD09B0BDE8F08F2946204600F0DD
:103BA0000BFB2946204600F07DF8002120461CF042
:103BB000EBFD0890002120461CF02AFF0790002111
:103BC00020461CF0CEFB012800D100E000208146F9
:103BD000002120461DF086F90746002120461CF0F2
:103BE000A7FC064642F2D170874205D1608CC0F333
:103BF000802008B9012000E00020824620461BF00A
:103C000057FC069000BF4FF0000824480288414648
:103C100020461CF0B1FF03900398C0B200BF83465A
:103C2000AA6829692868CDE90209CDE900125A4637
:103C30005146089B06980CF009FC288342F2D1708B
:103C4000864205D1608CC0F3402008B9012000E015
:103C50000020059020461BF00CFC049000BF4FF0A4
:103C600000080F480288414620461CF085FF03905B
:103C70000398C0B200BF83460023EA686968686998
:103C8000CDE90213CDE900025A46079BDDE90401A4
:103C90000CF0DCFB688300BF7CE70000DE01002045
:103CA000E20100202DE9F34F87B00C4607980BF096
:103CB00097FB804607981BF0FBFB0690404601F0FF
:103CC000D1FA20612169480019F09AFA206021692F
:103CD000480019F095FAA060002548E05848029085
:103CE00038F9150041F69A7188423FD100200190C1
:103CF00029E0019907981BF03BFB0090514900987F
:103D00001DF085FA00B11BE000980BF087FB82469E
:103D1000BAF1010F00D013E000980BF06FFB83465F
:103D2000AB4500D00CE000981DF009FA02998842DA
:103D300001DA029802E000981DF001FA029000BF3B
:103D40000198401C019007981BF030FB01998842B4
:103D5000CFD80298002804DB0298A16821F815004A
:103D600003E00021A06820F8151000BF6D1C206939
:103D7000A842B3D80026B14600251BE038F915004B
:103D800041F69B71884202DB411A0E4411E041F674
:103D90009A71884206D1A16831F8151049440FFA8A
:103DA00081F906E0A16821F8150009EB00010FFA7E
:103DB00081F96D1C2069A842E0D8002107981CF009
:103DC000E3FC05902169491EDDE9050200FB112095
:103DD00000B206900698A0EB090007B2002F00DAA7
:103DE00000274FF0FF30049000200390002513E0DF
:103DF00038F9150041F69B7188420CDB421A11B26A
:103E000007FB01F2B2FBF6F212B2A36823F8152009
:103E10000495039100BF6D1C2069A842E8D804985E
:103E200000280ADB0398301A7843B0FBF6F0381A02
:103E300001B2A268049822F8101009B0BDE8F08F12
:103E400001E0FFFF010006002DE9FC5F05460022AE
:103E5000114628461EF0C8FE002128461CF0DDFA57
:103E60008146002128461CF0EBFD484407B20021A2
:103E700028461CF0EDFB48440FFA80FA28461CF057
:103E8000D1F9384450440FFA80FB3B4E28461BF0D2
:103E90008DFA01904FF000085CE0A868006850F8C7
:103EA0002840364920461DF0B2F900B150E02046C6
:103EB0001DF09AFD002839D1002120461CF0E3F9BD
:103EC0000090009830B1012807D0022804D00328C0
:103ED00015D100E000BF00BF00BFB4F91A10B5F95A
:103EE0001600081A401CB04201DA304605E0B4F969
:103EF0001A10B5F91600081A401C06B214E0002189
:103F000020461DF013F870B904F114000EF04BFCBC
:103F10003844B04201DA304604E004F114000EF0F7
:103F200042FC384406B200BF00BF10E0B4F91A10DA
:103F3000B5F91600081A401CB04201DA304605E017
:103F4000B4F91A10B5F91600081A401C06B200BFE1
:103F500008F10108019880459FD30748864209D09F
:103F600006EB0A0006B25E4502DD3046BDE8FC9F66
:103F70005846FBE75846F9E701E0FFFF010004005F
:103F80002DE9FC5F05460022114628461EF010FE72
:103F9000002128461CF041FA8246002128461CF0E8
:103FA000A7FC50440FFA80F8002128461CF010FCB2
:103FB00050440FFA80F928461CF044F94844404424
:103FC00000B20190724C28461BF0F0F983460021A4
:103FD00028461CF096F9012866D100265BE0A86807
:103FE000006850F826706B4938461DF010F900B192
:103FF00050E038461DF0F8FC002839D10021384641
:104000001CF041F90090009830B1032805D0062833
:1040100004D0082815D102E000BF00BF00BFB5F9E9
:104020001800B7F91410401A401CA04201DA2046CB
:1040300005E0B5F91800B7F91410401A401C04B295
:1040400014E0002138461CF065FF70B907F1140038
:104050000EF015FC4044A04201DA204604E007F1CE
:1040600014000EF00CFC404404B200BF00BF10E08E
:10407000B5F91800B7F91410401A401CA04201DA33
:10408000204605E0B5F91800B7F91410401A401C95
:1040900004B200BF761C5E45A1D33D48844269D07E
:1040A00004EB090004B265E000265BE0A868006844
:1040B00050F82670374938461DF0A9F800B150E095
:1040C00038461DF091FC80BB002138461CF0DBF81F
:1040D0000090009830B1012805D0042804D00728AA
:1040E00015D102E000BF00BF00BFB7F91800B5F955
:1040F0001410401A401CA04201DA204605E0B7F92E
:104100001800B5F91410401A401C04B215E0002143
:1041100038461CF00BFF78B907F114000EF0AFFB26
:104120004844A04202DA204605E008E007F1140006
:104130000EF0A5FB484404B200BF00BF10E0B7F981
:104140001800B5F91410401A401CA04201DA2046AC
:1041500005E0B7F91800B5F91410401A401C04B274
:1041600000BF761C5E45A1D30948844202D004EB0F
:10417000080004B20648844202D10198BDE8FC9FC1
:104180000198844201DD2046F8E70198F6E7000037
:1041900001E0FFFF0100040010B50446206819F09B
:1041A000ABF8606819F0A8F8A06819F0A5F8E06805
:1041B00019F0A2F810BD00002DE9F34F87B00C46AE
:1041C00007980BF0CBFE8046404601F04BF860614B
:1041D0006169480019F014F860606169480019F0DD
:1041E0000FF8E060002547E05948029038F91500C3
:1041F00041F69A7188423ED14FF0000A29E05146BB
:1042000007981BF0B5F80190524901981CF0FFFF88
:1042100000B11CE001980BF061FF8346BBF1010F78
:1042200000D014E001980BF049FF00900098A842DC
:1042300000D00CE001981BF0B1F90299884201DA34
:10424000029802E001981BF0A9F9029000BF0AF160
:10425000010A07981BF0AAF85045D0D80298002808
:1042600004DB0298E16821F8150003E00020E16812
:1042700021F8150000BF6D1C6069A842B4D8002663
:10428000B14600251BE038F9150041F69B718842C4
:1042900002DB411A0E4411E041F69A71884206D1C0
:1042A000E16831F8151049440FFA81F906E0E16838
:1042B00021F8150009EB00010FFA81F96D1C606906
:1042C000A842E0D8002107981CF0A2FB06900798AE
:1042D0001BF0CFF801466269521E069800FB1210CF
:1042E00000B205900598A0EB090007B2002F00DA94
:1042F00000274FF0FF30049000200390002513E0CA
:1043000038F9150041F69B7188420CDB421A11B254
:1043100007FB01F2B2FBF6F212B2E36823F81520B4
:104320000495039100BF6D1C6069A842E8D8049809
:1043300000280ADB0398301A7843B0FBF6F0381AED
:1043400001B2E268049822F8101009B0BDE8F08FBD
:1043500001E0FFFF0100060038B5044600256D228C
:10436000294620461CF008FC0090009800B208B1D5
:10437000022038BD00256C22294620461CF0FCFB9B
:104380000090009800B2B0F5807F01D00220F0E7E5
:10439000002120461CF020F9FF2801D00120E8E789
:1043A00000256722294620461CF0E6FB0090009875
:1043B000C0B208B10120DCE70020DAE77CB5044692
:1043C0000D46164628882189084400B2ADF8000041
:1043D00068886189084400B2ADF80200A888218984
:1043E000084400B2ADF80400E8886189084400B2CE
:1043F000ADF80600324669462046636998477CBDA1
:10440000F8B505460E462C46A06B58B1284622F05A
:104410003BFB0746114909688847A16B884201D3D5
:104420000020F8BD606B10B1606B007808B9012006
:10443000F7E7002000900AE06946094A606B1268BD
:1044400090470746B74201D10120EAE700BF606B01
:104450000099405C0028EFD100BFE2E7880200200D
:10446000780200202DE9FF4F8FB00F46209DF8788D
:1044700000F0010008B1F94800E0F9480E90F87822
:1044800000F0010008B1F74800E0F7480D90F87817
:1044900000F0010008B9F34800E0F3480C90012057
:1044A0000B90BEE000210B9100206988B5F804C094
:1044B000A1EB0C010AB200261AE006EB860CE968B3
:1044C00001EB8C01097C01F0010141B906EB860C7E
:1044D000E96801EB8C018989014408B207E006EB29
:1044E000860CE96801EB8C010989511A0AB2761C25
:1044F0002969B142E1D800268EE006EB860CE96816
:1045000001EB8C01097C01F0010100297DD100BF84
:1045100018B900BF00BF00BFFEE700BF92FBF0F874
:104520000FFA88F306EB8609D5F80C8008EB8908AA
:10453000B8F80C8008FB03F80FFA88F106EB86093F
:10454000D5F80C8008EB8908B8F9049006EB860AC8
:10455000D5F80C8008EB8A08B8F90680884501DD9B
:10456000884607E006EB860AD5F80C8008EB8A0837
:10457000B8F90680C14508DD06EB8609D5F80C8040
:1045800008EB8908B8F9048013E006EB8609D5F832
:104590000C8008EB8908B8F90680884501DD88465B
:1045A00007E006EB8609D5F80C8008EB8908B8F916
:1045B0000680C4468C450BD04FF0010806EB860AF6
:1045C000D5F80C9009EB8A09C9F81080CDF82C8039
:1045D00006EB8609D5F80C8008EB8908A8F808C016
:1045E00006EB8609D5F80C8008EB8908B8F80C8032
:1045F000A0EB08080FFA88F006EB8609D5F80C80C6
:1046000008EB8908B8F8088000E004E0A2EB08088D
:104610000FFA88F200BF761C2969B1423FF66DAFF0
:1046200000BF0B9800287FF43DAF00210F981BF0CE
:104630008CFE012800D100E000200A9000200990A3
:10464000089008A809A9CDE9001029890BB2B5F98D
:10465000022038781E9924F016F9F87800F001004D
:1046600048B10A9838B10F981AF022FFBDF824100B
:10467000084400B2099011990F981AF079FE044687
:104680008FE17A4920461CF0C2FD40B1F878C0F3B2
:10469000800111AA0F980BF092FA044681E10021E3
:1046A00020461BF011FF07900798002860D00020DB
:1046B0000390002610E006EB8601E86850F8210020
:1046C000A04208D106EB8600E96801EB8000B0F952
:1046D0000800039003E0761C2869B042EBD800BFC5
:1046E000F87800F0010050B1608C20F4806000F593
:1046F00080606084608C20F40070608409E0608CCD
:1047000020F4007000F500706084608C20F48060FC
:10471000608404F114000D9988470399884226D0DB
:1047200020461DF0E9F800BFA08AADF80400E08A39
:10473000ADF80600208BADF80800608BADF80A00DC
:1047400000BF04F114000E9A0399904701AA292191
:10475000204614F0DFFF20461AF070FF2246222187
:10476000009014F0D7FF20461DF0C6F800BF07E008
:10477000608C20F480606084608C20F40070608421
:10478000002006907878012812D0022819D104F16F
:1047900014000C998847B5F90010491C21F001015B
:1047A000081A039000EBD070401000B2069009E0A8
:1047B00004F114000C9988472988081A00B2069061
:1047C00000E000BF00BFF87800F0010050B10A9887
:1047D00040B104F114000D998847BDF82410081A5F
:1047E00000B20990002003906A22204603991CF031
:1047F000C3F9029002980FFA80F800BF00200390DE
:104800006B22204603991CF0B7F9029002980FFA28
:1048100080F900BF20461CF092FC059020461AF05B
:10482000BDFE049008F4C040B0F5005F01D1012046
:1048300000E0002030B128F4C040B0F5FA6F01DC90
:10484000012000E00020E0B128F4C040B0F57A7FFC
:104850000EDD28F4C040C0F57A700BE0CB290108CA
:10486000BF290108D3280108DF270108010006003D
:1048700028F4C04005994843642190FBF1F00FFAF9
:1048800080F809F4C040B0F5005F01D1012000E0DC
:10489000002030B129F4C040B0F5FA6F01DC0120EE
:1048A00000E0002090B129F4C040B0F57A7F04DD2B
:1048B00029F4C040C0F57A7001E029F4C0400499A1
:1048C0004843642190FBF1F00FFA80F9A18A1C980B
:1048D000401A40440FFA80FAE18A1D98401A484471
:1048E0000FFA80FBF87800F0010010B1BDF9240048
:1048F00000E0069850440FFA80FAF87800F00100C2
:1049000008B1069801E0BDF9240058440FFA80FB75
:10491000BAF1000F02D1BBF1000F1BD020461CF0F2
:10492000EBFFA08A504400B2A082208B504401B219
:104930002183E08A584401B2E182608B584401B27D
:10494000618320461CF0D8FF00235A46514620467A
:104950001DF0AAF8F87800F0010008B10A9870B9C3
:1049600004F114000D9988471F990844BDF82010E0
:104970000844BDF82410084400B2099008E0BDF8CE
:1049800020101F980844BDF82410081A00B209909E
:10499000F878C0F3800111AA0F980BF010F90446C3
:1049A00000BF24B1DDE9111081427FF46AAE13B07B
:1049B000BDE8F08F2DE9F04F8DB005468946B9F17D
:1049C000000F02D10DB0BDE8F08FA5F8189028684F
:1049D00010B1286818F0A8FC09EB4901062202EB87
:1049E000410018F0C3FB286028686860022128682D
:1049F00001FB0900801CE8600421286801FB090014
:104A0000001DA860B9F1010F0CD1B42069680870CD
:104A10000020E96808800120E96848800020A96832
:104A20000880CFE709F10101C80018F0E9FB07464B
:104A300009F1010007EB80084FF0000A4FEA8900F6
:104A400002B20BA90CA800F067F90024BDF93000F0
:104A50008010079000200390CCE0002616E00BA900
:104A60000CA800F061F90CA800F04BF900B90FE0B8
:104A7000BDF93000801007A941F82600BDF83000CC
:104A800000F0030003A941F82600761C042EE6DBA3
:104A900000BF042E00D0B3E00A990798884219D1CC
:104AA000079800B227F814000FFA8AF028F81400CB
:104AB000DDE903010844059908440699084469683A
:104AC00008556868005D0007000E69680855601C9D
:104AD00004B28DE0DDE9070188422CD0079800B2CE
:104AE00027F814000FFA8AF028F814000398696870
:104AF00008556868005D0007000E69680855601C6D
:104B000004B20798401E00B227F814000FFA8AF08A
:104B100028F814000498001D0599084406990844D3
:104B2000696808556868005D0007000E69680855E7
:104B3000601C04B25CE00999079888422CD0079861
:104B400000B227F814000FFA8AF028F81400DDE903
:104B500003010844696808556868005D0007000E95
:104B600069680855601C04B20798401E00B227F817
:104B700014000FFA8AF028F81400059808300699F6
:104B80000844696808556868005D0007000E696898
:104B90000855601C04B22BE0079800B227F81400F7
:104BA0000FFA8AF028F81400DDE90301084405999A
:104BB0000844696808556868005D0007000E696868
:104BC0000855601C04B20798401E00B227F8140074
:104BD0000FFA8AF028F8140006980C306968085516
:104BE0006868005D0007000E69680855601C04B223
:104BF0000AF1010A0CA800F084F800287FF42DAF18
:104C000000BF40F2D32109FB01F00290029880120C
:104C10000190601E37F910100198814205D1601E85
:104C200038F910100198814226D0DDE90121A1EB6D
:104C30008220B0F5007F04DC00FB00F14800001486
:104C400007E0C0F5806000FB00F148000014C0F1EF
:104C50000F00019909B227F81410019909B228F838
:104C600014106A6810556968095D0907090E6A68B9
:104C70001155611C0CB200BFA61E0EE038F81600DC
:104C800027F8140037F8160028F814006868805DCB
:104C900069680855761E601C04B2002EEEDA4FF0EB
:104CA000000B00260020E968088023E0E96821F86D
:104CB0001B6037F81600A96821F81B0010E0A868EF
:104CC00030F81B0037F91610884203DAA86830F86C
:104CD0001B0001E037F91600A96821F81B00761CBB
:104CE00038F91600584501D1A642E8DB0BF1010066
:104CF0000FFA80FBA642D9DB384618F0FDFA00BF58
:104D000060E60146B1F90200B1F90020904201DCF1
:104D1000012070470020FCE7028000234380C2F19D
:104D200001031BB20B807047B1F90020002A07DC99
:104D30000B8842885200D21C1A4412B20A800CE03E
:104D400042880388D21A5200521D0B881A4412B2AC
:104D50000A800288521E12B202804288521C12B28D
:104D60004280704737B582B01546022D04DCBDF88D
:104D70000C10084605B030BDBDF80C00C00ABDF8E7
:104D8000081000EBD1241F2C01D2204600E01F2088
:104D9000BDF8081060F3CF210291BDF80C00C0F3FC
:104DA0004510BDF80810C1F3451144183F2C01D23D
:104DB000204600E03F20BDF8081060F34A11029140
:104DC000BDF80C0000F01F00BDF8081001F01F0135
:104DD00044181F2C01D2204600E01F20BDF8081007
:104DE00060F304010291FF2D03D1BDF808100846BD
:104DF000C0E72A46DDE902010FF0BAFF0190BDF8D5
:104E000004100846B6E717B581B01446022C04DC3E
:104E1000BDF80810084604B010BDBDF80400C00A73
:104E2000BDF80810C90A10FB01F04109BDF80400E3
:104E300061F3CF200190BDF8040000F01F00BDF821
:104E4000081001F01F0110FB01F04109BDF804003A
:104E500061F304000190BDF80400C0F34510BDF8F3
:104E60000810C1F3451110FB01F08109BDF80400E1
:104E700061F34A100190FF2C03D1BDF804100846DD
:104E8000C9E72246DDE901010FF072FF0090BDF88D
:104E900000100846BFE737B582B01546022D04DC86
:104EA000BDF80C10084605B030BDBDF80C00C00AB6
:104EB000BDF80810A0EBD124002C01DD204600E055
:104EC0000020BDF8081060F3CF210291BDF80C005E
:104ED000C0F34510BDF80810C1F34511441A002C69
:104EE00001DD204600E00020BDF8081060F34A1103
:104EF0000291BDF80C0000F01F00BDF8081001F091
:104F00001F01441A002C01DD204600E00020BDF8FE
:104F1000081060F304010291FF2D03D1BDF80810C1
:104F20000846C0E72A46DDE902010FF021FF0190A3
:104F3000BDF804100846B6E708B50346009300988C
:104F4000484080EA620008BD2DE9FC5F8246504679
:104F500014F0DAFB0190504614F068FB0646019805
:104F60001AF06CFB0746BB462B2E09D1384621F0C0
:104F7000B2F9044600222146384621F0B9F95FE033
:104F80000A2E5DD116F078FA8046B8F1000F05D0F0
:104F900098F80400012801D1BDE8FC9F69460198FA
:104FA0001AF0CEFB9BF82C0000F00C00F8B1019831
:104FB0001AF07EFA0546002138461BF0BAF901289E
:104FC0000AD1284605EBD071BDF90020C2EB610182
:104FD00091FBF5F10CB209E0284605EBD071BDF963
:104FE000002002EB610191FBF5F10CB20EE001989B
:104FF0001AF03FFA0546284605EBD071BDF90220AC
:1050000002EB610191FBF5F10CB200BF002C00DA5C
:1050100000244FF00009384621F05DF9A04201D08C
:105020004FF0010901222146384621F061F9B9F11A
:10503000000F04D000221C21384614F06BFB00BF87
:1050400000BFA9E710B58060C060002303610021A4
:1050500010E0002400F1140343F82140002206E090
:1050600000F1380303EBC11343F82200521C202A3D
:10507000F6DB491C0929ECDB10BD2DE9FF4F87B099
:105080000546DDE9178ADDF85890149F089CB9F1B0
:10509000040F02D0B9F1060F58D128460DF0DEFBFF
:1050A00083465946504618F04CFBB5F90200784348
:1050B0004100B5F9000001EB4000044428460DF022
:1050C00039FC0590059840000490780000B20390E8
:1050D000CDF80880B5F902600DE02146049A0298E7
:1050E00018F076F9039804440599029800EB410002
:1050F0000290701C06B2B5F90600B042EDDAB9F1C3
:10510000060F22D14FF47F414FF0000C01F47C4E8A
:105110004CEA5E1CC1F3C40E4CEA0E0CCDF800C084
:10512000BDF800E0F446CDF804C04246BDF80430B6
:10513000002007E032F81010994202D100210AF84D
:105140000010401C5845F5D300BF88E0B9F1050FA9
:1051500041D1B5F90200784300EB4000B5F90010E9
:1051600001EB41010844044428460DF0E3FB381AE2
:1051700000B20590059800EB400000B2049028466C
:105180000DF05EFB039028460DF0D4FB834600260D
:105190001DE00020069010E0A17806980AF80010A3
:1051A0002078617800EB012081B2069828F8101071
:1051B000E41C0698401C00B2069006985845EBDBAC
:1051C00008EB4B08DA4404980444701C06B20398B8
:1051D0008642DEDB43E0B9F1140F40D1B5F902009D
:1051E00078434100B5F9000001EB40000444780029
:1051F00000B2059028460DF023FB049028460DF0E0
:1052000099FB834600260BE04FEA4B0221464046BD
:1052100018F0DEF808EB4B0805980444701C06B241
:1052200004988642F0DB089C099841000A9801FB2B
:105230000044B5F90000B5F9021007FB0100044471
:10524000002608E05A462146504618F0C1F8DA44D4
:105250003C44701C06B204988642F3DB00BF0BB0DE
:10526000BDE8F08F0146002000E0401C31F910201D
:1052700041F6FF739A42F8D170470000034909686C
:1052800060F30711014A11607047000008380240BE
:105290000349096860F38C21014A116070470000DE
:1052A000083802400349096860F34F31014A116030
:1052B0007047000008380240012807D107490968F3
:1052C00021F030013031054A116005E003490968D9
:1052D00021F03001014A116070470000A4380240FB
:1052E00005282BD2DFE800F0030A11182100154A27
:1052F000126861F30002134B1A6020E0114A126831
:1053000061F310420F4B1A6019E00E4A126861F304
:1053100018620C4B1A6012E00A4A7032126861F38C
:105320000002084B70331A6009E0064A74321268B2
:1053300061F30002034B74331A6000E000BF00BF4A
:1053400070470000003802402DE9FE4F04464FF040
:105350000009CA46CB460020029001900025002695
:1053600000F03AF90090009820B1012812D00228EC
:105370003FD112E031480068C0F3803038B12F4887
:105380000068C0F3003010B12D48206001E02D48C6
:10539000206031E02B4820602EE028489C380068CF
:1053A000C0F38050029025489C380068C0F38819EB
:1053B00022489C38006800F00F0A20489C3800689A
:1053C000C0F30240204911F800B0029810B91D48FE
:1053D000019001E01B4801900AFB0BFC0198A0FB27
:1053E00009700146624600233846FBF700F820604A
:1053F00002E01448206000BF00BF104898380068E1
:10540000C0F303151148465D2068F04060600B480A
:1054100098380068C0F382250D48465D6068F0400A
:10542000E060064898380068C0F342350948465D98
:105430006068F040A060BDE8FE8F0000A038024028
:10544000006CDC0200127A00260E0308060E030828
:10545000160E03081E0E030810B501460020094B66
:1054600003EB1142D2F8002801F01F040123A340EE
:105470001A4001F01F040123A3409A4200D000E02B
:10548000012010BD0030024030B50024002500E0AE
:10549000641C1120FFF7E0FF012802D0B4F5405F43
:1054A000F6D31120FFF7D8FF012801D0002500E036
:1054B0000125284630BD000010B501290FD1104B41
:1054C00003EB1042D2F8002800F01F040123A34090
:1054D0001A430B4C04EB1043C3F800280EE0084BB2
:1054E00003EB1042D2F8002800F01F040123A34070
:1054F0009A43034C04EB1043C3F8002810BD00008E
:105500000030024030B538B90F4C246824F4805480
:1055100004F580540C4D2C600B4C9C3C246860F3CB
:105520009654094D9C3D2C602C46246861F38E14E2
:105530002C602C46246862F303042C602C462468FB
:1055400063F312442C6030BDA03802401A48006852
:1055500020F00100401C1849086000BF1648006890
:10556000C0F340000028F9D013480830006820F04C
:10557000030011490831086000BF0F480830006877
:10558000C0F381000028F8D10B4800680B4908409F
:105590000949086000200849083108600848091FC7
:1055A000086000200449A03108604FF41F00024940
:1055B0000C3108607047000000380240FFFFF2FE27
:1055C000023003000349096860F30101014A1160D8
:1055D000704700000838024002480068C0F38100AC
:1055E00070470000083802407CB506460D46344638
:1055F0005420005D00F00100A84233D00DB101201D
:1056000000E000205421095D60F3000154200155A1
:1056100004F1480168460DF0ABF8BDF80000616A7E
:10562000898A084400B2ADF80000BDF80210606A33
:10563000C08A084400B2ADF80200BDF80400616AF7
:10564000898A084400B2ADF80400BDF80610606A0B
:10565000C08A084400B2ADF80600694630461CF026
:1056600075F900BF7CBD37B582B0054614462146AA
:1056700003980FF0C3F90190BDF80410084605B077
:1056800030BD2DE9FF4F8DB007460D461646E87A2E
:10569000022803DC012011B0BDE8F08F28892A69B7
:1056A00001460C901098FBF7DDFF04460CB9002072
:1056B000F1E7217D01F01F0014F0B7FE10B14FF0AB
:1056C000060818E0207D00F01F000E2801D180465A
:1056D00011E0207D00F01F00142801D180460AE06F
:1056E000217D01F01F0014F083FE10B14FF005087A
:1056F00001E04FF00408B8F10E0F09D1288818B95D
:105700006888B0F5807F03D04FF005080020A061C5
:10571000206A38B100BF00BF31463846226A25F002
:1057200071FEDEE0A069002859D031460BA80CF0CC
:10573000E9FF288818B96888B0F5807F32D03046F4
:105740000DF0ABF8834600BFF0887188401A401C0A
:1057500000B20890281D6988CDE90010B5F9003025
:1057600059460BA8089AFBF777FEBDF82C00318844
:10577000084400B2ADF82C00BDF82E007188084432
:1057800000B2ADF82E00BDF830003188084400B2F8
:10579000ADF83000BDF832007188084400B2ADF8B1
:1057A000320000BF0BAA09A8B968FBF7CBFA814603
:1057B000B9F1000F04D1204601F047FD01206AE74E
:1057C000D7F808A009A8B860CDF80080324629466D
:1057D0003846A36910F088FBC7F808A081E032467C
:1057E0000BA8B968FBF7AEFA0A900A9820B92046D0
:1057F00001F02BFD01204EE70BA80DF04EF80990AB
:105800000BA80DF04AF800EB4000039017F0F8FCED
:105810008146D7F808A00BA907A80CF073FF012157
:1058200007A80DF0CCF8BDF92C00B6F90010401A0D
:105830000690BDF92E00B6F90210A0EB010BBDF9E0
:105840002E00059042E007AA514602A8FBF77AFA1B
:105850000A900A9800B936E0CDF80090099803B292
:105860000FFA8BF2069801B2204615F0DDFA04908B
:10587000049801280ED0204615F006FA00BF00BF9C
:10588000484617F039FD204601F0DFFCC7F808A0B4
:10589000002000E702A8B8604B4607AA2946384610
:1058A000CDF8008010F020FBBDF81E00401C00B2B7
:1058B000ADF81E00BDF82200401C00B2ADF8220079
:1058C0000BF1010B00BF0598401C0590BDF932108B
:1058D00005988142B7DAC7F808A0484617F00CFDD2
:1058E00000BF204601F0B1FC0120D4E610B5042031
:1058F00027F0A8FE074800680749B0FBF1F0074908
:105900000860084600684FF47A714843044908600B
:1059100010BD00004000002040420F003000002079
:1059200034000020002131E032280ADD194A1268D3
:1059300032235A434FF0E0235A61A0F1320290B271
:1059400006E0144A126842434FF0E0235A610020F7
:1059500000224FF0E0239A611A46126942F00102D8
:105960001A6100BF4FF0E022116901F001021AB183
:1059700001F48032002AF5D04FF0E022126922F0C3
:1059800001024FF0E0231A6100229A610028CBD176
:1059900070470000340000202DE9F04106460C4617
:1059A0001546B4F90400B4F90010401A401CB4F9CB
:1059B0000610B4F90220891A491C00FB01F70121E5
:1059C00020480AF0AEFCB4F806C01FFA8CF3B4F815
:1059D00004C01FFA8CF2B4F802C01FFA8CF1B4F8BC
:1059E00000C01FFA8CF0FAF74EFF0121164825F08F
:1059F00042FD102115480AF092FC0021144800F0E5
:105A000029F813480C3005601148001D076001217A
:105A1000001F00F01FF800BF022000F02DF8002842
:105A2000FAD000BF8021084825F031FD0128F9D0C7
:105A3000102106480AF075FC30460FF0D1FEBDE893
:105A4000F0810000000402400030014000000240EC
:105A500008640240026861F300020260704700219E
:105A60000160416001814181017341738173C173A0
:105A7000017441747047000001460022B1F1805F5B
:105A800002D90648026801E00548026802EA0100FE
:105A900008B1012070470020FCE7000000660240CA
:105AA0000064024002684BF6EF731A40026002681D
:105AB0000B891A4302604B7C026863F30D3202606B
:105AC000CB7B026863F38B2202608B7B026863F3FB
:105AD000092202604B7B026863F3C71202600B7BF2
