:020000040000FA
:1000000040BA704740BA704740BA704740BA70472C
:1000100040BA704740BA704740BA7047C0BA70479C
:10002000C0BA7047C0BA7047C0BA7047C0BA70470C
:10003000C0BA7047C0BA70474FEA3000704700003E
:100040004FEA3000704700004FEA30007047000070
:100050004FEA3000704700004FEA30007047000060
:100060004FEA3000704700004FEA3000704753EA13
:10007000020C00F069802DE9F04B4FF00006002BD8
:100080001FBFB3FA83F503FA05F424FA05F65E40C0
:1000900012BF1643B2FA82F502FA05F4C5F1200543
:1000A0001EBF22FA05FC44EA0C04203556EA044C33
:1000B0004FEA144418BF641C4FF000084FF00009C9
:1000C000904271EB030C39D3002919BFB1FA81F7C3
:1000D00001FA07F6B0FA80F700FA07F6C7F1200731
:1000E0001EBF20FA07FC46EA0C062037B6FBF4FCDC
:1000F000A7EB0507103F07F01F0BCBF120060CFA0A
:100100000BFB2CFA06F644BFB3460026202FA4BFF3
:100110005E464FF0000B5BEA060C08BF4FF0010B88
:1001200019EB0B09ABFB027C48EB0608C01B06FB76
:1001300002CC0BFB03CC71EB0C01C1E70B46024672
:1001400041464846BDE8F08B13B54FF000004FF034
:100150000001AFF30080BDE81C40704700B50020EF
:1001600000F0D8FB00F0C2FB00F05AFB00F044FBAB
:1001700000F0F8FB002000BD00B500F1E0430020D6
:1001800000F0C8FB00F0B2FB184600F099FB00F04D
:1001900033FB00F0E7FB002000BD10B501F026F9AD
:1001A00001F07EFA01F00CFA00F0DCFB002010BD3B
:1001B00030B500F1E04413460D46002000F0AAFBE4
:1001C00000F094FB0F4A14600F48506095600F4890
:1001D000D060002007E09469E107FCD013F8011B10
:1001E00082F80011401CA842F5D3506AC007FCD029
:1001F000506A40F00100506200F0FEFA00F0B2FBDD
:10020000002030BD001000A00300000142000032B9
:100210001648016841F4700101601548016841F019
:100220000101016001688907FCD5114908310A689C
:1002300022F003020A600A6812F00C0FFBD1026878
:100240000C4B1A40026000200860094A0A49121D3E
:1002500011600749A031086005494FF41F000C31B7
:1002600008600249500680390860704788ED00E058
:1002700000380240FFFFF2FE0230030000B501F03B
:1002800045FB00F06FFB002000BD000002490A683A
:1002900060F307120A6070470838024002490A6892
:1002A00060F38C220A6070470838024002490A68ED
:1002B00060F34F320A607047083802400549012850
:1002C000086803D020F030000860704740F030002C
:1002D000FAE70000A438024002490A6860F31042BD
:1002E0000A6070477038024010B50A4C094B9834C8
:1002F0000028186807D061F3DD601860206862F399
:100300001F70206010BD61F31A601860206862F3EE
:100310001B60F6E70838024002490A6860F30822C9
:100320000A607047A438024002490A6860F3D34269
:100330000A6070470038024002490A6860F356526A
:100340000A60704708380240094910280A6802D23A
:1003500060F39F7209E022F0404202F180420A609D
:10036000034998310A6860F313420A60704700003D
:10037000083802400D4A052810D2DFE800F00307D4
:100380000B101300106861F3000006E0106861F3C1
:10039000104002E0106861F3186010607047034A73
:1003A0007032EFE7014A7432ECE700000038024097
:1003B00070B5044600F002FA234920B101280CD0A0
:1003C00002280AD128E021480268520405D50068B5
:1003D000C00402D51E48206000E021601B49983906
:1003E00008681C4AC0F303107A44125C2068D040AD
:1003F00060600A68174BC2F382227B44223B9A5CFE
:1004000020FA02F2E260096803F10802C1F3423106
:10041000515CC840A06070BD0C489C3802680268FE
:10042000C2F388130268006802F00F02094EC0F39D
:1004300002407E44603E305C12FB00F2A1FB0301EF
:100440000023FFF714FEC6E700127A00A03802402E
:10045000006CDC025E15000002490A6860F3492264
:100460000A607047A438024002490A6860F3CF323C
:100470000A60704770380240064903090A6863F34E
:1004800014420A60034968310A6860F309220A606D
:1004900070470000083802401A4A811A90420ED074
:1004A0000ADC1949A0F54020082811D2DFE800F045
:1004B0001115191D21101025891E052908D812486B
:1004C0006830016841F0807101600168C901FCD4A5
:1004D0007047086840F4803012E0086840F400304B
:1004E0000EE0086840F480200AE0086840F400202C
:1004F00006E0086840F4801002E0086840F400005C
:1005000008607047180074000C3802400146002053
:1005100001F01F0301229A40044B03EB1141D1F873
:1005200000188A4300D101207047000000300240CB
:1005300002490A6860F392420A607047003802403C
:1005400030B500244FF4405500E0641C1120FFF743
:10055000DDFF012801D0AC42F7D31120FFF7D6FF11
:10056000012800D0002030BD08490A6822F0FF02AF
:100570005A320A60054AA03A136860F30F231360E9
:10058000086820F0FF00086070470000A0380240B3
:1005900002490A6860F387020A6070470038024027
:1005A00002490A6860F30C320A607047A0380240C2
:1005B00000B503460120FFF7F3FF0348016863F32A
:1005C0008E31016000BD0000A0380240044A0129BC
:1005D000116802D08143116070470143FBE70000BE
:1005E0000C38024002490A6860F382020A607047D0
:1005F0007038024010B5084C00F01F0301229A40E9
:1006000004EB10400129D0F8001803D09143C0F842
:10061000001810BD1143FAE70030024010B5084C35
:1006200000F01F0301229A4004EB10400129D0F88A
:10063000001803D09143C0F8001810BD1143FAE729
:100640000030024010B5084C00F01F0301229A4010
:1006500004EB10400129D0F8001803D09143C0F8F2
:10066000001810BD1143FAE70030024030B520B940
:100670000B4C256845F480552560094C9C3C256849
:1006800060F396552560206861F38E102060206825
:1006900062F303002060206863F31240206030BDE5
:1006A000A03802402DE9F04D92469B464FF47A72F5
:1006B000B1FBF2F30024661EDDF820E027464FF47C
:1006C000FA5C012043F2B0629CFBF0F1A1F5FA6103
:1006D000914202D804B904460746401C0F28F3DDB6
:1006E0002FE0DFF8688005211F200CFB00F292FB51
:1006F000F4F2174D154445451CD201258D40B2FB3F
:10070000F5F2934208D1AAF80040ABF80000AEF829
:1007100000100120BDE8F08D9A4201D9D51A00E001
:100720009D1AB54206D2AAF80040ABF800002E464A
:10073000AEF80010401CB0F5FA7FD6DD491ED3D5C7
:10074000641CBC42CDD90020E4E7000061AE0A0081
:10075000E05EF8FF1248016841F0010101600168A4
:100760008907FCD50E4908310A6822F003020A60A5
:100770000A6812F00C0FFBD102680A4B1A400260A3
:1007800000200860064A0849121D11600449A03182
:10079000086003494FF41F000C31086070470000E7
:1007A00000380240FFFFF2FE0230030002490A68EF
:1007B00060F301020A60704708380240024800688E
:1007C000C0F38100704700000838024002490A68FF
:1007D00060F30F320A607047A438024010B5044637
:1007E000012801D1FFF7E4FE0248016864F34D31AE
:1007F000016010BDA03802400748002101600203DB
:10080000426081600549C160416AC907FCD0416A04
:1008100041F0010141627047001000A00400000592
:100820000748002101600203426081600549C16000
:10083000416AC907FCD0416A41F001014162704739
:10084000001000A0020000600748002101600203C0
:10085000426081600549C160416AC907FCD0416AB4
:1008600041F0010141627047001000A002000099B0
:100870000748002101600203426081600549C160B0
:10088000416AC907FCD0416A41F0010141627047E9
:10089000001000A00200006607480021016002036A
:1008A000426081600549C160416AC907FCD0416A64
:1008B00041F0010141627047001000A0C20000FF3A
:1008C0000749086007484860002088600648C860FB
:1008D000486AC007FCD0486A40F00100486270478F
:1008E000001000A0030000010200002007480021C2
:1008F00001600203426081600549C160416AC90725
:10090000FCD0416A41F0010141627047001000A033
:10091000020000061249012817D08869C007FCD0E0
:100920000869C00502D508690006F9D5086940F4D0
:10093000002008610869C005FCD408690006F9D5E3
:10094000086920F4801008617047086940F480103D
:100950000861C86B0007FCD408690006FCD5704725
:10096000001000A0EB210170002141700422827070
:100970000622C270C1720F210173202141731249F6
:10098000104A0A63C279837942EA0322437942EA30
:10099000C322037942EA03324A63427B037B42EA81
:1009A0000322C37A42EAC332837A42EA0342437A99
:1009B000007A42EA036242EAC07088630120FFF7CE
:1009C000A9BF000006B40E00001000A010B5084C2E
:1009D000206840F004002060206840F04000206063
:1009E000E00600F023F8216821F00401216010BD29
:1009F000103C02400248016841F0800101607047EC
:100A0000103C0240084903200A68D20701D00020A8
:100A100070470A68520701D5012070470968C90666
:100A2000FBD50220704700000C3C024000B5034695
:100A3000FFF7E8FF02E0FFF7E5FF5B1E18B1002BB0
:100A400000D1042000BD002BF5D1FAE7034802498C
:100A5000016003490160704723016745043C02407F
:100A6000AB89EFCD10B5084C206840F00400206041
:100A7000206840F040002060E00600F023F8216884
:100A800021F00401216010BD503C02400248016881
:100A900041F0800101607047503C0240084903204A
:100AA0000A68D20701D0002070470A68520701D5B2
:100AB000012070470968C906FBD502207047000075
:100AC0004C3C024000B50346FFF7E8FF02E0FFF7A9
:100AD000E5FF5B1E18B1002B00D1042000BD002BE8
:100AE000F5D1FAE703480249016003490160704704
:100AF00023016745443C0240AB89EFCD032110B58B
:100B0000A0F10062CB07B2F5001F0ED2144C216891
:100B100041F008012160211D0860206840F040007C
:100B200020601846FFF782FF13E0A0F10262B2F5E1
:100B3000F81F13D20A4C4034216841F008012160AB
:100B4000211D0860206840F0400020601846FFF733
:100B5000B9FF0146206820F008002060084610BD5B
:100B6000103C024030B50322A0F100634FF4801521
:100B7000B3F5001F09D2104C226842F00102226036
:100B800001702846FFF752FF0EE0A0F10263B3F5B3
:100B9000F81F0ED2084C4034226842F00102226055
:100BA00001702846FFF78EFF0246206820F0010002
:100BB0002060104630BD0000103C024002490A6827
:100BC00060F3DF720A607047583C02400A4A00B581
:100BD000136860F30B031360106861F31730106043
:100BE000106840F0004010604FF0805000F0A8F90D
:100BF0000148001D006800BDF43C02400D4910B5DD
:100C00000B4A0A600C4A0A600A4C083421688905BC
:100C1000FCD5216841F010012160084908824FF499
:100C2000801000F08DF9216821F01001216010BDC5
:100C300023016745083C0240AB89EFCD00C0FF1F90
:100C40002DE9F04D044600682D49C043C2B2C0F3FF
:100C50000728C0F30747060E20602A4801602A498A
:100C600001602848083001688905FCD50168824682
:100C700041F010010160254D2A814FF4801B584638
:100C800000F05EF9032811D1A5F80A80584600F05B
:100C900057F903280AD1AF815F46584600F050F952
:100CA000032803D1EE81384600F04AF96168C94350
:100CB00061600C0ECAB2C1F30727C1F307460328CF
:100CC00016D1AA82584600F03BF9032810D1EF82D2
:100CD0005F46584600F034F9032809D12E83384680
:100CE00000F02EF9032803D16C83384600F028F970
:100CF000DAF8002022F01002CAF80020BDE8F08DDA
:100D000023016745083C0240AB89EFCD00C0FF1FBF
:100D100003490968016002490C3109684160704764
:100D2000203C0240F0B507461948184901601949AE
:100D30000160174C083420688005FCD5206840F01D
:100D400020002060206840F0400020604FF0004606
:100D5000304600F0F5F8216821F0200121600328D9
:100D600013D1206840F0100020600B4D0220288233
:100D7000304600F0E5F827B9A5202880304600F07D
:100D8000DFF8216821F010012160F0BD23016745E3
:100D9000083C0240AB89EFCD00C0FF1F024800684D
:100DA000C0F34000704700001C3C024010F0E041DE
:100DB00020F0E04005D0B1F1805F01D10249086028
:100DC000704701494039FAE74C3C02400146002097
:100DD00011F0E04221F0E04107D0B2F1805F09D08C
:100DE000B2F1804F05D1064A06E0054A103A03E009
:100DF00001207047024A303212680A42F8D1704727
:100E00001C3C024030B50322A0F100634FF4801572
:100E1000B3F5001F09D2104C226842F00102226093
:100E200001802846FFF702FE0EE0A0F10263B3F551
:100E3000F81F0ED2084C4034226842F001022260B2
:100E400001802846FFF73EFE0246206820F00100A0
:100E50002060104630BD0000103C024030B5124CFE
:100E6000206840F004002060206840F040002060CE
:100E7000E5062846FFF7DAFD216821F0040121602C
:100E8000032810D1084C4034206840F00400206052
:100E9000206840F0400020602846FFF713FE2168DC
:100EA00021F00401216030BD103C02400D4AC3070F
:100EB00003D0136861F38A231360830703D5136893
:100EC00061F30C331360084A430703D5136861F3D9
:100ED0008A231360000703D5106861F30C3010609B
:100EE00070470000103C0240503C02400548016839
:100EF00041F08001016003484030016841F0800109
:100F000001607047103C024002490A6860F30C32ED
:100F10000A607047003C0240084903200A68D20773
:100F200001D0002070470A68520701D501207047A0
:100F30000968C906FBD50220704700000C3C02403E
:100F400000B50346FFF7E8FF02E0FFF7E5FF5B1E91
:100F500018B1002B00D1042000BD002BF5D1FAE719
:100F6000032110B5A0F10062CB07B2F5001F0ED22D
:100F7000144C216841F002012160211D08602068A5
:100F800040F0400020601846FFF750FD13E0A0F14C
:100F90000262B2F5F81F13D20A4C4034216841F0C6
:100FA00002012160211D0860206840F0400020609F
:100FB0001846FFF787FD0146206820F002002060F8
:100FC000084610BD103C0240084900B508604807BB
:100FD000FFF7B6FF032806D10448001D006880070C
:100FE00001D5012000BD002000BD0000D43C02401E
:100FF000F0B514461D460E46A14207D2AC4203D9B5
:10100000A4F57F41FF3901D1AE4201D90120F0BDE5
:10101000134A12491160124918390A685207FCD55F
:101020000F49143908604FF480173846FFF788FFDE
:101030000328ECD1C6EA0540094910390860384652
:10104000FFF77EFF0328E2D1054944F000400C3948
:1010500008603846BDE8F040FFF772BF246D5FA31B
:10106000F03C024001480068000C7047D03C024050
:101070000148006880B27047C83C024002480068DE
:10108000C0F3084070470000D83C024001480068A7
:1010900080B27047D03C024003480068000701D589
:1010A0000120704700207047CC3C02400D4910B52C
:1010B0000B4A0A600C4A0A600A4C08342168890508
:1010C000FCD5216841F010012160084948804FF4A7
:1010D0008010FFF735FF216821F01001216010BD5D
:1010E00023016745083C0240AB89EFCD00C0FF1FDC
:1010F00002480068C0F38700704700001C3C0240B3
:101100000548044A02600549016003484030026016
:101110000160704723016745043C0240AB89EFCD75
:1011200030B5A524FFF73AFE00B100241748164950
:10113000016017490160154D083528688005FCD508
:10114000286840F020002860286840F040002860AF
:101150004FF00040FFF7F4FE296821F020012960DC
:1011600003280FD1A52C0DD1286840F0100028606D
:10117000084804804FF48010FFF7E2FE296821F050
:101180001001296030BD000023016745083C024082
:10119000AB89EFCD00C0FF1F0F4A10B5904203D1BD
:1011A000A52901D0032010BD0D4A0C4B13600D4B37
:1011B00013600B4C083422689205FCD5226842F07B
:1011C0001002226001804FF48010FFF7B9FE216801
:1011D00021F01001216010BD00C0FF1F23016745F1
:1011E000083C0240AB89EFCD30B50322A0F100638B
:1011F0004FF48015B3F5001F09D2104C226842F05D
:101200000102226001602846FFF710FC0EE0A0F109
:101210000263B3F5F81F0ED2084C4034226842F046
:101220000102226001602846FFF74CFC024620685C
:1012300020F001002060104630BD0000103C02404C
:1012400081627047816170470AB181617047816234
:1012500070474FF6FF71016000218171017141718A
:101260000121C1717047F0B50B8800229BB229E0C3
:10127000DC0724D0066854000325A540AE43066071
:101280008E790768A6403E4306604668012797406E
:10129000BE43466046680F7997403E434660866885
:1012A000AE438660CE798768A6403E438660C668B6
:1012B000AE43C6604D79A540C4682543C5605B0850
:1012C000521C92B2002BD3D1F0BD0246002012690D
:1012D000914300D101207047006980B270470246F7
:1012E000002052690A4200D001207047406980B254
:1012F00070474B0710B5DB0E9A40CC084FF00F013A
:1013000001FA03F106D0436A8B434362416A1143F9
:10131000416210BD036A8B430362016A114301629B
:1013200010BD41F48032C261C161C261C169C0694E
:101330007047002AC26B01D00A4300E08A43C263AF
:1013400070474161704700001F4910B5884202D1C3
:101350000121C4002EE01D49884202D101211C4C0C
:1013600028E01C49884203D1194C0121641C21E06A
:101370001949884203D1164C0121A41C1AE01749CF
:10138000884203D1124C0121E41C13E01449884225
:1013900003D10F4C0121241D0CE01249884203D1D6
:1013A0000B4C0121641D05E00F4988420BD1084C0C
:1013B0000121A41D2046FFF745F92046BDE8104055
:1013C0000021FFF73FB910BD0000024000040240B9
:1013D0000100100000080240000C02400010024012
:1013E0000014024000180240001C024010B5FFF734
:1013F000B1F901211F48FFF7FDF81F48016921F0ED
:101400000701491C01611D48016821F00301491CC5
:10141000016001210846FEF7ADFFFFF791F80028B3
:10142000FBD00122022390211046FFF71FF9012172
:101430000220FEF79FFF1920FFF768F80128FAD174
:101440000020FEF723FF0420FEF730FF0420FEF704
:1014500025FF0120FEF732FF0220FFF7A7F9FFF773
:10146000ADF90228FBD10020FEF728FFBDE81040AF
:1014700000F006BA1C00400000700040603C0240D2
:1014800002490A6860F308220A6070470070004051
:1014900009490A6842F004020A60012801D020B11B
:1014A00004E040BF20BF20BF00E030BF086820F04C
:1014B000040008607047000010ED00E00649820754
:1014C00003D50A6842F008020A60C00703D0086822
:1014D00040F004000860704700700040034A014675
:1014E000002052680A4200D001207047007000407E
:1014F00002490A6860F304120A60704700700040F5
:1015000002490A6860F347120A60704700700040A1
:1015100010B5054C01212046FFF794F82046BDE8A0
:1015200010400021FFF78EB81C00200007490A6810
:1015300022F004020A60012803D0002800D130BF45
:10154000704740BF20BF20BF7047000010ED00E093
:101550000748016841F004010160016841F002019F
:1015600001600448016841F00401016030BFFDE7FB
:101570000070004010ED00E002490A6860F30002CC
:101580000A60704700700040044A0129516802D087
:101590008143516070470143FBE700000070004049
:1015A000026961F312420261704790F800017047CE
:1015B00080F800117047026961F30202026170470E
:1015C00008B50020FFF7A6F90E48016921F01001C7
:1015D0000161016921F4E0210161016921F0070144
:1015E0000161FFF759F9FFF743F9FFF72DF94FF4C0
:1015F0001670009001E000BF0846411E0091FAD22B
:1016000008BD0000001000A04A6802600A7A0B7C46
:1016100042EA0342CB7842EA03620B7842EA037261
:101620004260CA6882600A7DCB7C520042EA830233
:101630008B7C42EAC3024B7C42EA43124B788978A6
:1016400042EA034242EA0161C1607047026A61F303
:10165000000202627047026A61F30D320262704753
:10166000026A61F3092202627047026961F355520E
:101670000261704701214162704702460020012942
:1016800009D0022903D0042904D1906904E09069AB
:10169000C0F340007047506A00F00100704700003E
:1016A0007CB501214048FEF7A5FF404C01212046B2
:1016B000FEF7A0FF01212046FEF79CFF641E0121DA
:1016C0002046FEF797FF01212046FEF793FFA41C5A
:1016D00001212046FEF78EFF01212046FEF78AFFFA
:1016E0006846FFF7B6FD01208DF8070000208DF851
:1016F000040002248DF806408DF8050060022C4D90
:10170000009069462846FFF7AEFD694628460094DA
:10171000FFF7A9FD4020274C009069462046FFF7BF
:10172000A2FD8021009169462046FFF79CFD102014
:10173000214E009069463046FFF795FD202000902D
:1017400069463046FFF78FFD09220A212846FFF738
:10175000D0FD092201212846FFF7CBFD0A220621F0
:101760002046FFF7C6FD0A2207212046FFF7C1FDEC
:101770000A2204213046FFF7BCFD0A22052130462B
:10178000FFF7B7FD0D4C0021204600F034F8012191
:101790002046FFF710FF0021204600F01CF8002132
:1017A0002046FFF7FDFE7CBD01003800010030003F
:1017B000000402400000024000080240001000A0A7
:1017C000B0F800017047A0F800117047026A61F399
:1017D000410202627047026961F3041202617047BC
:1017E000D0F800017047C0F800117047C26B61F378
:1017F0000002C26370470269C2F300528A4215D0E8
:101800008269D207FCD0026942F4002202610269B7
:10181000D205FCD4026961F3145202610269D20557
:10182000FCD4012902D1C16B0907FCD47047CA78E6
:101830008B7842EA03224B7842EAC3220B7842EAD1
:1018400003320263CA798B7942EA03224B7942EA76
:10185000C3220B7942EA033242634A7B0B7B42EAA2
:101860000322CB7A42EAC3328B7A42EA03424B7AB2
:10187000097A42EA036242EAC1718163704700005B
:1018800070B5FEF79BFF1D4C1B494C4420B101284D
:101890000CD002280AD116E019480268520405D576
:1018A0000068C00402D51748206000E02160144899
:1018B000983800681449C0F303107944085C216823
:1018C000C140216070BD0E489C3802680268C2F3B6
:1018D00088130268006802F00F020B4EC0F302404A
:1018E0007E442C3E305C12FB00F2A1FB030100237E
:1018F000FEF7BDFBD8E7000000127A0004000000EC
:10190000A0380240006CDC02AC000000074801680F
:1019100021F00301016005480838016821F0807159
:10192000016002490248091F0860704708380240F8
:101930000230030001020408102000000000010230
:101940000304000000000102030400000000000086
:10195000000001020304060708090000FFFFFFFF63
:10196000FFFFFFFF0102040810200000000000003C
:10197000000001020304060708090000000000003F
:0419800000127A00D7
:020000040000FA
:1019840001014154333246343335205153504931E7
:1019940020573235513332000000000000000000AF
:1019A4000000000000000000000000000000000033
:1019B4000000000000000000000000000000000023
:1019C4000000000000000000000000000000000013
:1019D4000000000000000000000000000000000003
:1019E40000000000000000000000000000000000F3
:1019F40000000000000000000000000000000000E3
:101A040000000500000000900000400000010000FC
:101A140000000000FF000000E8030000D007000001
:101A24000010000000000000FFFFFFFFFFFFFFFFAA
:101A340000000000000000000000000000000000A2
:101A44000000000000000000000000000000000092
:101A54000000000000000000000000000000000082
:101A64000000000000000000000000000000000072
:0400000500000000F7
:00000001FF
