:020000040800F2
:1000000078A60120AD030008550B00081108000870
:10001000510B00080B0800085D0C000800000000F0
:10002000000000000000000000000000ED020008D9
:100030000F0800080000000049030008590B0008E1
:10004000C7030008C7030008C7030008C703000868
:10005000C7030008C7030008C7030008C703000858
:10006000C7030008C7030008C7030008C703000848
:10007000C7030008C7030008C7030008C703000838
:10008000C7030008C7030008C7030008C703000828
:10009000C7030008C7030008C7030008C703000818
:1000A000C7030008C7030008C7030008C703000808
:1000B0001D0C0008C7030008410C0008C703000816
:1000C000C7030008C7030008C7030008C7030008E8
:1000D000C7030008C7030008C7030008C7030008D8
:1000E000C7030008C7030008C7030008C7030008C8
:1000F000C7030008C7030008C7030008C7030008B8
:10010000C7030008C7030008C7030008C7030008A7
:10011000C7030008C7030008C7030008C703000897
:10012000C7030008C7030008C7030008C703000887
:10013000C7030008C7030008C7030008C703000877
:10014000C7030008C7030008C7030008C703000867
:10015000C7030008C703000800000000C703000829
:10016000C7030008C70300080000000000000000EB
:10017000C7030008C7030008C70300080000000009
:1001800000000000C7030008C7030008C7030008F9
:10019000C70300080000000000000000000000008D
:1001A000000000000000000000000000C70300087D
:1001B000C703000800000000C7030008000000009B
:1001C000000000000000000000000000000000002F
:1001D0000000000000000000C7030008C70300087B
:1001E000C7030008C7030008C7030008C7030008C7
:1001F000C7030008C7030008C7030008C7030008B7
:10020000C7030008C7030008C703000800F002F88E
:1002100000F05CF80AA090E8000C82448344AAF144
:100220000107DA4501D100F051F8AFF2090EBAE842
:100230000F0013F0010F18BFFB1A43F0010318471A
:100240004CA003006CA003000A444FF0000C10F80F
:10025000013B13F0070408BF10F8014B1D1108BF44
:1002600010F8015B641E05D010F8016B641E01F8E4
:10027000016BF9D113F0080F1EBF10F8014BAD1C34
:100280000C1B09D16D1E58BF01F801CBFAD505E052
:1002900014F8016B01F8016B6D1EF9D59142D6D3AC
:1002A000704700000023002400250026103A28BFD4
:1002B00078C1FBD8520728BF30C148BF0B607047D8
:1002C0001FB521F0D7F91FBD10B510BD00F056FACB
:1002D0001146FFF7F5FF1BF08FFF00F074FA03B42F
:1002E000FFF7F2FF03BC02F0A2F800002C4B1968E4
:1002F0000868B0E8F04F80F30988BFF36F8F4FF0C4
:10030000000080F311887047000000000848006872
:10031000006880F308884FF0000080F3148862B60C
:1003200061B6BFF34F8FBFF36F8F00DF00BF00BF19
:1003300008ED00E0DFF80C00016841F47001016095
:10034000704700BF88ED00E0EFF30980BFF36F8FC7
:10035000134B1A681EF0100F08BF20ED108A20E919
:10036000F04F106009B44FF0100080F31188BFF314
:100370004F8FBFF36F8F20F039FA4FF0000080F3FA
:10038000118809BC19680868B0E8F04F1EF0100F1A
:1003900008BFB0EC108A80F30988BFF36F8F7047F5
:1003A0004C000020EFF305807047000009488047AB
:1003B00009480047FEE7FEE7FEE7FEE7FEE7FEE747
:1003C000FEE7FEE7FEE7FEE704480549054A064B5F
:1003D000704700008D0B00080D02000878A0012076
:1003E00078A6012078A2012078A20120704753EA64
:1003F000020C00F069802DE9F04B4FF00006002B55
:100400001FBFB3FA83F503FA05F424FA05F65E403C
:1004100012BF1643B2FA82F502FA05F4C5F12005BF
:100420001EBF22FA05FC44EA0C04203556EA044CAF
:100430004FEA144418BF641C4FF000084FF0000945
:10044000904271EB030C39D3002919BFB1FA81F73F
:1004500001FA07F6B0FA80F700FA07F6C7F12007AD
:100460001EBF20FA07FC46EA0C062037B6FBF4FC58
:10047000A7EB0507103F07F01F0BCBF120060CFA86
:100480000BFB2CFA06F644BFB3460026202FA4BF70
:100490005E464FF0000B5BEA060C08BF4FF0010B05
:1004A00019EB0B09ABFB027C48EB0608C01B06FBF3
:1004B00002CC0BFB03CC71EB0C01C1E70B460246EF
:1004C00041464846BDE8F08B13B54FF000004FF0B1
:1004D0000001AFF30080BDE81C40704740EA010313
:1004E000024630B59B0710D14FF0013400E008C23E
:1004F00008C91D1B9D4315EAC41FF8D013F0FF0166
:1005000002F8011B0DD01B0AF8E711F8013B002B84
:1005100002F8013B05D011F8013B002B02F8013B2A
:10052000F3D130BD10B5431C02E010F8011B71B1CE
:100530008107FAD14FF0013202C88C1A8C4314EAB9
:10054000C211F9D0C01A0A0603D0C01E10BDC01ACD
:1005500010BD0A0401D0801E10BD0902FCD0401E4F
:1005600010BD032A40F2308010F0030C00F015801B
:1005700011F8013BBCF1020F624498BF11F801CBA6
:1005800000F8013B38BF11F8013BA2F1040298BF0B
:1005900000F801CB38BF00F8013B11F0030300F075
:1005A0002580083AC0F0088051F8043B083A51F819
:1005B00004CBA0E80810F5E7121D5CBF51F8043B1E
:1005C00040F8043BAFF30080D20724BF11F8013B91
:1005D00011F801CB48BF11F8012B24BF00F8013BF3
:1005E00000F801CB48BF00F8012B704710B5203A46
:1005F000C0F00B80B1E81850203AA0E81850B1E8DC
:100600001850A0E81850BFF4F5AF5FEA027C24BF91
:10061000B1E81850A0E8185044BF18C918C0BDE888
:1006200010405FEA827C24BF51F8043B40F8043B51
:1006300008BF7047D20728BF31F8023B48BF11F806
:10064000012B28BF20F8023B48BF00F8012B704760
:1006500002F0FF0343EA032242EA024200F002B83A
:100660004FF000020429C0F0128010F0030C00F0DB
:100670001B80CCF1040CBCF1020F18BF00F8012B59
:10068000A8BF20F8022BA1EB0C0100F00DB85FEA27
:10069000C17C24BF00F8012B00F8012B48BF00F8F3
:1006A000012B70474FF0000200B513469446964662
:1006B000203922BFA0E80C50A0E80C50B1F1200175
:1006C000BFF4F7AF090728BFA0E80C5048BF0CC023
:1006D0005DF804EB890028BF40F8042B08BF704781
:1006E00048BF20F8022B11F0804F18BF00F8012BF3
:1006F000704700004FF0013C50F8042B51F8043BC8
:100700009A4221D1A2EB0C03934313EACC1317D1E5
:1007100050F8042B51F8043B9A4215D1A2EB0C037C
:10072000934313EACC130BD150F8042B51F8043B3C
:100730009A4209D1A2EB0C03934313EACC13DBD00A
:100740004FF00000704700BFD01A01BAB1FA81F132
:1007500001F0180122FA01F0CB40C1F12001DBB217
:10076000C0B2C01A2CFA01F3D11A914311EAC31195
:10077000E6D170477047704770477047754600F084
:100780002BF8AE4605006946534620F00700854623
:1007900018B020B5FFF718FEBDE820404FF0000666
:1007A0004FF000074FF000084FF0000B21F0070159
:1007B000AC46ACE8C009ACE8C009ACE8C009ACE89C
:1007C000C0098D46704710B50446AFF3008020463F
:1007D000BDE81040FFF783BD0048704714A001201A
:1007E00000F0A0F813F080FC40F2E731BF201FF0CA
:1007F00021F919F0E5FE0EF03BF805E000BF1AF014
:100800009FFF0A201FF01CFFF8E700BFFEE77047BC
:1008100000BFFEE72DE9F04107460C4615461E468F
:100820002A2000F067F9384600F054F9284600F015
:1008300051F92B2000F05EF9204600F04BF93046CC
:1008400000F048F92C2000F055F9BDE8F0810000D7
:100850001FB501214FF4401004F01EFD01212C486A
:1008600004F01AFD02A80BF0C5FA00208DF80C0068
:1008700001208DF80F0002208DF80E00202002903C
:1008800002A924480BF0C0FA2020029002A92248B5
:100890000BF0BAFA01208DF80E001820029002A980
:1008A0001C480BF0B1FA0920029002A91A480BF07B
:1008B000ABFA0522114617480BF0E3FA0522114660
:1008C00015480BF0DEFA0121144804F0E5FC6846F7
:1008D0001EF00BFE03208DF8000001208DF80100B2
:1008E00000208DF802008DF803008DF8040001202F
:1008F0008DF805008DF806008DF807006946084858
:100900001EF012FE012106481EF0FAFD1FBD000078
:100910000100300000000240000402400C004400CE
:100920000030014010B5FFF793FF082167480BF036
:100930005DFA642004F09AFE082164480BF058FA2E
:10094000642004F093FE082161480BF051FA642002
:1009500004F08CFE112000F0CDF8782004F086FE23
:10096000362000F0C7F8002000F0BDF83A2000F073
:10097000C1F8052000F0B7F8B22000F0BBF80C2059
:1009800000F0B1F80C2000F0AEF8002000F0ABF859
:10099000332000F0A8F8332000F0A5F8B72000F0CD
:1009A000A9F8352000F09FF8BB2000F0A3F819202B
:1009B00000F099F8C02000F09DF82C2000F093F88A
:1009C000C22000F097F8012000F08DF8C32000F05D
:1009D00091F8122000F087F8C42000F08BF8202056
:1009E00000F081F8C62000F085F80F2000F07BF8B9
:1009F000D02000F07FF8A42000F075F8A12000F0CE
:100A000072F8E02000F076F8D02000F06CF80420B6
:100A100000F069F80D2000F066F8112000F063F88E
:100A2000132000F060F82B2000F05DF83F2000F06C
:100A30005AF8542000F057F84C2000F054F81820D1
:100A400000F051F80D2000F04EF80B2000F04BF8AC
:100A50001F2000F048F8232000F045F8E12000F0C6
:100A600049F8D02000F03FF8042000F03CF80C20BA
:100A700000F039F8112000F036F8132000F033F8B8
:100A80002C2000F030F83F2000F02DF8442000F03A
:100A90002AF8512000F027F82F2000F024F81F201A
:100AA00000F021F81F2000F01EF8202000F01BF8B5
:100AB000232000F018F8212000F01CF8112000F08D
:100AC00019F8292000F016F810BD000000040240BB
:100AD0000000024010B50446201200F01BF8E0B2FE
:100AE00000F018F810BD10B50446204600F012F8CA
:100AF00010BD000010B50446012105480BF076F941
:100B0000204600F007F8012101480BF071F910BDF3
:100B10000004024010B5044610210B480BF066F9A2
:100B200000210A481EF0F1FC214608481EF0F2FCA4
:100B300000BF802105481EF0EFFC0128F9D01021EC
:100B400001480BF055F910BD000002400030014093
:100B500000BFFEE77047000010B500BF102080F313
:100B60001188BFF34F8FBFF36F8F00BF20F046FB9C
:100B700018B14FF080500449086000BF002080F396
:100B8000118800BF10BD000004ED00E01F480068A0
:100B900040F470001D4908601D48006820F0010005
:100BA000401C1B49086000BF19480068C0F34000A2
:100BB0000028F9D016480830006820F003001449D6
:100BC0000831086000BF124808300068C0F3810097
:100BD0000028F8D10E4800680E4908400C4908600A
:100BE00000200B49083108600B48091F08600020ED
:100BF0000749A03108604FF41F0005490C31086017
:100C00004FF00060014980390860704788ED00E0CE
:100C100000380240FFFFF2FE0230030010B5012150
:100C200088071EF042FF40B104480068401C034999
:100C30000860012188071EF035FF10BD3C00002030
:100C400000200449086004480068401C024908600C
:100C500070470000100800404000002000BFFEE781
:100C600070B50446002508E02168481C206008781B
:100C7000303805EB850100EB41052168087800F06C
:100C800004F80028F0D1284670BD0146302903DB66
:100C9000392901DC012070470020FCE710B5442110
:100CA000074800F0ABFD00220A2106481AF0DCFCE0
:100CB0000549086001F0A2FF00200449087010BD3A
:100CC000481B0120DD2C00085401002050010020A9
:100CD00030B50346B1F90040B2F90050AC4202DD34
:100CE000B1F9004001E0B2F900401C80B1F90240C6
:100CF000B2F90250AC4202DDB1F9024001E0B2F9B2
:100D000002405C80B1F90440B2F90450AC4202DA0E
:100D1000B1F9044001E0B2F904409C80B1F9064009
:100D2000B2F90650AC4202DAB1F9064001E0B2F97C
:100D30000640DC800120B3F90040B3F90450AC4216
:100D400005DCB3F90240B3F90650AC4200DD0020E7
:100D500030BDF8B504460D4616460027B4F900002C
:100D6000B5F90010884212DBB4F90200B5F902109F
:100D700088420CDBB4F90400B5F90410884206DCA3
:100D8000B4F90600B5F90610884200DC01270FB956
:100D90000020F8BD0EB90120FBE72088ADF8000067
:100DA0006088ADF8020032466946284600F0A7F890
:100DB00008B90020EDE7A088ADF800006088ADF824
:100DC000020032466946284600F099F808B900202A
:100DD000DFE72088ADF80000E088ADF80200324679
:100DE0006946284600F08BF808B90020D1E7A088B2
:100DF000ADF80000E088ADF80200324669462846AA
:100E000000F07DF808B90020C3E70120C1E70246E1
:100E1000B2F90000B1F90430984213DCB2F90400D1
:100E2000B1F9003098420DDBB2F90200B1F9063099
:100E3000984207DCB2F90600B1F90230984201DBB2
:100E4000012070470020FCE7F8B504460D46164621
:100E5000B4F90400B5F90010884211DBB4F90600BA
:100E6000B5F9021088420BDBB4F90000B5F90410A3
:100E7000884205DCB4F90200B5F90610884201DDAC
:100E80000120F8BD0EB90020FBE72088ADF8000076
:100E90006088ADF8020032466946284600F02FF817
:100EA00008B10020EDE7A088ADF800006088ADF83B
:100EB000020032466946284600F021F808B10020B9
:100EC000DFE72088ADF80000E088ADF80200324688
:100ED0006946284600F013F808B10020D1E7A08841
:100EE000ADF80000E088ADF80200324669462846B9
:100EF00000F005F808B10020C3E70120C1E72DE9A3
:100F0000FC5F05460E4614464FF0000AB6F9000095
:100F1000B5F90010884213DBB6F90000B5F90410EA
:100F200088420DDCB6F90200B5F90210884207DBF1
:100F3000B6F90200B5F90610884201DC4FF0010A4B
:100F4000BAF1000F02D10020BDE8FC9F002C01DCAB
:100F50000120F9E728460DF0E5F8834600EBDB7049
:100F6000471028460DF079F8834600EBDB704FEA16
:100F70006008474501DA384600E0404681464C4566
:100F800000DD4C462888ADF800002888204400B2D7
:100F9000ADF804006888ADF802006888204400B20B
:100FA000ADF80600002231466846FFF7A8FF80B181
:100FB000BDF80400204400B2ADF80400BDF80600FE
:100FC000204400B2ADF806003146684619F0D0FA68
:100FD000BAE7E888001B00B2ADF80200E888ADF877
:100FE0000600002231466846FFF789FF80B1BDF850
:100FF0000400204400B2ADF80400BDF80200001B5C
:1010000000B2ADF802003146684619F0B1FA9BE72C
:10101000A888001B00B2ADF80000A888ADF8040055
:10102000002231466846FFF76AFF80B1BDF8000034
:10103000001B00B2ADF80000BDF80200001B00B2BA
:10104000ADF802003146684619F092FA7CE76888EC
:10105000ADF802006888204400B2ADF80600002216
:1010600031466846FFF74BFF80B1BDF80000001B1A
:1010700000B2ADF80000BDF80600204400B2ADF8A3
:1010800006003146684619F073FA5DE701205BE718
:1010900010B5B1F90030B2F90040A34202DAB1F95B
:1010A000003001E0B2F900300380B1F90230B2F94A
:1010B0000240A34202DAB1F9023001E0B2F9023093
:1010C0004380B1F90430B2F90440A34202DDB1F922
:1010D000043001E0B2F904308380B1F90630B2F98E
:1010E0000640A34202DDB1F9063001E0B2F9063054
:1010F000C38010BD10B5044614B90DF0C7FC0446FA
:101100001CB900BF00BF002010BD6068FCE70000F4
:101110002DE9FE4307461AF0A2FA8146002002900C
:101120001FB18B49F868086003E00DF0AFFC8849F7
:10113000086087490968086919F010F9844800684F
:10114000406920B182490968486919F007F9804966
:101150000968C86919F002F97D490968086A19F037
:10116000FDF87B480068006940B9002078490968AB
:10117000A1F8500100BF00BFBDE8FE8319F08AFA54
:101180001CF0D4FE72480068B0F8500130B34FF440
:1011900080716F480068303014F08EFA20216C485E
:1011A000006800F5987014F087FA00206849096813
:1011B000A1F8500148461AF045FA029064480068C8
:1011C0000068406A50B16249096808686049096866
:1011D00009684B6A5F490A680299984713F0E4FF6F
:1011E00000F0FCF800F0C4F85B484669002E53D1CB
:1011F00000BF0DF04BFC05460DF07BFC044613F0E0
:1012000007F8064600227F21304618F03CFF00BF59
:101210000022114610460DF08EF90090BDF8001026
:101220000846002201460190304618F01CFF00BF1E
:10123000FF22114610460DF07EF90090BDF8001017
:101240000846002201460190304618F0CDFF0022EA
:101250000321304618F0A0FF00220321304618F089
:1012600077FF00220321304618F07EFF0022032181
:10127000304618F085FF00220321304618F0A8FF01
:1012800036A1304613F084FD00231A46062130466D
:1012900014F030FB304846612F4908681AF0D2F943
:1012A000B0F5967F10D22B48006841F28831884211
:1012B0004BD92948406802990844274948600846A4
:1012C0008068401C886040E01AF0C9F92249086033
:1012D0001F480068406840B11D48006840680068C9
:1012E0004FF47A71B1FBF0F400E064241A484068CE
:1012F00010B90120184948601748806808B9254688
:1013000008E0154880684FF47A71484312494968EB
:10131000B0FBF1F50020104948608860A54200D973
:1013200025460D48006928440B4908610846C068F5
:10133000401CC8601AF0FEF9C0F1640843462A4612
:1013400007A1304613F06CFD00BF00BF14E700009A
:101350000C01002008010020001B01203F000000BC
:101360002575204650530A257525252043505500E4
:1013700010B5002416E0C4EBC4000C4951F820005D
:1013800030B1C4EBC401094A52F8210013F0BEFF8A
:10139000C4EBC401054A02EB81001C2114F08CF956
:1013A000601CC4B2042CE6DB10BD0000241C01202C
:1013B0000146094A10680BE042688A4202D002687E
:1013C0008A4204D1027E22F00102521C0276406958
:1013D0000028F1D170470000E000002070470000B5
:1013E00010B50421014800F009FA10BD3C1B012092
:1013F00010B52021014800F001FA10BD541B012056
:101400002DE9FF4704460D4616461F46DDE90C89C7
:101410006FB9B8F5807F0AD1002020806080681EF7
:1014200000B2A080701E00B2E080BDE8FF870020FF
:101430000090019002900390ADF80450ADF80A605E
:10144000ADF80C50ADF80E604B4642463946684642
:1014500018F0C4FF4B464246394601A818F0BEFFBB
:101460004B464246394602A818F0B8FF4B46424662
:10147000394603A818F0B2FFBDF90000BDF9041009
:10148000884202DABDF9000001E0BDF90400BDF9AF
:101490000810BDF90C20914202DABDF9081001E0F4
:1014A000BDF90C1088420BDABDF90000BDF904103B
:1014B000884202DABDF900000DE0BDF904000AE03F
:1014C000BDF90800BDF90C10884202DABDF9080028
:1014D00001E0BDF90C00801E00B22080BDF90000C3
:1014E000BDF90410884202DDBDF9000001E0BDF93C
:1014F0000400BDF90810BDF90C20914202DDBDF9D0
:10150000081001E0BDF90C1088420BDDBDF90000A8
:10151000BDF90410884202DDBDF900000DE0BDF9FF
:1015200004000AE0BDF90800BDF90C10884202DD94
:10153000BDF9080001E0BDF90C00801C00B2A080DC
:10154000BDF90210BDF90600814202DABDF90200C0
:1015500001E0BDF90600BDF90A20BDF90E108A426E
:1015600002DABDF90A1001E0BDF90E1088420BDA6B
:10157000BDF90210BDF90600814202DABDF9020090
:101580000DE0BDF906000AE0BDF90A10BDF90E0034
:10159000814202DABDF90A0001E0BDF90E00801EA9
:1015A00000B26080BDF90210BDF90600814202DD83
:1015B000BDF9020001E0BDF90600BDF90A20BDF940
:1015C0000E108A4202DDBDF90A1001E0BDF90E10CD
:1015D00088420BDDBDF90210BDF90600814202DD33
:1015E000BDF902000DE0BDF906000AE0BDF90A10E0
:1015F000BDF90E00814202DDBDF90A0001E0BDF92E
:101600000E00801C00B2E08000BF0EE72DE9F7431A
:10161000054616460024134C1AF021F8804633463E
:1016200029462046019A12F08DF807465FB900BF9F
:1016300000BF2C21204614F03FF84FF00040A0627C
:101640000020BDE8FE830020A062E06918B9404692
:1016500019F0F8FFE061E06908B90120E061204677
:10166000EFE70000781B012010B514210D4800F0B1
:10167000C5F812F021F8044614B900BF00BF10BD30
:101680000949204612F0F0F80849204612F0EEF819
:101690000749204612F0ECF80649204612F0E2F81D
:1016A00000BFECE7601B0120112F0108E5330108A2
:1016B000C5350108D92E01082DE9FF4104460F4622
:1016C00014B90DF0E3F904460CB9BDE8FF812046DA
:1016D0000DF066FA00B9F8E794F82800C0F380002E
:1016E00010B100BF00BFF0E71FB90020A4F85001FF
:1016F000EBE70020ADF80800ADF80A0020460DF039
:10170000DDF9401E00B2ADF80C0020460DF02DFAB8
:10171000401E00B2ADF80E0002AA39466846FFF737
:10172000D7FA064606B9D0E72068007CC0F340002F
:1017300060B102982063039860630120A4F850010F
:10174000606810B160681AF0B1F8BEE7206880697F
:1017500018B1206869468269904700250BE004F1C2
:10176000300000EBC50100226846FFF7F2FA00B135
:10177000ABE7681C85B2B4F85001A842EFDCB4F8BE
:101780005001202809DAB4F8502104F1300101EBAE
:10179000C20069460CF00FFC0BE00020A4F85001D9
:1017A000B4F8502104F1300101EBC20002A90CF0A1
:1017B00002FCB4F85001401CA4F85001606810B15C
:1017C00060681AF073F800BF7FE7014609B900208E
:1017D00070474868FCE702460B461068001D03444A
:1017E0001868704702460B46106803441868704733
:1017F000014609B9002070478868FCE70022426072
:101800008260CA1C22F003010160704770B5044673
:10181000216801F1080013F09BFC0546A5B10022E8
:10182000294620461BF0B4F82946204662681BF082
:10183000A1F8606820B12A46204661681BF0A8F82C
:101840006560A06800B9A560284670BD70B5044603
:10185000216801F1080013F07BFC0546A5B10022C8
:10186000294620461BF086F829462046A2681BF030
:101870008FF8A06820B12A462046A1681BF07AF8AC
:10188000A560606800B96560284670BD014609B969
:1018900001207047486818B9886808B90120F8E73E
:1018A0000020F6E72DE9F04104460D460CB9BDE8ED
:1018B000F0812046FFF789FFA8420FD12946204634
:1018C000FFF789FF6060606810B90020A0602FE01A
:1018D0000022204661681BF05BF829E02046FFF7F4
:1018E00087FFA8420FD129462046FFF77BFFA06063
:1018F000A06810B9002060601AE000222046A168AC
:101900001BF038F814E029462046FFF76BFF064627
:1019100029462046FFF75FFF07463A4631462046F4
:101920001BF028F83246394620461BF031F800BF3C
:1019300000BFBCE710B504462068806818B1206875
:101940002146826890472068006828B120680068B6
:1019500020602046FFF7EEFF10BD0146886818B1F1
:101960008868B0F9160070470020FCE701468868D7
:1019700018B18868807E800970470020FCE72DE957
:10198000F04104460D4616461DB916B90120BDE8C2
:10199000F081204614F0FAF9A068008A284400B2C9
:1019A000A1680882A068408A304401B2A0684182E0
:1019B000012332462946204617F078F900220B21F0
:1019C000204610F0B7FB0746012F01D03846DEE76E
:1019D000204617F093F80120D9E7F7B582B0044606
:1019E0000E4614B9049805B0F0BD00BF612231461F
:1019F000204616F0A3FA0190019D00BFBDB12868F2
:101A0000A8B100BF62223146204616F097FA019035
:101A10000198C0B207464FB13A462B682846049950
:101A200098470190BDF80400ADF8100000BF04987D
:101A3000D9E700002DE9F04F95B004468B4691465A
:101A40009A461E9D608C20F00400001D6084A4F85E
:101A500020902A895946204616F070FA1490A4F86E
:101A600020A02A895946204616F068FA1390608C07
:101A700020F004006084DDE9131088420CD1DDE918
:101A80001310884208D1BDF85000BDF84C108842B0
:101A900002D115B0BDE8F08FA4F820902A895946EC
:101AA000204616F04BFA1490A4F820A05946204680
:101AB0000AF03AF912902989129A1068149A19F0CA
:101AC0007DF928890B2833D147F6FF711498884295
:101AD00002D0139888422BD1204616F086FC009045
:101AE00000EBD0704710204615F07CF9009000EB19
:101AF000D0704FEA600847F6FF711498884208D109
:101B0000781C08F10101884200DA01E008F10100C7
:101B1000149047F6FF711398884208D1781C08F199
:101B20000101884200DA01E008F10100139000BFD2
:101B30002048FFF76BFE064606B9AAE71498F06046
:101B40001398306134602889B080C6F808B001A8C5
:101B50000BF0B6FC314601A80BF037FD164901A881
:101B60000BF007FD1548039000BF154901A80BF0C5
:101B70000CFDFF22002101A80BF01BFD298801A804
:101B80000BF00DFD698801A80BF0EEFCE8680890E9
:101B900000BF01A8002190F8422061F3000280F804
:101BA000422000BF2869079001A80BF025FD00BF67
:101BB0006FE700006C1B0120D5FA010879FD0108D0
:101BC000A9FC010810B514210148FFF717FE10BD4C
:101BD0006C1B01202DE9FE4F04460F4690464FF046
:101BE000000900254CE1E06800EBC5004068C0F347
:101BF000406000B143E1E16801EBC501496821F0B3
:101C00007F4018F071FB064626EA070008B901205C
:101C100000E00020029026EA080008B9012000E058
:101C200000200190DDE90101814270D0E06850F8A8
:101C300035A04FF0000B6A461021504618F0B4FD55
:101C400010B14FF0010B98E06A461121504618F090
:101C5000ABFD10B14FF0010B8FE06A4612215046E8
:101C600018F0A2FD10B14FF0010B86E06A46132177
:101C7000504618F099FD10B14FF0010B7DE06A4617
:101C80001521504618F090FD10B14FF0010B74E093
:101C90006A461421504618F087FD10B14FF0010B31
:101CA0006BE06A460A21504618F07EFD10B14FF0F5
:101CB000010B62E06A466A21504618F075FD10B1CA
:101CC0004FF0010B59E06A466B21504618F06CFD4D
:101CD00010B14FF0010B50E06A460121504618F058
:101CE00063FD10B14FF0010B47E06A4604215046F6
:101CF00018F05AFD10B14FF0010B3EE06A46022188
:101D0000504618F051FD18B14FF0010B35E0B5E029
:101D10006A460321504618F047FD10B14FF0010B01
:101D20002BE06A460521504618F03EFD10B14FF0F9
:101D3000010B22E06A460621504618F035FD10B12D
:101D40004FF0010B19E06A463221504618F02CFD85
:101D500010B14FF0010B10E06A466D21504618F0AB
:101D600023FD10B14FF0010B07E06A466C2150468D
:101D700018F01AFD08B14FF0010BBBF1000F02D0B3
:101D80000320BDE8FE8F6A466821504618F00CFD1E
:101D900010B14FF0020970E06A466921504618F010
:101DA00003FD10B14FF0020967E06A466D2150460D
:101DB00018F0FAFC10B14FF002095EE06A466C219F
:101DC000504618F0F1FC10B14FF0020955E06A4698
:101DD0003721504618F0E8FC10B14FF002094CE0F2
:101DE0006A463821504618F0DFFC10B14FF0020966
:101DF00043E06A463521504618F0D6FC10B14FF04A
:101E000002093AE06A464021504618F0CDFC10B174
:101E10004FF0020931E06A464521504618F0C4FCF3
:101E200010B14FF0020928E06A464121504618F0EF
:101E3000BBFC10B14FF002091FE06A464221504638
:101E400018F0B2FC10B14FF0020916E06A464321C7
:101E5000504618F0A9FC10B14FF002090DE06A4697
:101E60004921504618F0A0FC10B14FF0020904E0DF
:101E7000B9F1000F01D14FF0010900BF00BF6D1C87
:101E8000608CC0F3C500A8423FF6ADAE484678E787
:101E900001480068704700000C01002010B502489E
:101EA0001AF0A6FE10BD0000001B01200146C1F380
:101EB0000412072A00DD0722D0B2704701464FF610
:101EC000FF70814201D11F20704709B90020FBE754
:101ED000702902DA0948405CF6E7A1F1700081B28E
:101EE0000748006838B107480068814203D20448B7
:101EF0000068405CE8E70020E6E70000584E020872
:101F0000780100208C01002010B518210348FFF74C
:101F100075FC012019F0DCFB10BD0000181B01202E
:101F20002DE9F04106460C4617461D462946304627
:101F3000084A126890472060206830B129688819E3
:101F40000021044A1268904700E000203860BDE894
:101F5000F0810000B40100202DE9F04F87B0044665
:101F60000F4692469846DDE910560DB100202880B4
:101F70001CB9002007B0BDE8F08F207808B9002018
:101F8000F8E70FB90020F5E74FF0000906F002006E
:101F900010B906F0040098B1002000E0401C215C5C
:101FA0000A2905D0215C0D2902D0215C0029F5D138
:101FB000215C01B1401C15B14FF0FF312980D9E7F8
:101FC00006F0020008B141F6FF7800200690059067
:101FD00038E000200490059808B9012000E00020B6
:101FE00006A904AACDE90062CDE90210059960189E
:101FF00043465246394619F0CDFD83460498A8EB76
:1020000000000FFA80F8049848440FFA80F9BBF1F9
:10201000000F00D11CE005985844059020780A284C
:1020200002D020780D2800D112E00598205C0A2803
:1020300003D00598205C0D2803D10598401C05901D
:1020400006E000BF0598205C10B1B8F1000FC0DCBD
:1020500000BF059870B905A92046094A1268904743
:10206000834635B100225946384610F0C7F90FFAB9
:1020700080F900BF0DB1A5F8009005987AE700003F
:10208000B4010020024600200FA31B788B4211D11F
:1020900013781BB90123137001200BE01378012B77
:1020A00002D10023137005E01378022B02D1002324
:1020B000137001201378012B04D1202901D10223B0
:1020C00013700120704700002300000073B582B038
:1020D000064603980190324600210846019B1AF0FB
:1020E00079F80446002001900025601C13F030F8B8
:1020F000054615B9002004B070BD002028553246B1
:10210000611C2846039B1AF065F82846F3E72DE981
:10211000F04781460E4614461F46DDF820A035469E
:102120001BE0600800FB075529464846D047B0F140
:10213000000809DD04F0010080F00100C0EB540448
:10214000E8190546064608E0B8F1000F02DA64080F
:10215000354602E02846BDE8F087002CE1D100209A
:10216000F9E72DE9FF4F85B08346DDE9158ADDE902
:102170001349DDE91775129E05F00200F8B94FB159
:1021800005F0010030B1B9F1000F02D105F00C00EB
:1021900000B17F1E03E030222046641C32545445B7
:1021A00001D2202CF7D303E030222046641C3254A5
:1021B00005F0010018B1BC4201D2202CF4D305F087
:1021C0001000B0B305F4806050B94CB1544501D053
:1021D000BC4205D1641E1CB1B8F1100F00D1641EC1
:1021E000B8F1100F09D105F0200030B9202C04D22D
:1021F00078222046641C325415E0B8F1100F09D142
:1022000005F0200030B1202C04D258222046641C56
:10221000325408E0B8F1020F05D1202C03D262221B
:102220002046641C3254202C03D230222046641CE9
:102230003254202C16D2B9F1000F04D02D222046A2
:10224000641C32540EE005F0040020B12B2220461D
:10225000641C325406E005F0080018B12022204624
:10226000641C3254CDE90275CDE90064584606A9D4
:102270000EC900F0A2F809B0BDE8F08F2DE9FF4FBC
:102280008FB08046DDE91FABDDE91D96219D1C9CCA
:1022900000270CB925F0100505F4806000B1E4B109
:1022A00000BFB4FBF6F106FB1141C8B20A2802DAFE
:1022B00000F1300107E005F0200109B1412100E003
:1022C000612101440A39CBB239467F1C07AA535415
:1022D000B4FBF6F40CB1202FE3D307A8CDE904AB8F
:1022E0008DE8810203960695404610A90EC9FFF7B6
:1022F00038FF13B0BDE8F08F2DE9FF4F8FB0DDE957
:10230000217BDDF89080209EDDE91C454FF000091F
:10231000002184EA01006940084301D128F0100837
:1023200008F4806028B1002184EA01006940084374
:102330002DD000BF32463B4620462946FEF757F8CF
:1023400002F0FF0ABAF10A0F02DA0AF1300007E0E0
:1023500008F0200008B1412000E0612050440A3814
:10236000C2B2484609F1010907A90A5432463B4660
:1023700020462946FEF73BF804460D46002184EA34
:1023800001006940084302D0B9F1200FD2D323984D
:10239000CDE9036BCDE9050807A91E98CDE9001921
:1023A00002900FA80FC8FFF7DCFE13B0BDE8F08F56
:1023B0009A4200D28854704770472DE9FF5F054666
:1023C0001446DDE90EA6DDE91087A34607F00200FA
:1023D00078B907F0010060B9B14607E02246641CF5
:1023E0002020039B0199A84709F10109C145F5D3B4
:1023F00000BF08E02246641C711E0E461AF8010058
:10240000039B0199A847002EF4D107F0020050B1B8
:1024100005E02246641C2020039B0199A847A4EBF9
:102420000B004045F5D3204604B0BDE8F09F00BF47
:10243000704700002DE9FF4F8BB0074600250C9830
:1024400000B9FA4FEAE20E98007825280AD02A4609
:102450006D1C0E990878DDE90C13B8470E98401CE6
:102460000E90DBE20E98401C0E90002400BF0E98E8
:1024700000782B2819D004DC20281ED023282CD14A
:1024800023E02D2809D0302827D144F001040E98EC
:10249000401C0E9001200A9022E044F002040E98A5
:1024A000401C0E9001200A901AE044F004040E989B
:1024B000401C0E9001200A9012E044F008040E988F
:1024C000401C0E9001200A900AE044F010040E987F
:1024D000401C0E9001200A9002E000200A9000BFEC
:1024E00000BF0A980028C2D180460E990878FEF7EE
:1024F000CCFB20B10EA8FEF7B3FB804612E00E988D
:1025000000782A280ED1189901C91891002804DAF8
:1025100044F00204C0F1000800E080460E99491C16
:102520000E9100BF4FF000090E9800782E281FD1A1
:1025300044F480640E98401C0E900E990878FEF7C3
:10254000A4FB20B10EA8FEF78BFB814610E00E988D
:1025500000782A280CD1189901C91891002801DDAA
:10256000014600E0002189460E99491C0E9100BFEA
:102570000E9800786C280AD004DC682816D06A28E7
:1025800035D128E0742820D07A2830D129E044F4CD
:1025900080740E98401C0E900E9800786C2804D120
:1025A00044F400740E98401C0E9021E044F0800426
:1025B0000E98401C0E900E980078682804D144F0C4
:1025C00040040E98401C0E9012E044F480740E9863
:1025D000401C0E900CE044F400740E98401C0E90C9
:1025E00006E044F480740E98401C0E9000E000BF9A
:1025F00000BF0E98007869281DD00EDC622821D01B
:1026000006DC25287ED050281AD058287BD115E02A
:10261000632879D06428F9D10CE0732875D004DCE4
:102620006F280ED07028F1D109E0752804D07828E1
:10263000ECD102E000BF00BF00BF00BF00BF00BF81
:1026400000BF00BF0E980078782803D00E9800785D
:10265000582801D1102623E00E980078702803D066
:102660000E98007850280CD1102644F0100444F441
:1026700080740E984078562812D10E98401C0E9007
:102680000EE00E9800786F2801D1082608E00E9819
:102690000078622801D1022602E00A2624F0100404
:1026A0000E980078582803D00E980078502801D151
:1026B00044F020040E980078692805D00E98007820
:1026C000642801D024F00C0404F4806008B124F0E4
:1026D00001040E980078692803D00E9800786428C9
:1026E0007CD104F40070B8B31898C01D20F0070026
:1026F0001890D0E900AB189A083218920020CDE962
:10270000069803E073E17CE1F2E01CE1CDE90460AE
:102710000894BAEB00017BEB000001DA012000E035
:102720000020002102900846B1EB0A0170EB0B007B
:1027300002DA5046594605E000200146B0EB0A0097
:1027400061EB0B01CDE900012A463846DDE90C13A7
:10275000FFF7D2FD0546C7E0FFE704F48070D0B173
:10276000189850F804AB18904FEADA70CDE9039846
:1027700002960594BAF1000F01DD514601E0CAF15D
:102780000001CDE900102A463846DDE90C13FFF7B9
:1027900075FD0546A8E004F0400028B1189810F82F
:1027A000041B1890C8B20DE004F0800028B11898FE
:1027B00030F8041B189008B204E0189800681899C3
:1027C000091D189182464FEADA70CDE90398029606
:1027D0000594BAF1000F02DD514602E00BE0CAF1A8
:1027E0000001CDE900102A463846DDE90C13FFF759
:1027F00045FD054678E00E980078562818D11898BF
:1028000050F804AB1890DAF80400006809900998B1
:102810000090DAF800300D98421B0C9841193846A8
:10282000FFF708FE0544002009905DE0B923000889
:1028300004F40070D0B11898C01D20F00700CDE955
:102840000698089418900020CDE904600290189929
:1028500003C9189A08321892CDE900012A46384671
:10286000DDE90C13FFF748FD05463DE004F48070F8
:1028700098B10022CDE90398029605941898006853
:102880001899091DCDE9000218912A463846DDE95C
:102890000C13FFF7F3FC054626E004F0400028B1D6
:1028A000189810F8041B1890C8B20DE004F08000CE
:1028B00028B1189830F8041B189088B204E01898D2
:1028C00000681899091D189182460020CDE900A0E2
:1028D000CDE90398029605942A463846DDE90C13A3
:1028E000FFF7CCFC054600BF0E98401C0E9093E00D
:1028F000012604F0020050B905E02A466D1C202094
:10290000DDE90C13B8473046761C4045F5D31899DD
:1029100011F8043BD8B22A466D1C1891DDE90C135E
:10292000B84704F0020050B105E02A466D1C202093
:10293000DDE90C13B8473046761C4045F5D30E98B8
:10294000401C0E9068E0189850F804AB1890504660
:10295000B9F1000F01D0494601E04FF0FF310A46BE
:10296000014600E0491C0B781BB1131EA2F10102C5
:10297000F8D10E1A04F4806028B14E4501D23046D9
:1029800000E04846064604F0020050B905E02A4639
:102990006D1C2020DDE90C13B8473046761C4045FD
:1029A000F5D306E01AF8010B2A466D1CDDE90C137D
:1029B000B8479AF8000040B104F480600028F1D0D4
:1029C000B9F10000A9F10109ECD104F0020050B105
:1029D00005E02A466D1C2020DDE90C13B84730467F
:1029E000761C4045F5D30E98401C0E9014E02A4604
:1029F0006D1C2520DDE90C13B8470E98401C0E9085
:102A00000AE02A466D1C0E990878DDE90C13B847D8
:102A10000E98401C0E9000BF00BF00BF0E980078BB
:102A200000287FF410AD0D98854201D2284601E0C0
:102A30000D98401E02460020DDE90C13B8472846D9
:102A40000FB0BDE8F08F2DE9F04104460E46002797
:102A500074B13146204600F02DF80546B5F5004F1B
:102A600005D20C2D01D9284600E00C20074600BFF6
:102A70003846BDE8F081024600BF481E084018B144
:102A800000BF00BF00BFFEE700BF481E1040101A85
:102A9000704710B502464B1E13444C1E23EA040037
:102AA00000BF4B1E0B401BB100BF00BF00BFFEE7C5
:102AB00000BF10BD024600BF481E084018B100BF4D
:102AC00000BF00BFFEE700BF481E10444B1E9843E6
:102AD000704700002DE9F84F81460E46924699F85E
:102AE000090000F00700022801D1304600E05046FE
:102AF0008346564501DD304600E050460746032038
:102B000000EB470020F0030000F110053648006894
:102B100036490968A0EB0108002405EB0800344998
:102B20000968884206D230480468606820F0004096
:102B3000606033E02E480068854221D813E04FF0F2
:102B4000FF300090002269462A480AF059F8002216
:102B5000694629480AF054F823480068234909685F
:102B6000A0EB010800BF08EB050021490968884275
:102B7000E5D81D480468606820F0004060600DE002
:102B8000284612F0E5FA044614B90020BDE8F88F93
:102B9000606820F0004000F1004060603246594615
:102BA000484602F02FF92060606800F04040401C69
:102BB0006060606820F080406060A781A4F80EB07B
:102BC0006068C00F20B1204600F11001A16008E04C
:102BD000054800681030A060034800682844024996
:102BE00008602046D2E70000CC01002074010020DC
:102BF000C8010020DFA3000881CC000810B5012027
:102C0000074908700748FEF7E0FD20B9064800684C
:102C100018F040FE03E00448006818F047FE10BDBD
:102C200050010020481B01205401002010B504462B
:102C300094F84200C0F3400070B9B4F84000002896
:102C40000ADDB4F840004FF6FF71884204D0B4F8B2
:102C50004000401EA4F84000B4F84000D0B9A06B7A
:102C600020B194F84200C0F3400098B121461A48C0
:102C7000FEF718FEFFF7C2FFE06810B12046E168DA
:102C80008847206910B1204621698847204612F004
:102C90003DFB1FE0E06B40422063A06BD0B194F895
:102CA0004210C1F3400111B9616B4942216394F8AC
:102CB00042104908C94394F8422061F3410284F864
:102CC0004220206AA16A2162A062E06AA16BE162EF
:102CD000A06300BF10BD0000481B01202DE9F0419A
:102CE00080464248006818F0ADFC0646404800782F
:102CF00080F001003E4908703E48FEF766FD04463C
:102D00006BE000203C49087094F84200C0F380005A
:102D100037490978884253D0354801783034A07C4F
:102D200061F38200A07420688719A07C303CC0F356
:102D3000C00010BB206B00281FDC002F1DDB94F8A7
:102D4000420000F0010060B9606950B1204661693D
:102D500088470546206A28442062A06A2844A06269
:102D600000BFA06810B12046A168884794F84200CF
:102D700020F00800083084F84200206B30442063C3
:102D8000206B00281BDBD4E90B10884201DDE06AD0
:102D900020632046E16988470546606AA84206D05C
:102DA0006562606818B12946D4E900029047D4E909
:102DB0000B10884202DB2046FFF738FF00BF00BF40
:102DC0000D48007820B10B48FEF7FFFC044604E0F4
:102DD00021460848FEF7FFFC0446002C91D118F06C
:102DE0003EFC02490860BDE8F08100004C01002073
:102DF00051010020481B01205001002070B50446FD
:102E00000D46606818B129466068FFF7F7FF206833
:102E100018B1294620462268904770BD70B5054616
:102E20000C46A1B228460AF0FEFF70BD2DE9F04F16
:102E300093B0044600256AE0374800680AF062FC57
:102E40008246504616F096FD0BF020FE83460BF0AE
:102E500035FE064600EBD670411006201BF02CFC18
:102E60000FFA80F80BF012FE83460BF027FE0746A0
:102E700000EBD770411006201BF01EFC0FFA80F902
:102E800042464946504616F0C2FF4FF400322146F2
:102E9000504612F0CEFC214900201BF00DFC0646E6
:102EA0000BF038FB4FF4003201460090504617F00B
:102EB000CAF8002150460AF0FCFFFA2132201BF02C
:102EC000FBFB129001A80AF0FBFA514601A80AF098
:102ED00080FB134901A80AF050FB40F26712002161
:102EE00001A80AF06EFB01A812990AF05CFB01A888
:102EF00012990AF048FB4FF6FF7101A80AF04AFB4D
:102F000001A80AF079FB504606F048FF6D1C082D19
:102F100092D313B0BDE8F08F10090020F0FFFF003E
:102F20001D2E000810B50A4817F0C1FE0D210848F3
:102F300017F0DFFE0748007808B17F2000E0FF208F
:102F40000146034817F0CBFE0148FFF76FFF10BDA5
:102F5000100200201802002010B50A4817F0A7FE42
:102F60000221084817F0C5FE0748007808B17F2005
:102F700000E0FF200146034817F0B1FE0148FFF7CB
:102F800055FF10BD10020020180200202DE9FF4F50
:102F90008FB01F46DDF888801C980E901D980D900C
:102FA00000200B902398042806D0052809D0062875
:102FB0000CD014281AD114E000200C904FF0020914
:102FC00017E001200C904FF0030912E001200C9053
:102FD0004FF00209FEF75CFF05462868008F0B9052
:102FE00007E001200C904FF0020902E013B0BDE8A9
:102FF000F08F00BF002489E11E9860430E9901EB19
:1030000020201C901F9860430D9901EB20201D90FB
:103010001C9805121D980612002D07DB109885429A
:1030200004DA002E02DB1198864203DB002008F848
:10303000040069E11C98C0B20A901D9800F0FF0AD4
:103040000A98802807DA4FF0FF3B0A98C0F17F000A
:1030500040000A9005E04FF0010B0A9880384000CC
:103060000A90BAF1800F07DA4FF0FF300990CAF1E9
:103070007F004FEA400A05E001200990AAF1800094
:103080004FEA400A0F98089006FB07F000FB09F092
:1030900005FB090108980844089005EB0B0000287F
:1030A0007EDB05EB0B011098401E814278DC09980D
:1030B00030440028F4DB099831181198401E8142F1
:1030C000F4DC0898079008980BFB09000690099813
:1030D00000FB07F1089801FB090005900C980028F7
:1030E0007FD0239B052B06D1079B9878059B997869
:1030F000069B9A783BE0239B142B18D1DDF844C043
:1031000007FB0CFCDDF83CE00EEB4C0306FB073C38
:103110001CF8050006FB073CAC441CF80B20DDF84E
:1031200024C0B4440CFB073C1CF805101FE0239B93
:10313000062B19D1079B1B88BDF82CC063450BD00B
:10314000059B1B88BDF82CC0634505D0069B1B88DA
:10315000BDF82CC0634503D1002308F80430D3E048
:10316000FF20FF21FF2202E0FF20FF21FF228142FA
:1031700007D001FB0AF3CAF5807C00FB0C33C3F3D4
:103180000721824209D00A9B5343DDF828C0CCF5C1
:10319000807C00FB0C33C3F307228B185B1000E02C
:1031A00059E008F8043018F8043003B9ACE0079B84
:1031B00093F800C05B780CEB03239BB20493059B50
:1031C00093F800C05B780CEB03239BB20393069B40
:1031D00093F800C05B780CEB03239BB202930CE0E6
:1031E000FFE70798008804900698008802900598E9
:1031F00000880390FF2008F80400BDF81000BDF817
:103200000C1088420CD1BDF81000BDF8081088429F
:1032100006D1219800EB4400BDF81010018019E0A0
:103220000AF0FF02DDE903010BF050FA03900A985F
:10323000C2B2049902980BF049FA02907F22DDE9AC
:1032400002010BF043FA0190219800EB4400BDF815
:103250000410018057E008990A78497802EB0121AF
:103260008AB2219921F814202399052904D006292E
:1032700005D0142919D10EE00899887817E0219912
:1032800031F81410BDF82C20914201D1002100E04A
:10329000FF2108460BE0119A07FB02F10F9A02EB9F
:1032A000410106FB0711485D01E0FF2000BF00BFA0
:1032B00015B9BBF1000F06DB1099491EA9420BD1CD
:1032C000BBF1000F08DD0A99C1F1FF014143C1F3D1
:1032D000072108F8041015E016B90999002906DB42
:1032E0001199491EB1420AD10999002907DDCAF195
:1032F000FF014143C1F3072108F8041002E0002157
:1033000008F8041000BF00BF601C04B2209884427B
:10331000FFF672AE00BF69E62DE9F84F04468C4611
:1033200090469946109FDDE90A56AA46009600206D
:1033300032E00C9941430AEB21250D994143DDF818
:1033400000B00BEB21262A123312002A05DB62455E
:1033500003DA002B01DB434502DB0021395419E07D
:10336000214603FB09FB0BEB4B0B02EB420EF34434
:10337000594491F800B091F801E00BEB0E2B1FFAC5
:103380008BFEDDF83CB02BF810E091F802B007F8A6
:1033900000B000BF411C08B20E998842C9DBBDE8ED
:1033A000F88F0000F8B50BF071FB04463448216833
:1033B000486234480078A0B1606838B1606800683D
:1033C000314908600121606818F073FA0AF072F858
:1033D00005462E49286808600121284618F069FA38
:1033E00000BF17F0C1F90646304616F0C3FA0022B6
:1033F000FF21304616F047FE304610F009FF244901
:103400000860042211462248006816F0D7FC3046B6
:1034100010F0FEFE1F490860002003460D220090B8
:103420001B4801681B48006812F076FA304612F01B
:10343000B9FF194908600846006816F09BFA304643
:1034400013F0D0FC13490968498B401A001F05B2DC
:10345000304614F0CAFF07462A4639460E4800682F
:1034600016F0D5FC00231A4605210B48006812F01F
:1034700041FA0A4817F09CFA304616F06FFFF8BD83
:103480009DC801081902002020020020240200200B
:103490001409002018090020100900201002002043
:1034A00070B504460D4600BF204600F03BF818B149
:1034B00000BF00BF00BFFEE700BF284600F050F984
:1034C000001D616808446060204600F03AF820461C
:1034D00070BD70B505460C46284600F041F904F170
:1034E0001001884201D3012070BD0020FCE7014695
:1034F000A1F1080070477CB505460C46204600F057
:103500002FF906466A4601A919F07AF9214628469C
:10351000DDE9003209F0BAF87CBD0146087900F017
:103520000100704710B50446204600F019F908B9AB
:10353000012010BD0020FCE70146087900F00200E0
:10354000704770B50446204600F097F805462C6099
:10355000284670BD7CB506460C46002001900090C0
:1035600000256CB16A4601A9204619F066F9019858
:10357000092805DA6A4601A930461BF0F4FC054625
:1035800085B100BF284600F0EBF8A04203D200BF8F
:1035900000BF00BFFEE700BF29463046DDE900322C
:1035A0001AF0B2FF28467CBD70B504462046FFF7EE
:1035B000C8FF0546284600F0BEF8204600F0B6F8E1
:1035C00070BD70B50446204600F057F80546284601
:1035D00000F0B6F8204600F0BEF870BD70B50646A3
:1035E0000D46284600F049F8044600BF1CB900BF4C
:1035F00000BF00BFFEE700BF2046FFF78EFF90B17F
:1036000000BF2846FFF78EFF18B100BF00BF00BF04
:10361000FEE700BF2146304600F076F821462846F6
:10362000FFF73EFF0546284670BD70B506460D46BD
:103630002846FFF781FFF0B1284600F057F804460E
:1036400000BF1CB900BF00BF00BFFEE700BF00BF46
:103650002046FFF762FF18B900BF00BF00BFFEE7BA
:1036600000BF2146304600F04FF829462046FFF7BC
:1036700017FF054600BF284670BD2DE9F0410446FE
:10368000204600F06DF8061F204600F0B8F8074607
:10369000314619F0AAFA054600BF2046FFF742FF5F
:1036A00018B100BF00BF00BFFEE700BF2846BDE85D
:1036B000F0812DE9F04106460C461546002794B1ED
:1036C00000BF1DB900BF00BF00BFFEE700BF2A4614
:1036D0002146304600F097F82046FFF772FF20465B
:1036E00000F08DF807463846BDE8F08110B5044675
:1036F00000BF2046FFF720FF18B900BF00BF00BF82
:10370000FEE700BF206810BD7CB505460C4620468C
:1037100000F026F806466A4601A919F071F821461C
:103720002846DDE900321AF0EFFE7CBD416841F029
:10373000010141607047416841F0020141607047FA
:10374000416821F0020141607047426802F00303C2
:103750000B4343607047416821F0010141607047AD
:103760000146486820F0030070472DE9F0470646FF
:103770000C46304600F043F88046211F19F035FA18
:1037800007463046FFF7ECFF211D451A00BF3846BB
:1037900000F035F88146384600F031F880460421C3
:1037A000FFF777F9814503D000BF00BF00BFFEE7F8
:1037B00000BF00BF3046FFF7D3FF2919091D88421B
:1037C00003D000BF00BF00BFFEE700BF2946384658
:1037D000FFF7BBFF00BF3846FFF7C2FF0C2803D23C
:1037E00000BF00BF00BFFEE700BF21463046FFF725
:1037F000ACFF3846FFF7D8FE3846BDE8F0870146F3
:1038000001F1080070472DE9F04106460C461546C7
:1038100000BF2046FFF781FE18B900BF00BF00BF00
:10382000FEE700BF29462046FFF753FE78B1294640
:103830002046FFF79AFF07462046FFF782FE3846EC
:10384000FFF779FF39463046FFF755FE00BFBDE868
:10385000F0812DE9F04106460C46154600BF204692
:10386000FFF75BFE18B100BF00BF00BFFEE700BF5F
:1038700029462046FFF72DFE88B129462046FFF74E
:1038800074FF07463846FFF75BFF39463046FFF7BF
:10389000A5FE074639463046FFF72DFE00BFBDE8BE
:1038A000F081000010B50A4817F001FA032108481A
:1038B00017F051FA0748007808B17F2000E0FF2098
:1038C0000146034817F033FA014819F0FBFF10BD19
:1038D000100200201802002010B50D4817F0E7F97B
:1038E00047F6FF710A4817F024FB0321084817F038
:1038F00032FA0848007808B17F2000E0FF20014636
:10390000034817F014FA024819F0DCFF10BD00005C
:10391000100200201802002010B50E4817F0C7F959
:1039200008210C4817F005FB03210A4817F013FA89
:103930000948007808B17F2000E0FF2001460548D3
:1039400017F0F5F90421034817F0FBF9014819F0C5
:10395000B9FF10BD100200201802002010B50E485B
:1039600017F0A5F908210C4817F0E3FA03210A48DB
:1039700017F0F1F90948007808B17F2000E0FF2036
:103980000146054817F0D3F90C21034817F0D9F97F
:10399000014819F097FF10BD100200201802002006
:1039A00010B50C4817F083F908210A4817F0C1FA3E
:1039B0000321084817F0CFF90748007808B17F20A5
:1039C00000E0FF200146034817F0B1F9014819F063
:1039D00079FF10BD100200201802002010B50E481B
:1039E00017F065F908210C4817F0A3FA03210A48DB
:1039F00017F0B1F90948007808B17F2000E0FF20F6
:103A00000146054817F093F90321034817F099F987
:103A1000014819F057FF10BD1002002018020020C5
:103A200010B50E4817F043F908210C4817F081FA39
:103A300003210A4817F08FF90948007808B17F2060
:103A400000E0FF200146054817F071F90221034804
:103A500017F077F9014819F035FF10BD100200206A
:103A60001802002010B50E4817F021F908210C4863
:103A700017F05FFA03210A4817F06DF9094800783A
:103A800008B17F2000E0FF200146054817F04FF9FC
:103A90000621034817F055F9014819F013FF10BD2E
:103AA00010020020180200202DE9F04F89B00446D2
:103AB0000D460021204613F07FF830B91C2128461E
:103AC00011F0FAFD09B0BDE8F08F2946204600F05C
:103AD0000BFB2946204600F07DF80021204614F01B
:103AE00079F908900021204614F0ECF907900021A4
:103AF000204614F00FF8012800D100E00020814694
:103B00000021204614F044FB07460021204614F013
:103B1000A1F8064642F2D170874205D1608CC0F30D
:103B2000802008B9012000E000208246204613F0E2
:103B3000E3F8069000BF4FF0000824480288414691
:103B4000204614F0FBF903900398C0B200BF8346EF
:103B5000AA6829692868CDE90209CDE900125A4608
:103B60005146089B069808F0ADF9288342F2D170BF
:103B7000864205D1608CC0F3402008B9012000E0E6
:103B800000200590204613F098F8049000BF4FF0F5
:103B900000080F4802884146204614F0CFF90390F0
:103BA0000398C0B200BF83460023EA686968686969
:103BB000CDE90213CDE900025A46079BDDE9040175
:103BC00008F080F9688300BF7CE700002001002036
:103BD000240100202DE9F34F87B00C46079807F029
:103BE00037FB8046079813F087F80690404601F0AF
:103BF00029FA20612169480011F0F4FA2060216956
:103C0000480011F0EFFAA060002548E05848029003
:103C100038F9150041F69A7188423FD10020019091
:103C200029E00199079812F0C7FF009051490098C8
:103C300014F0EFFB00B11BE0009807F027FB824671
:103C4000BAF1010F00D013E0009807F00FFB834694
:103C5000AB4500D00CE0009814F0C7FB02998842F5
:103C600001DA029802E0009814F0BFFB029000BF56
:103C70000198401C0190079812F0BCFF01998842FE
:103C8000CFD80298002804DB0298A16821F815001B
:103C900003E00021A06820F8151000BF6D1C20690A
:103CA000A842B3D80026B14600251BE038F915001C
:103CB00041F69B71884202DB411A0E4411E041F645
:103CC0009A71884206D1A16831F8151049440FFA5B
:103CD00081F906E0A16821F8150009EB00010FFA4F
:103CE00081F96D1C2069A842E0D80021079814F0E2
:103CF00071F805902169491EDDE9050200FB1120DC
:103D000000B206900698A0EB090007B2002F00DA77
:103D100000274FF0FF30049000200390002513E0AF
:103D200038F9150041F69B7188420CDB421A11B23A
:103D300007FB01F2B2FBF6F212B2A36823F81520DA
:103D40000495039100BF6D1C2069A842E8D804982F
:103D500000280ADB0398301A7843B0FBF6F0381AD3
:103D600001B2A268049822F8101009B0BDE8F08FE3
:103D700001E0FFFF010006002DE9FC5F054600227F
:103D80001146284615F090FF0021284613F012FF37
:103D900081460021284614F0A1F8484407B20021CA
:103DA000284613F0DBFF48440FFA80FA284613F048
:103DB00039FE384450440FFA80FB3B4E284612F03F
:103DC00019FF01904FF000085CE0A868006850F807
:103DD00028403649204614F01CFB00B150E0204634
:103DE00014F004FF002839D10021204613F04BFEC7
:103DF0000090009830B1012807D0022804D0032891
:103E000015D100E000BF00BF00BFB4F91A10B5F92A
:103E10001600081A401CB04201DA304605E0B4F939
:103E20001A10B5F91600081A401C06B214E0002159
:103E3000204614F0D1F970B904F114000AF0F1F839
:103E40003844B04201DA304604E004F114000AF0CC
:103E5000E8F8384406B200BF00BF10E0B4F91A1009
:103E6000B5F91600081A401CB04201DA304605E0E8
:103E7000B4F91A10B5F91600081A401C06B200BFB2
:103E800008F10108019880459FD30748864209D070
:103E900006EB0A0006B25E4502DD3046BDE8FC9F37
:103EA0005846FBE75846F9E701E0FFFF0100040030
:103EB0002DE9FC5F054600221146284615F0D8FE84
:103EC0000021284613F076FE82460021284613F092
:103ED000BDFF50440FFA80F80021284613F086FFFA
:103EE00050440FFA80F9284613F0ACFD4844404492
:103EF00000B20190724C284612F07CFE83460021ED
:103F0000284613F0E3FD012866D100265BE0A8688F
:103F1000006850F826706B49384614F07AFA00B100
:103F200050E0384614F062FE002839D100213846AE
:103F300013F0A9FD0090009830B1032805D00628A1
:103F400004D0082815D102E000BF00BF00BFB5F9BA
:103F50001800B7F91410401A401CA04201DA20469C
:103F600005E0B5F91800B7F91410401A401C04B266
:103F700014E00021384614F023F970B907F1140059
:103F80000AF0A6F84044A04201DA204604E007F116
:103F900014000AF09DF8404404B200BF00BF10E0D6
:103FA000B5F91800B7F91410401A401CA04201DA04
:103FB000204605E0B5F91800B7F91410401A401C66
:103FC00004B200BF761C5E45A1D33D48844269D04F
:103FD00004EB090004B265E000265BE0A868006815
:103FE00050F826703749384614F013FA00B150E003
:103FF000384614F0FBFD80BB0021384613F043FD2A
:104000000090009830B1012805D0042804D007287A
:1040100015D102E000BF00BF00BFB7F91800B5F925
:104020001410401A401CA04201DA204605E0B7F9FE
:104030001800B5F91410401A401C04B215E0002114
:10404000384614F0C9F878B907F114000AF040F8BE
:104050004844A04202DA204605E008E007F11400D7
:104060000AF036F8484404B200BF00BF10E0B7F9C8
:104070001800B5F91410401A401CA04201DA20467D
:1040800005E0B7F91800B5F91410401A401C04B245
:1040900000BF761C5E45A1D30948844202D004EBE0
:1040A000080004B20648844202D10198BDE8FC9F92
:1040B0000198844201DD2046F8E70198F6E7000008
:1040C00001E0FFFF0100040010B50446206811F074
:1040D00005F9606811F002F9A06811F0FFF8E068D6
:1040E00011F0FCF810BD00002DE9F34F87B00C462D
:1040F000079807F049FD8046404600F0A3FF606145
:104100006169480011F06EF860606169480011F063
:1041100069F8E060002547E05948029038F9150039
:1041200041F69A7188423ED14FF0000A29E051468B
:10413000079812F041FD01905249019814F069F975
:1041400000B11CE0019807F0DFFD8346BBF1010FD1
:1041500000D014E0019807F0C7FD00900098A84235
:1041600000D00CE0019812F03DFE0299884201DA7D
:10417000029802E0019812F035FE029000BF0AF1A9
:10418000010A079812F036FD5045D0D80298002851
:1041900004DB0298E16821F8150003E00020E168E3
:1041A00021F8150000BF6D1C6069A842B4D8002634
:1041B000B14600251BE038F9150041F69B71884295
:1041C00002DB411A0E4411E041F69A71884206D191
:1041D000E16831F8151049440FFA81F906E0E16809
:1041E00021F8150009EB00010FFA81F96D1C6069D7
:1041F000A842E0D80021079813F064FE06900798C3
:1042000012F05BFD01466269521E069800FB121017
:1042100000B205900598A0EB090007B2002F00DA64
:1042200000274FF0FF30049000200390002513E09A
:1042300038F9150041F69B7188420CDB421A11B225
:1042400007FB01F2B2FBF6F212B2E36823F8152085
:104250000495039100BF6D1C6069A842E8D80498DA
:1042600000280ADB0398301A7843B0FBF6F0381ABE
:1042700001B2E268049822F8101009B0BDE8F08F8E
:1042800001E0FFFF0100060038B5044600256D225D
:104290002946204613F052FE0090009800B208B163
:1042A000022038BD00256C222946204613F046FE28
:1042B0000090009800B2B0F5807F01D00220F0E7B6
:1042C0000021204613F01AFDFF2801D00120E8E765
:1042D000002567222946204613F030FE0090009802
:1042E000C0B208B10120DCE70020DAE77CB5044663
:1042F0000D46164628882189084400B2ADF8000012
:1043000068886189084400B2ADF80200A888218954
:10431000084400B2ADF80400E8886189084400B29E
:10432000ADF80600324669462046636998477CBD71
:104330002DE9FF4F8FB00F46209DF87800F0010067
:1043400008B1F94800E0F9480E90F87800F0010053
:1043500008B1F74800E0F7480D90F87800F0010048
:1043600008B9F34800E0F3480C9001200B90BEE040
:1043700000210B9100206988B5F804C0A1EB0C0165
:104380000AB200261AE006EB860CE96801EB8C0104
:10439000097C01F0010141B906EB860CE96801EBEB
:1043A0008C018989014408B207E006EB860CE968B4
:1043B00001EB8C010989511A0AB2761C2969B142B4
:1043C000E1D800268EE006EB860CE96801EB8C0153
:1043D000097C01F0010100297DD100BF18B900BF9F
:1043E00000BF00BFFEE700BF92FBF0F80FFA88F3B2
:1043F00006EB8609D5F80C8008EB8908B8F80C8024
:1044000008FB03F80FFA88F106EB8609D5F80C8053
:1044100008EB8908B8F9049006EB860AD5F80C80F9
:1044200008EB8A08B8F90680884501DD884607E070
:1044300006EB860AD5F80C8008EB8A08B8F90680E6
:10444000C14508DD06EB8609D5F80C8008EB890824
:10445000B8F9048013E006EB8609D5F80C8008EB68
:104460008908B8F90680884501DD884607E006EB33
:104470008609D5F80C8008EB8908B8F90680C4468F
:104480008C450BD04FF0010806EB860AD5F80C904E
:1044900009EB8A09C9F81080CDF82C8006EB860953
:1044A000D5F80C8008EB8908A8F808C006EB860947
:1044B000D5F80C8008EB8908B8F80C80A0EB080848
:1044C0000FFA88F006EB8609D5F80C8008EB89080E
:1044D000B8F8088000E004E0A2EB08080FFA88F2C0
:1044E00000BF761C2969B1423FF66DAF00BF0B9843
:1044F00000287FF43DAF00210F9813F0FFFA012848
:1045000000D100E000200A9000200990089008A83F
:1045100009A9CDE9001029890BB2B5F90220387834
:104520001E9918F06DFBF87800F0010048B10A9868
:1045300038B10F9812F0E0FBBDF82410084400B227
:10454000099011990F9812F037FB04468FE17A49D0
:10455000204613F05EFF40B1F878C0F3800111AA45
:104560000F9807F043F9044681E10021204613F03B
:1045700049FB07900798002860D000200390002690
:1045800010E006EB8601E86850F82100A04208D14F
:1045900006EB8600E96801EB8000B0F908000390A3
:1045A00003E0761C2869B042EBD800BFF87800F031
:1045B000010050B1608C20F4806000F58060608460
:1045C000608C20F40070608409E0608C20F400703E
:1045D00000F500706084608C20F48060608404F1D9
:1045E00014000D9988470399884226D0204614F07C
:1045F00085FA00BFA08AADF80400E08AADF8060095
:10460000208BADF80800608BADF80A0000BF04F104
:1046100014000E9A0399904701AA292120460DF013
:1046200089FD204612F02EFC2246222100900DF03A
:1046300081FD204614F062FA00BF07E0608C20F490
:1046400080606084608C20F400706084002006909C
:104650007878012812D0022819D104F114000C999D
:104660008847B5F90010491C21F00101081A039090
:1046700000EBD070401000B2069009E004F1140085
:104680000C9988472988081A00B2069000E000BFFC
:1046900000BFF87800F0010050B10A9840B104F171
:1046A00014000D998847BDF82410081A00B209902B
:1046B000002003906A222046039913F03FFC0290E9
:1046C00002980FFA80F800BF002003906B2220466A
:1046D000039913F033FC029002980FFA80F900BF9F
:1046E000204613F082FE0590204612F07BFB0490DA
:1046F00008F4C040B0F5005F01D1012000E00020C7
:1047000030B128F4C040B0F5FA6F01DC012000E0C0
:104710000020E0B128F4C040B0F57A7F0EDD28F427
:10472000C040C0F57A700BE0F3E10008E7E1000853
:1047300017E100084DE000080100060028F4C04021
:1047400005994843642190FBF1F00FFA80F809F4D1
:10475000C040B0F5005F01D1012000E0002030B181
:1047600029F4C040B0F5FA6F01DC012000E0002020
:1047700090B129F4C040B0F57A7F04DD29F4C0403F
:10478000C0F57A7001E029F4C040049948436421DF
:1047900090FBF1F00FFA80F9A18A1C98401A40446E
:1047A0000FFA80FAE18A1D98401A48440FFA80FBFC
:1047B000F87800F0010010B1BDF9240000E006987F
:1047C00050440FFA80FAF87800F0010008B106981A
:1047D00001E0BDF9240058440FFA80FBBAF1000F44
:1047E00002D1BBF1000F1BD0204614F087F9A08A3C
:1047F000504400B2A082208B504401B22183E08A51
:10480000584401B2E182608B584401B26183204672
:1048100014F074F900235A465146204614F046FA23
:10482000F87800F0010008B10A9870B904F114009A
:104830000D9988471F990844BDF820100844BDF819
:104840002410084400B2099008E0BDF820101F9819
:104850000844BDF82410081A00B20990F878C0F393
:10486000800111AA0F9806F0C1FF044600BF24B1D1
:10487000DDE9111081427FF46AAE13B0BDE8F08F1C
:104880002DE9F04F8DB005468946B9F1000F02D1F0
:104890000DB0BDE8F08FA5F81890286810B1286811
:1048A00010F034FD09EB4901062202EB410010F043
:1048B0004FFC2860286868600221286801FB090015
:1048C000801CE8600421286801FB0900001DA86025
:1048D000B9F1010F0CD1B420696808700020E968B3
:1048E00008800120E96848800020A9680880CFE797
:1048F00009F10101C80010F075FC074609F101003B
:1049000007EB80084FF0000A4FEA890002B20BA9BA
:104910000CA800F067F90024BDF930008010079062
:1049200000200390CCE0002616E00BA90CA800F0B4
:1049300061F90CA800F04BF900B90FE0BDF93000A7
:10494000801007A941F82600BDF8300000F00300F0
:1049500003A941F82600761C042EE6DB00BF042ED6
:1049600000D0B3E00A990798884219D1079800B29D
:1049700027F814000FFA8AF028F81400DDE9030183
:104980000844059908440699084469680855686808
:10499000005D0007000E69680855601C04B28DE0D8
:1049A000DDE9070188422CD0079800B227F81400EF
:1049B0000FFA8AF028F814000398696808556868A7
:1049C000005D0007000E69680855601C04B2079876
:1049D000401E00B227F814000FFA8AF028F81400DD
:1049E0000498001D0599084406990844696808550B
:1049F0006868005D0007000E69680855601C04B215
:104A00005CE00999079888422CD0079800B227F8F3
:104A100014000FFA8AF028F81400DDE903010844B5
:104A2000696808556868005D0007000E69680855E8
:104A3000601C04B20798401E00B227F814000FFA59
:104A40008AF028F814000598083006990844696827
:104A500008556868005D0007000E69680855601C0D
:104A600004B22BE0079800B227F814000FFA8AF07E
:104A700028F81400DDE90301084405990844696831
:104A800008556868005D0007000E69680855601CDD
:104A900004B20798401E00B227F814000FFA8AF0FB
:104AA00028F8140006980C30696808556868005D9D
:104AB0000007000E69680855601C04B20AF1010A7B
:104AC0000CA800F084F800287FF42DAF00BF40F25E
:104AD000D32109FB01F00290029880120190601E20
:104AE00037F910100198814205D1601E38F9101075
:104AF0000198814226D0DDE90121A1EB8220B0F5A9
:104B0000007F04DC00FB00F14800001407E0C0F562
:104B1000806000FB00F148000014C0F10F00019913
:104B200009B227F81410019909B228F814106A681C
:104B300010556968095D0907090E6A681155611CFD
:104B40000CB200BFA61E0EE038F8160027F81400BD
:104B500037F8160028F814006868805D6968085501
:104B6000761E601C04B2002EEEDA4FF0000B002619
:104B70000020E968088023E0E96821F81B6037F825
:104B80001600A96821F81B0010E0A86830F81B0087
:104B900037F91610884203DAA86830F81B0001E0E4
:104BA00037F91600A96821F81B00761C38F91600A1
:104BB000584501D1A642E8DB0BF101000FFA80FB5A
:104BC000A642D9DB384610F089FB00BF60E60146FB
:104BD000B1F90200B1F90020904201DC01207047D8
:104BE0000020FCE7028000234380C2F101031BB2D6
:104BF0000B807047B1F90020002A07DC0B8842883F
:104C00005200D21C1A4412B20A800CE04288038877
:104C1000D21A5200521D0B881A4412B20A8002881E
:104C2000521E12B202804288521C12B24280704759
:104C300037B582B01546022D04DCBDF80C100846CD
:104C400005B030BDBDF80C00C00ABDF8081000EB7F
:104C5000D1241F2C01D2204600E01F20BDF80810EF
:104C600060F3CF210291BDF80C00C0F34510BDF8F0
:104C70000810C1F3451144183F2C01D2204600E032
:104C80003F20BDF8081060F34A110291BDF80C00F6
:104C900000F01F00BDF8081001F01F0144181F2C80
:104CA00001D2204600E01F20BDF8081060F3040187
:104CB0000291FF2D03D1BDF808100846C0E72A462F
:104CC000DDE9020109F0E0FC0190BDF8041008469E
:104CD000B6E717B581B01446022C04DCBDF8081005
:104CE000084604B010BDBDF80400C00ABDF80810A5
:104CF000C90A10FB01F04109BDF8040061F3CF209F
:104D00000190BDF8040000F01F00BDF8081001F08C
:104D10001F0110FB01F04109BDF8040061F304001C
:104D20000190BDF80400C0F34510BDF80810C1F3B0
:104D3000451110FB01F08109BDF8040061F34A1030
:104D40000190FF2C03D1BDF804100846C9E72246A4
:104D5000DDE9010109F098FC0090BDF8001008465B
:104D6000BFE737B582B01546022D04DCBDF80C1044
:104D7000084605B030BDBDF80C00C00ABDF80810EB
:104D8000A0EBD124002C01DD204600E00020BDF87E
:104D9000081060F3CF210291BDF80C00C0F345105C
:104DA000BDF80810C1F34511441A002C01DD20465E
:104DB00000E00020BDF8081060F34A110291BDF830
:104DC0000C0000F01F00BDF8081001F01F01441A8C
:104DD000002C01DD204600E00020BDF8081060F343
:104DE00004010291FF2D03D1BDF808100846C0E769
:104DF0002A46DDE9020109F047FC0190BDF80410E4
:104E00000846B6E708B5034600930098484080EA94
:104E1000620008BD10B58060C060002303610021FE
:104E200010E0002400F1140343F82140002206E0C2
:104E300000F1380303EBC11343F82200521C202A6F
:104E4000F6DB491C0929ECDB10BD2DE9FF4F87B0CB
:104E50000546DDE9178ADDF85890149F089CB9F1E2
:104E6000040F02D0B9F1060F58D1284609F01FF9F6
:104E700083465946504610F056FCB5F90200784377
:104E80004100B5F9000001EB40000444284609F058
:104E900065F90590059840000490780000B20390F1
:104EA000CDF80880B5F902600DE02146049A029819
:104EB00010F080FA039804440599029800EB410031
:104EC0000290701C06B2B5F90600B042EDDAB9F1F5
:104ED000060F22D14FF47F414FF0000C01F47C4EBD
:104EE0004CEA5E1CC1F3C40E4CEA0E0CCDF800C0B7
:104EF000BDF800E0F446CDF804C04246BDF80430E9
:104F0000002007E032F81010994202D100210AF87F
:104F10000010401C5845F5D300BF88E0B9F1050FDB
:104F200041D1B5F90200784300EB4000B5F900101B
:104F300001EB410108440444284609F00FF9381AEE
:104F400000B20590059800EB400000B2049028469E
:104F500009F09FF80390284609F000F983460026DF
:104F60001DE00020069010E0A17806980AF80010D5
:104F70002078617800EB012081B2069828F81010A3
:104F8000E41C0698401C00B2069006985845EBDBDE
:104F900008EB4B08DA4404980444701C06B20398EA
:104FA0008642DEDB43E0B9F1140F40D1B5F90200CF
:104FB00078434100B5F9000001EB4000044478005B
:104FC00000B20590284609F064F80490284609F0DC
:104FD000C5F8834600260BE04FEA4B0221464046C7
:104FE00010F0E8F908EB4B0805980444701C06B271
:104FF00004988642F0DB089C099841000A9801FB5E
:105000000044B5F90000B5F9021007FB01000444A3
:10501000002608E05A462146504610F0CBF9DA4403
:105020003C44701C06B204988642F3DB00BF0BB010
:10503000BDE8F08F70B504460D462946601CFBF7AD
:105040004DFA70BD0146002000E0401C31F91020EF
:1050500041F6FF739A42F8D170470000034909688E
:1050600060F30711014A11607047000008380240E0
:105070000349096860F38C21014A11607047000000
:10508000083802400349096860F34F31014A116052
:105090007047000008380240012807D10749096815
:1050A00021F030013031054A116005E003490968FB
:1050B00021F03001014A116070470000A43802401D
:1050C00005282BD2DFE800F0030A11182100154A49
:1050D000126861F30002134B1A6020E0114A126853
:1050E00061F310420F4B1A6019E00E4A126861F327
:1050F00018620C4B1A6012E00A4A7032126861F3AF
:105100000002084B70331A6009E0064A74321268D4
:1051100061F30002034B74331A6000E000BF00BF6C
:1051200070470000003802402DE9FE4F04464FF062
:105130000009CA46CB4600200290019000250026B7
:1051400000F03AF90090009820B1012812D002280E
:105150003FD112E031480068C0F3803038B12F48A9
:105160000068C0F3003010B12D48206001E02D48E8
:10517000206031E02B4820602EE028489C380068F1
:10518000C0F38050029025489C380068C0F388190D
:1051900022489C38006800F00F0A20489C380068BC
:1051A000C0F30240204911F800B0029810B91D4820
:1051B000019001E01B4801900AFB0BFC0198A0FB49
:1051C00009700146624600233846FBF710F920605B
:1051D00002E01448206000BF00BF10489838006803
:1051E000C0F303151148465D2068F04060600B482D
:1051F00098380068C0F382250D48465D6068F0402D
:10520000E060064898380068C0F342350948465DBA
:105210006068F040A060BDE8FE8F0000A03802404A
:10522000006CDC0200127A009E1602087E1602084C
:105230008E1602089616020810B501460020094B8A
:1052400003EB1142D2F8002801F01F040123A34010
:105250001A4001F01F040123A3409A4200D000E04D
:10526000012010BD0030024030B50024002500E0D0
:10527000641C1120FFF7E0FF012802D0B4F5405F65
:10528000F6D31120FFF7D8FF012801D0002500E058
:105290000125284630BD000010B501290FD1104B63
:1052A00003EB1042D2F8002800F01F040123A340B2
:1052B0001A430B4C04EB1043C3F800280EE0084BD4
:1052C00003EB1042D2F8002800F01F040123A34092
:1052D0009A43034C04EB1043C3F8002810BD0000B0
:1052E0000030024030B538B90F4C246824F48054A3
:1052F00004F580540C4D2C600B4C9C3C246860F3EE
:105300009654094D9C3D2C602C46246861F38E1404
:105310002C602C46246862F303042C602C4624681D
:1053200063F312442C6030BDA03802401A48006874
:1053300020F00100401C1849086000BF16480068B2
:10534000C0F340000028F9D013480830006820F06E
:10535000030011490831086000BF0F480830006899
:10536000C0F381000028F8D10B4800680B490840C1
:105370000949086000200849083108600848091FE9
:10538000086000200449A03108604FF41F00024962
:105390000C3108607047000000380240FFFFF2FE49
:1053A000023003000349096860F30101014A1160FA
:1053B000704700000838024002480068C0F38100CE
:1053C00070470000083802402DE9FF4F8DB00746B6
:1053D0000D461646E87A022803DC012011B0BDE82C
:1053E000F08F28892A6901460C901098FCF70EF975
:1053F00004460CB90020F1E7217D01F01F000DF0FB
:1054000018FD10B14FF0060818E0207D00F01F00D5
:105410000E2801D1804611E0207D00F01F001428E5
:1054200001D180460AE0217D01F01F000DF0E4FC6F
:1054300010B14FF0050801E04FF00408B8F10E0F6D
:1054400009D1288818B96888B0F5807F03D04FF05B
:1054500005080020A061206A38B100BF00BF3146B6
:105460003846226A1AF018F8DEE0A069002859D000
:1054700031460BA808F0A8FD288818B96888B0F54F
:10548000807F32D0304608F031FE834600BFF0887E
:105490007188401A401C00B20890281D6988CDE927
:1054A0000010B5F9003059460BA8089AFBF7A8FF81
:1054B000BDF82C003188084400B2ADF82C00BDF8CE
:1054C0002E007188084400B2ADF82E00BDF83000FF
:1054D0003188084400B2ADF83000BDF83200718860
:1054E000084400B2ADF8320000BF0BAA09A8B968A1
:1054F000FBF7EEFB8146B9F1000F04D1204601F025
:1055000096FA01206AE7D7F808A009A8B860CDF894
:105510000080324629463846A36909F0F7FDC7F8EE
:1055200008A081E032460BA8B968FBF7D1FB0A90CE
:105530000A9820B9204601F07AFA01204EE70BA81C
:1055400008F0D4FD09900BA808F0D0FD00EB400056
:1055500003900FF047FE8146D7F808A00BA907A8D3
:1055600008F032FD012107A808F03DFEBDF92C002E
:10557000B6F90010401A0690BDF92E00B6F90210D7
:10558000A0EB010BBDF92E00059042E007AA5146A1
:1055900002A8FBF79DFB0A900A9800B936E0CDF807
:1055A0000090099803B20FFA8BF2069801B22046D8
:1055B0000EF03EF90490049801280ED020460EF01B
:1055C00067F800BF00BF48460FF088FE204601F094
:1055D0002EFAC7F808A0002000E702A8B8604B46E2
:1055E00007AA29463846CDF8008009F08FFDBDF89E
:1055F0001E00401C00B2ADF81E00BDF82200401C89
:1056000000B2ADF822000BF1010B00BF0598401C61
:105610000590BDF9321005988142B7DAC7F808A0A5
:1056200048460FF05BFE00BF204601F000FA012063
:10563000D4E6000010B504201AF0D2F9074800683B
:105640000749B0FBF1F007490860084600684FF4CD
:105650007A7148430449086010BD000044000020EE
:1056600040420F00280000202C000020002131E0E3
:1056700032280ADD194A126832235A434FF0E023D8
:105680005A61A0F1320290B206E0144A1268424315
:105690004FF0E0235A61002000224FF0E0239A618E
:1056A0001A46126942F001021A6100BF4FF0E0226F
:1056B000116901F001021AB101F48032002AF5D01B
:1056C0004FF0E022126922F001024FF0E0231A614C
:1056D00000229A610028CBD1704700002C000020E6
:1056E0002DE9F04180460C461546B4F806C01FFA75
:1056F0008CF3B4F804C01FFA8CF2B4F802C01FFA9D
:105700008CF1B4F800C01FFA8CF0FBF783F8B4F901
:1057100002700CE0B4F9006004E02888FBF7DAF9C5
:10572000AD1C761CB4F90400B042F6DA7F1CB4F963
:105730000600B842EEDA404609F0A1F9BDE8F08172
:105740002DE9F74F9EB00C46E078022802DC21B02C
:10575000BDE8F08F1CA8209908F05AFCB4F920008D
:1057600001282EDD94F82200FD282ADB208840B392
:10577000BDF8700014F8231F4908C1F380010844E4
:1057800000B2ADF87000BDF8720021784908C1F38D
:105790004001084400B2ADF87200BDF874002178F1
:1057A0004908C1F3C001401A00B2ADF87400BDF859
:1057B000760014F82319C1F34001401A00B2ADF885
:1057C00076001E981CA982681AA8FBF781FA00B916
:1057D000BDE7E07B00F0070616B9A088199001E04C
:1057E000E0881990BDF864106089814200D10026DC
:1057F0001CA80AF05DFC18901C2111A8FAF752FFB2
:10580000A0788DF85D00BDF86400ADF84C001898E4
:1058100060B9208850B94EB91CA81190E0788DF875
:105820005C0011A91E980BF0F5FA90E7E078FD28CE
:1058300001DBFF2000E0E07810901CA808F0A3FC3A
:105840000F901CA808F02CFC0E90DDE90E0181429F
:1058500001DA0F9800E00E980D90B4F900100D9841
:10586000B1EB600F02DAB4F9000001E00D984010CE
:1058700007461AA808F087FC81464FF0FF300C90CD
:1058800000200B90002F01DC189870B148460FF0F3
:10589000A9FC0B9000233AB21CA905A80AF080FFCE
:1058A000002105A80AF006F90C90BDF86800ADF8D3
:1058B0000C00BDF86C00ADF810000B98149003A814
:1058C00011901690FF208DF85C00A01DDDE90E21DF
:1058D0000DF064F88046B8F1000F0CD0022E0AD10A
:1058E000BDF96810D8F8080000EB4100BDF9701050
:1058F000A0EB410012901898A0B3BDF96A502CE0BB
:1059000028B2ADF80E0028B2ADF812004A46109940
:105910000B980FF097FEBDF968100FFA89F32AB2C1
:105920000B980AF075FB8DF854009DF8540001287F
:1059300002D102208DF85400012E09D1BDF9721058
:10594000691AD8F8080000EB41000088ADF84C0057
:1059500011A91E980BF05EFA6D1CBDF96E00A842ED
:10596000CEDACCE0FFE700255CE0BDF87200284409
:105970000FFA80FABDF87600401B0FFA80FBBDF9E4
:105980006A00504504DDBDF96E00584500DA48E074
:105990004A4610990B980FF055FEBDF90C100FFAFE
:1059A00089F352460B980AF033FB8DF854009DF8AA
:1059B0005400012802D102208DF85400BDF96A007C
:1059C000504514DCADF80EA0ADF812A0012E0AD19E
:1059D000BDF97210AAEB0101D8F8080000EB4100F4
:1059E0000088ADF84C0011A91E980BF013FABDF910
:1059F0006E00584514DBADF80EB0ADF812B0012EB4
:105A00000AD1BDF97210ABEB0101D8F8080000EB28
:105A100041000088ADF84C0011A91E980BF0FAF96E
:105A200000BF6D1CBD42A0DBBDF87000ADF80400E6
:105A3000BDF87400ADF80800BDF87200384400B23B
:105A4000ADF80600BDF87600C01B00B2ADF80A0044
:105A500001A80AF02DFB00900098B0B9AEB9BDF8CE
:105A60007200384400B2ADF80E00BDF87600C01BDD
:105A700000B2ADF8120010988DF85C000020149070
:105A800011A91E980BF0C6F938E010988DF85C004B
:105A900001208DF85400BDF97600A0EB070ABDF98E
:105AA0007200C51927E0009870B14A4610990B980A
:105AB0000FF0C8FDBDF968100FFA89F32AB20B98F0
:105AC0000AF0A6FA8DF8540028B2ADF80E0028B2FC
:105AD000ADF81200012E09D1BDF97210691AD8F87B
