:020000040800F2
:1000000010820020F10000902D050090290500903D
:100010002B05009025050090F505009000000000DC
:10002000000000000000000000000000310000900F
:1000300027050090000000008D0000903105009021
:100040000B0100900B0100900B0100900B01009040
:100050000B0100900B0100900B0100900B01009030
:100060000B0100900B0100900B0100900B01009020
:100070000B0100900B0100900B0100900B01009010
:100080000B0100900B0100900B0100900B01009000
:100090000B0100900B0100900B0100900B010090F0
:1000A0000B0100900B0100900B0100900B010090E0
:1000B000C90500900B0100900B0100900B0100900E
:1000C0000B0100900B0100900B0100900B010090C0
:1000D0000B0100900B0100900B0100900B010090B0
:1000E0000B0100900B0100900B0100900B010090A0
:1000F0000B0100900B0100900B0100900B01009090
:100100000B0100900B0100900B0100900B0100907F
:100110000B0100900B0100900B0100900B0100906F
:100120000B0100900B0100900B0100900B0100905F
:100130000B0100900B0100900B0100900B0100904F
:100140000B0100900B0100900B0100900B0100903F
:100150000B0100900B010090000000000B010090CB
:100160000B0100900B010090000000000000000057
:100170000B0100900B0100900B01009000000000AB
:10018000000000000B0100900B0100900B0100909B
:100190000B010090000000000000000000000000C3
:1001A0000000000000000000000000000B010090B3
:1001B0000B010090000000000B0100900000000007
:1001C000000000000000000000000000000000002F
:1001D00000000000000000000B0100900B010090E7
:1001E0000B0100900B0100900B0100900B0100909F
:1001F0000B0100900B0100900B0100900B0100908F
:100200000B0100900B0100900B01009000F002F830
:1002100000F036F80AA090E8000C82448344AAF16A
:100220000107DA4501D100F02BF8AFF2090EBAE868
:100230000F0013F0010F18BFFB1A43F0010318471A
:100240004C0000006C000000103A24BF78C878C150
:10025000FAD8520724BF30C830C144BF04680C60CC
:10026000704700000023002400250026103A28BF14
:1002700078C1FBD8520728BF30C148BF0B60704718
:1002800040F2110CC9F2000C60470000AC020008FB
:1002900000000020A0000000480200084C030008F5
:1002A000A00000207081000064020008000000002F
:1002B0000000000000882A110000000000127A00EF
:1002C000000000000000000000000000000000002E
:1002D000000000000000000000000000000000001E
:1002E000000000000000000000000000000000000E
:1002F0001F000000000000000000000000000000DF
:1003000000000000000000000000000000000000ED
:1003100000000000000000000000000000000000DD
:1003200000000000000000000000000000000000CD
:1003300000000000000000000000000000000000BD
:0C03400000882A11AAAAAAAA0000000046
:0200000490006A
:10000000002070471FB502F0C7F91FBD10B510BD25
:1000100000F040FA1146FFF7F5FF00F091FC00F008
:100020005EFA03B4FFF7F2FF03BC00F0E4FA00004D
:100030002C4B19680868B0E8F04F80F30988BFF3CB
:100040006F8F4FF0000080F31188704700000000B0
:1000500008480068006880F308884FF0000080F3CB
:10006000148862B661B6BFF34F8FBFF36F8F00DFA6
:1000700000BF00BF08ED00E0DFF80C00016841F4AC
:1000800070010160704700BF88ED00E0EFF3098068
:10009000BFF36F8F134B1A681EF0100F08BF20EDCF
:1000A000108A20E9F04F106009B44FF0100080F37F
:1000B0001188BFF34F8FBFF36F8F01F021FC4FF01A
:1000C000000080F3118809BC19680868B0E8F04F97
:1000D0001EF0100F08BFB0EC108A80F30988BFF340
:1000E0006F8F704714000020EFF305807047000009
:1000F0000948804709480047FEE7FEE7FEE7FEE7BC
:10010000FEE7FEE7FEE7FEE7FEE7FEE704480549F7
:10011000054A064B704700005D0500900D0200087F
:10012000107C002010820020107E0020107E002015
:10013000704753EA020C00F069802DE9F04B4FF054
:100140000006002B1FBFB3FA83F503FA05F424FA67
:1001500005F65E4012BF1643B2FA82F502FA05F4C4
:10016000C5F120051EBF22FA05FC44EA0C04203527
:1001700056EA044C4FEA144418BF641C4FF00008C0
:100180004FF00009904271EB030C39D3002919BFDD
:10019000B1FA81F701FA07F6B0FA80F700FA07F62C
:1001A000C7F120071EBF20FA07FC46EA0C062037DD
:1001B000B6FBF4FCA7EB0507103F07F01F0BCBF1D4
:1001C00020060CFA0BFB2CFA06F644BFB3460026B9
:1001D000202FA4BF5E464FF0000B5BEA060C08BF61
:1001E0004FF0010B19EB0B09ABFB027C48EB060847
:1001F000C01B06FB02CC0BFB03CC71EB0C01C1E76F
:100200000B46024641464846BDE8F08B13B54FF019
:1002100000004FF00001AFF30080BDE81C407047C4
:100220000FB4044910B503AA029800F0C9F810BC35
:100230005DF814FB040000202DE9F0410E46044651
:10024000002020622046E168884730B3252805D089
:10025000D4E901219047206A401CF2E7E16820467A
:1002600000278847050018D0A5F14100192802D8B9
:1002700020354FF400673246294620462760FFF7B5
:10028000BFFE40B1012804D0F61D26F0070608364F
:10029000D8E7361DD6E72846DAE7206ABDE8F081C0
:1002A000032A40F2308010F0030C00F0158011F8A2
:1002B000013BBCF1020F624498BF11F801CB00F87A
:1002C000013B38BF11F8013BA2F1040298BF00F8CE
:1002D00001CB38BF00F8013B11F0030300F082802E
:1002E000083AC0F0088051F8043B083A51F804CBB2
:1002F000A0E80810F5E7121D5CBF51F8043B40F878
:10030000043BAFF30080D20724BF11F8013B11F882
:1003100001CB48BF11F8012B24BF00F8013B00F8C6
:1003200001CB48BF00F8012B704702F0FF0343EAFE
:10033000032242EA024200F089B84FF0000200B501
:10034000134694469646203922BFA0E80C50A0E8F8
:100350000C50B1F12001BFF4F7AF090728BFA0E8A6
:100360000C5048BF0CC05DF804EB890028BF40F872
:10037000042B08BF704748BF20F8022B11F0804FB4
:1003800018BF00F8012B70477047704770477047DF
:1003900001694A1C02610878704700B58FB0CDE949
:1003A00001310021059105497944CDE90310114639
:1003B0006846FFF741FF0FB000BD0000E5FFFFFFFB
:1003C000074B70B50D467B44FFF7E7FF0446284610
:1003D00000F05CF810B14FF0FF3070BD204670BDEA
:1003E000AB04000010B5203AC0F00B80B1E8185003
:1003F000203AA0E81850B1E81850A0E81850BFF40F
:10040000F5AF5FEA027C24BFB1E81850A0E81850AD
:1004100044BF18C918C0BDE810405FEA827C24BF01
:1004200051F8043B40F8043B08BF7047D20728BF8F
:1004300031F8023B48BF11F8012B28BF20F8023BDE
:1004400048BF00F8012B70474FF000020429C0F0AC
:10045000128010F0030C3FF472AFCCF1040CBCF12D
:10046000020F18BF00F8012BA8BF20F8022BA1EB48
:100470000C01FFF764BF5FEAC17C24BF00F8012BC9
:1004800000F8012B48BF00F8012B7047007B00F0FB
:1004900080007047754600F02BF8AE4605006946AF
:1004A000534620F00700854618B020B5FFF72EFE12
:1004B000BDE820404FF000064FF000074FF0000865
:1004C0004FF0000B21F00701AC46ACE8C009ACE8E6
:1004D000C009ACE8C009ACE8C0098D46704710B54A
:1004E0000446AFF300802046BDE81040FFF799BDF9
:1004F00000487047AC7B00204FF47A7403A0FFF7EC
:100500008FFE204601F04AF9F8E700006170702084
:100510006D61696E207461736B20646F696E670D25
:100520000A000000FEE77047FEE7FEE770470000A4
:1005300010B5102080F31188BFF34F8FBFF36F8F7A
:1005400001F07AFD18B104494FF080500860002096
:1005500080F3118810BD000004ED00E0164801682A
:1005600041F4700101601548016841F0010101602A
:1005700001688907FCD5114908310A6822F0030295
:100580000A600A6812F00C0FFBD102680C4B1A408B
:10059000026000200860094A0A49121D11600749DB
:1005A000A031086005494FF41F000C310860024972
:1005B000500680390860704788ED00E0003802403E
:1005C000FFFFF2FE0230030010B501218C07204628
:1005D00000F02FFF002809D005484168491C416000
:1005E0002046BDE81040012100F020BF10BD0000F2
:1005F00008000020FEE7704702490A6860F307120E
:100600000A6070470838024002490A6860F38C2289
:100610000A6070470838024002490A6860F34F32A6
:100620000A607047083802400649012804D008686B
:1006300020F0300008607047086840F03000086023
:1006400070470000A4380240124A052808D2DFE8AB
:1006500000F003080D121900106861F3000010602B
:100660007047106861F3104010607047106861F3C4
:1006700018601060704707487030026861F300022C
:1006800002607047034A7432106861F30000106022
:10069000704700000038024070B5044600F0E2F8F0
:1006A0002349F8B101282AD002282AD02160214903
:1006B0000868C0F30310204A125C2068D0406060D4
:1006C0000A68C2F382221C4B103B9A5C20FA02F2A9
:1006D000E2600968C1F3423103F10802515CC8408D
:1006E000A06070BD134898300268520405D50068B8
:1006F000C00402D511482060D9E72160D7E7216006
:10070000D5E70C48001F02680268C2F3881302682C
:1007100002F00F020068084EC0F30240163E305C43
:100720004243A1FB03010023FFF703FD2060BEE766
:1007300000127A0008380240B8230090006CDC02F6
:100740000146002001F01F0301229A40044B03EBF5
:100750001141D1F800188A4300D1012070470000F0
:100760000030024030B500244FF4405500E0641CD6
:100770001120FFF7E5FF012801D0AC42F7D311208B
:10078000FFF7DEFF012801D0002030BD012030BD81
:1007900010B500F01F030122084C9A4004EB1040F2
:1007A000012905D0D0F800189143C0F8001810BDF9
:1007B000D0F800181143C0F8001810BD00300240F6
:1007C00030B5002804D10C4C256845F480552560CF
:1007D000094C9C3C256860F396552560206861F3C0
:1007E0008E102060206862F303002060206863F3AD
:1007F0001240206030BD0000A0380240124801685D
:1008000041F00101016001688907FCD50E490831FA
:100810000A6822F003020A600A6812F00C0FFBD18A
:1008200002680A4B1A40026000200860064A084924
:10083000121D11600449A031086003494FF41F00E4
:100840000C3108607047000000380240FFFFF2FEE4
:100850000230030002490A6860F301020A6070472F
:100860000838024002480068C0F381007047000069
:100870000838024070B50446064D8021284600F035
:1008800024FE0028F9D0A1B2284600F015FE20462B
:1008900070BD0000001001404FF6FF7101600021A3
:1008A0008171017141710121C1717047F0B5002260
:1008B0000B889BB229E0DC0724D00668540003258E
:1008C000A540AE4306608E790768A6403E430660A9
:1008D000466801279740BE43466046680F799740B7
:1008E0003E4346608668AE438660CE798768A64000
:1008F0003E438660C668AE43C6604D79A540C46875
:100900002543C5605B08521C92B2002BD3D1F0BDC9
:1009100010B54B07DB0E9A40CC084FF00F0101FADF
:1009200003F106D0436A8B434362416A114341623B
:1009300010BD036A8B430362016A1143016210BD5B
:100940001CB500F0E3FC4FF4E13000F079FD00F05D
:100950005DFE08480121CDE900100A02002306A12E
:10096000084801F025FB00F071FE00F085FF002033
:100970001CBD0000000000204170705F6D61696E59
:1009800000000000F90400902DE9F04104460F46F4
:10099000174EF5683068001D00F0F3FD38B9306877
:1009A00090F82C1001208840316981433161601C2E
:1009B00007D137B13168BDE8F041091D0D4800F09D
:1009C00019BE2C4430684460AC4206D23168706C69
:1009D000091DBDE8F04100F0F5BD3168306C091D1E
:1009E00000F0F0FDB06A844200D2B462BDE8F0814C
:1009F000140000207003002070B5044600F006FECD
:100A00001D4DA868401CA860286810B1686938B1FD
:100A10000CE02C60A868012808D100F07DF905E001
:100A20002868E16AC06A884200D82C60686A401C65
:100A300068626064E06A01212A698140114329618A
:100A40000E4900EB800001EB8000211D00F0D2FD7B
:100A500000F0FCFD686900280CD02868E16AC06AD3
:100A6000884207D206494FF080500860BFF34F8F8D
:100A7000BFF36F8F70BD000014000020A0000020A5
:100A800004ED00E010B500F0C1FD0C4C206880B909
:100A90000B4800F089FD0A48143000F085FD084835
:100AA000E0601430206100220C210F2000F0E4FFF0
:100AB0002060BDE8104000F0C9BD00005C000020CF
:100AC0008403002070B50C4D0C4E11E000F09EFD2B
:100AD000F068C468201D00F054FDA868401EA8609E
:100AE0006868401E686000F0B1FD204600F053F8D1
:100AF00068680028EAD170BD140000205C03002063
:100B000030B40B46026C002A0CD0C1681144C1609D
:100B10008468A14201D30168C160C16830BC184635
:100B2000FFF7BEBB30BC70472DE9F04104461746C5
:100B30000026A56B226C002A10D0C7B1E068FFF731
:100B4000AFFBE168206C091AE1602268914202D291
:100B5000A168081AE060022F16D017E02068A8B933
:100B6000A06801F0D1FA06460020A0600EE060689F
:100B7000FFF796FB216C606808446060A1688842BA
:100B800004D32068606001E005B16D1E6D1CA56393
:100B90003046BDE8F08110B50446206B00F06CFDD6
:100BA0002046BDE8104000F067BD00000749CA6854
:100BB0001168002904D00021016019B1002070479C
:100BC0000121F9E7D0680068704700005C00002050
:100BD0004FF4F0410F48420706D0C01D20F0070037
:100BE0000C49411AC1F5F0410B4A106000235360D3
:100BF0000144083921F00701183A11604B600B607D
:100C00000B1A436001604068906050604FF00040F4
:100C100050617047AC03002088000020074E4FF061
:100C20008054074DFFF74EFF30680128FAD92C6039
:100C3000BFF34F8FBFF36F8FF4E70000A0000020D9
:100C400004ED00E070B51D46049C00290BD0226025
:100C5000E06321640121204600F046FF84F85050F3
:100C60000020A06470BD2460F2E72DE9F05F8246A9
:100C7000DDE90A590C9C0E4617469B46B900A52291
:100C8000206BFFF752FB206B7F1E00EB870020F0EC
:100C90000707780707D0102080F31188BFF34F8F24
:100CA000BFF36F8FFEE74FF0000866B100202218F7
:100CB000315C82F83410315C11B1401C1028F6D33D
:100CC00084F8438001E084F83480202D00D31F2570
:100CD000E562E564C4F85080201D00F070FC04F16A
:100CE000180000F06CFC2461C5F12000A061646272
:100CF000C4F85480C4F8588084F85C805A46514641
:100D0000384600F0F1FA2060B9F1000F01D0C9F8BF
:100D10000040BDE8F09F000070B50024114D04EBC9
:100D2000840005EB800000F03FFC641C202CF6D30F
:100D30000D4800F039FC0C48143000F035FC0A482E
:100D4000283000F031FC08483C3000F02DFC06480B
:100D5000503000F029FC0548034901641431416416
:100D600070BD0000A000002020030020140000201F
:100D700030B5134900E011460A688242FBD34B6844
:100D80005C18844203D140681844486008460D68E6
:100D900044682318AB420DD1094B183B1B689A429B
:100DA00006D05268224442600A681268026002E07B
:100DB000036000E00260814200D0086030BD0000A6
:100DC0008800002070B50024416000610C4D914204
:100DD0000AD8D11A8269914201D301240EE0011D83
:100DE000286900F0EFFB09E09A4203D2994201D34F
:100DF000012403E0011DE86800F0E4FB204670BD1B
:100E00005C00002010B5044600F000FCA06B20B18F
:100E1000002400F01BFC204610BD0124F9E710B5AA
:100E2000044600F0F3FBA06BE16B884201D1012482
:100E300000E0002400F00AFC204610BDF1B5009847
:100E4000846C0026002C0BD0A16BE06B81420FD389
:100E5000102080F31188BFF34F8FBFF36F8FFEE731
:100E6000102080F31188BFF34F8FBFF36F8FFEE721
:100E7000A16B81420ED294F945500022694620466A
:100E8000FFF752FE0646681C06D07F2D0FD06D1C62
:100E900084F845503046F8BD606A0028FAD004F165
:100EA000240001F079F90028F4D00126F2E710209F
:100EB00080F31188BFF34F8FBFF36F8FFEE7000001
:100EC000F8B505460E461748C068C068C468201DBE
:100ED00000F057FB94F82800410718D5A0692B466D
:100EE000411932462046FFF76DFFA0B100200346AE
:100EF000014600902A46204601F01AFA58B91020FF
:100F000080F31188BFF34F8FBFF36F8FFEE720F0A0
:100F1000010084F82800216A01B02046BDE8F040B5
:100F2000084700005C00002030B585B0394D67E00F
:100F30000298002864DB049C606910B1201D00F059
:100F400020FB01A800F0AEF8024602980A2857D20A
:100F5000DFE800F00505052D334A05052D3394F82B
:100F6000280040F0010084F828000398A169034696
:100F700001442046FFF726FF68B3216A20468847D0
:100F800094F8280040073BD5002000900398A16901
:100F9000002342181946204601F0CAF9D8B910209A
:100FA00080F31188BFF34F8FBFF36F8FFEE714F804
:100FB000280F20F00100207022E094F8280040F073
:100FC000010084F828000398A06128B18118134615
:100FD0002046FFF7F7FE13E0102080F31188BFF3DF
:100FE0004F8FBFF36F8FFEE794F82800810703D47B
:100FF000204600F041FB03E020F0010084F82800C7
:10100000002202A9286800F0F5FE002890D105B062
:1010100030BD00005C000020F8B506460D4600F02B
:1010200067FC684600F03EF80446009810B101F0F5
:10103000F1F8F8BD45B9A64206D801F0EBF8214613
:101040003046FFF73DFFF8BD0C481DB10169096846
:1010500091B10025311B2A46006800F07BFB01F0AE
:10106000D9F80028EFD106494FF080500860BFF34F
:101070004F8FBFF36F8FF8BD0125EBE75C000020B9
:1010800004ED00E00648016C0968002904D0016CF9
:10109000C9680968816270474FF0FF31816270470B
:1010A0001400002070B5054600F0C0FF0446074E4E
:1010B000B068844204D200F00BF80120286001E0FF
:1010C00000202860B460204670BD00005C00002055
:1010D000F8B51A4E20E0C0680568C468201D00F00D
:1010E00050FA216A2046884794F82800400713D513
:1010F000A0692844A84206D960602461211DF068D7
:1011000000F060FA08E000200346014600902A46FD
:10111000204601F00DF940B1F06801680029DAD1EC
:10112000F0683169F1603061F8BD102080F31188FA
:10113000BFF34F8FBFF36F8FFEE700005C0000200E
:1011400009488068401C07D0102080F31188BFF345
:101150004F8FBFF36F8FFEE7102080F31188BFF32E
:101160004F8FBFF36F8FFEE79000002008B56846F1
:10117000FFF71CFD0099FFF74FFFFFF7D5FEF6E7DD
:101180002DE9F041044600F041FA94F9455004F18C
:10119000240612E0A06C30B12046FFF74FFE50B19C
:1011A00000F02CFB07E0606A48B1304600F0F4FF25
:1011B00008B100F023FB6D1E6DB2002DEADC4FF08C
:1011C000FF3684F8456000F041FA00F01FFA94F908
:1011D000445004F1100709E0206948B1384600F096
:1011E000DBFF08B100F00AFB6D1E6DB2002DF3DCD1
:1011F00084F84460BDE8F04100F028BA2DE9F041E0
:101200000446002600F074FB364F386808B9FFF733
:10121000DFFC7869044256D1CCB104F10805A5423F
:1012200015D9680714D005F00700C0F1080028445C
:10123000A8420AD9054668070AD0102080F3118811
:10124000BFF34F8FBFF36F8FFEE7002500E000254F
:10125000CDB37868854236D82249183108460468EB
:1012600001E0214604466068A84202D220680028B6
:10127000F7D13868844226D00E68083620680860A6
:101280006068411B10290ED96019420707D0102051
:1012900080F31188BFF34F8FBFF36F8FFEE741607C
:1012A0006560FFF765FD61687868401A7860BA6824
:1012B000904200D2B86078690143616000202060EC
:1012C000F868401CF86000F0A5FF700707D01020F8
:1012D00080F31188BFF34F8FBFF36F8FFEE7304667
:1012E000BDE8F0817000002024384FF08073036265
:1012F00021F00101C1610449816142606FF0020186
:1013000040F82019704700004111009010B5FFF718
:1013100075FA01211F48FFF73BFA1F48016921F0C8
:101320000701491C01611D48016821F00301491CA6
:10133000016001210846FFF787F9FFF713FA00283B
:10134000FBD00122022390211046FFF739FA012138
:101350000220FFF779F91920FFF7F2F90128FAD1F5
:101360000020FFF749F90420FFF756F90420FFF7A2
:101370004BF90120FFF758F90220FFF76BFAFFF74E
:1013800071FA0228FBD10020FFF74EF9BDE81040AA
:1013900000F006B81C00400000700040603C0240B5
:1013A00070B5FFF75FFA1C491C4C70B1012819D0C9
:1013B000022819D021601A480068C0F303101949A7
:1013C000085C2168C140216070BD154898300268F2
:1013D000520405D50068C00402D513482060EAE72E
:1013E0002160E8E72160E6E70D48001F0268026817
:1013F000C2F38813026802F00F020068094EC0F3BE
:101400000240B61F305C4243A1FB03010023FEF7FC
:1014100090FE2060CFE7000000127A00100000204C
:1014200008380240CE230090006CDC02C943016101
:1014300070470246002012690A4200D0012070471E
:101440007CB5054601211948FFF7A2F901214FF4A7
:101450004010FFF79DF96846FFF71EFA01208DF84E
:10146000070000208DF8040002228DF806201202E9
:1014700000928DF805000E4C69462046FFF716FADB
:10148000072209212046FFF743FA0A4C00230122D4
:101490002946204600F020F80121204600F06CF893
:1014A0000121204600F00CF87CBD0000040044003F
:1014B0000000024000100140C1F308014160704784
:1014C000C26861F34D32C26070470068084201D0C3
:1014D00001207047002070472DE9FF4104460F4668
:1014E00015461E466846FFF7D7F82148844202D0C9
:1014F0002048844201D1029800E0039800EB80006C
:101500004000B0FBF7F00A21B0FBF1F201FB120240
:10151000052A02D2B0FBF1F002E0B0FBF1F0401C72
:10152000A16860F30F01A1607DB1012D16D0E068C4
:1015300020F08050E060E06840F48050E060206976
:1015400066F30D302061BDE8FF81E06840F0805017
:10155000E060E06820F48050E060F0E7E06820F0B0
:101560008050E060E06820F48050E060E7E7000031
:101570000010014000140140C26861F3C302C26060
:1015800070470169D0E901329A60D0E901235A60BD
:101590004A68824201D182684A600022026108687A
:1015A000401E08600868704700F1080141604FF074
:1015B000FF328260C160016100210160704700213B
:1015C0000161704730B50C68621C02D000F108025E
:1015D00002E0026904E01A4653681D68A542FAD980
:1015E00053684B6099608A60516008610168491CCA
:1015F000016030BD42684A6093688B6093685960AF
:10160000916008610168491C01607047102080F3F7
:101610001188BFF34F8FBFF36F8F0A498868401C52
:10162000886001280CD10848006810F0FF0F07D02F
:10163000102080F31188BFF34F8FBFF36F8FFEE749
:10164000704700009000002004ED00E00949886820
:10165000002806D0401E8860002801D180F3118840
:101660007047102080F31188BFF34F8FBFF36F8F47
:10167000FEE700009000002070B500282AD008384E
:101680000446154D60686969084207D1102080F34F
:101690001188BFF34F8FBFF36F8FFEE722683AB117
:1016A000102080F31188BFF34F8FBFF36F8FFEE7D9
:1016B0008843606000F01CF96068696808446860ED
:1016C0002046FFF755FB2869401C2861BDE87040A3
:1016D00000F0A0BD70BD0000700000204FF0E020C1
:1016E00000210161816105494FF47A724968B1FBBB
:1016F000F2F1491E4161072101617047900000200D
:1017000010B5FEF7F1FC114910280ED300F1E020CE
:1017100090F8F0030A78904207D2102080F31188E5
:10172000BFF34F8FBFF36F8FFEE709480068C968AA
:1017300000F4E060884207D9102080F31188BFF3DD
:101740004F8FBFF36F8FFEE710BD000090000020A9
:101750000CED00E070B504460D461646FFF756FF47
:1017600094F944304FF000005B1C01D184F8440030
:1017700094F94510491C01D184F84500FFF766FF34
:10178000A06B28B93246294604F1240000F056F82F
:101790002046BDE87040FFF7F3BC000010B50246DC
:1017A0000020002A12D00F48406B38B1102080F37F
:1017B0001188BFF34F8FBFF36F8FFEE700F098F8EB
:1017C00000211046FFF7E0F800F024FD002807D1C3
:1017D00005494FF080500860BFF34F8FBFF36F8F04
:1017E00010BD00001400002004ED00E002490A6A68
:1017F0000260C9684160704714000020014901205F
:10180000C86170471400002010B50C4600280AD0AB
:10181000094909681831FFF7D5FE2046BDE8104098
:101820000121FFF7B1B8102080F31188BFF34F8F6B
:10183000BFF36F8FFEE700001400002070B50D4667
:10184000144600280DD00B4909681831FFF7D2FE65
:101850000CB14FF0FF3521462846BDE87040FFF738
:1018600093B8102080F31188BFF34F8FBFF36F8FB1
:10187000FEE70000140000207CB518480025CDE9E3
:1018800000502B46802216A1174800F091FB01283A
:1018900001D100F027FD114C2C3C012802D0401C46
:1018A00013D010E0102080F31188BFF34F8FBFF3E7
:1018B0006F8F4FF0FF30A06201206061E5600B4840
:1018C000056000F05FF8206B7CBD102080F311886C
:1018D000BFF34F8FBFF36F8FFEE700004000002083
:1018E00049444C45000000001D0C00900C000020F5
:1018F0000248416B491C41637047000014000020FE
:1019000010B51D4A506B002802D00120D06110BDD7
:101910000020D06119480068D063D06B916B884279
:1019200005D91068D46B436D611A19444165D06BB9
:1019300090631069B0FA80F0C0F11F00104900EB0D
:10194000800051F8203073B101EB80004168496894
:10195000416000F10803994201D149684160406843
:10196000C068106010BD102080F31188BFF34F8F46
:10197000BFF36F8FFEE70000140000200C00002072
:10198000A00000201CB537480168374A914207D1B2
:10199000102080F31188BFF34F8FBFF36F8FFEE7E6
:1019A00000683149491E884207D1102080F3118810
:1019B000BFF34F8FBFF36F8FFEE72C49087801907C
:1019C000FF200870087800909DF800009DF8002026
:1019D00000F0F000904207D0102080F31188BFF390
:1019E0004F8FBFF36F8FFEE79DF80000204C00F093
:1019F000100020700720E06006E0E068401EE06014
:101A00009DF80000400000909DF800000006F4D40E
:101A1000E068032807D0102080F31188BFF34F8FB0
:101A2000BFF36F8FFEE74FF44070E06001980870DD
:101A30000C482030016841F470010160016841F0F8
:101A400070410160FFF74AFE0020A060FEF714FB22
:101A50000848016841F040410160FEF7F9FA0020B2
:101A60001CBD000000ED00E071C20F4100E400E089
:101A70009000002034EF00E0F8B505460E4617460A
:101A8000002D0ED005FB06F09EB1B0FBF6F1A94289
:101A90000FD0102080F31188BFF34F8FBFF36F8FEB
:101AA000FEE7102080F31188BFF34F8FBFF36F8FD5
:101AB000FEE700F15401814207D8102080F311881D
:101AC000BFF34F8FBFF36F8FFEE70846FFF796FB1C
:101AD00004463CB1224654323B46314628460094E7
:101AE000FFF7B0F82046F8BD70B504460D46002C4F
:101AF00025D0FFF78BFDD4E90F20216802FB0011F0
:101B0000A1600021A16321686160E06B2268216C03
:101B1000401E00FB0121E1604FF0FF3084F84400DB
:101B200084F8450004F110008DB1FFF73DFD04F18C
:101B30002400FFF739FDFFF789FD012070BD10205B
:101B400080F31188BFF34F8FBFF36F8FFEE72169DA
:101B50000029F0D000F020FB0028ECD004494FF021
:101B600080500860BFF34F8FBFF36F8FE3E7000033
:101B700004ED00E02DE9FF4782B004468A461E4688
:101B80000025002C03D0BAF1000F08D011E010207E
:101B900080F31188BFF34F8FBFF36F8FFEE7206C88
:101BA00038B1102080F31188BFF34F8FBFF36F8FD0
:101BB000FEE7022E0AD1E06B012807D0102080F347
:101BC0001188BFF34F8FBFF36F8FFEE700F020FA4D
:101BD00048B9049838B1102080F31188BFF34F8FB3
:101BE000BFF36F8FFEE74FF000094FF08057DFF82B
:101BF0000C81FFF70BFDA06BE16B884205D3022E31
:101C000003D0049890B395B33AE0A56B32465146A1
:101C10002046FEF789FFA16C69B1022E00D1FDB903
:101C20002046FFF70BF9D8B1C8F80070BFF34F8F0B
:101C3000BFF36F8F14E0616A59B104F1240000F022
:101C4000ABFA68B1C8F80070BFF34F8FBFF36F8F66
:101C500006E028B1C8F80070BFF34F8FBFF36F8F55
:101C6000FFF7F4FC012006B0BDE8F08700E003E0D8
:101C7000FFF7ECFC0020F6E76846FFF7B7FD01250B
:101C8000FFF7E4FCFFF734FEFFF7C0FC94F94400D3
:101C9000401C01D184F8449094F94500401C01D1C6
:101CA00084F84590FFF7D2FC04A9684600F040F99B
:101CB00030B12046FFF764FA00F0ACFA0020D2E71A
:101CC0002046FFF7ACF890B104F110000499FFF73B
:101CD0009BFD2046FFF754FA00F09CFA002888D1BB
:101CE000C8F80070BFF34F8FBFF36F8F81E72046B6
:101CF000FFF746FA00F08EFA7BE7000004ED00E003
:101D00002DE9F04704468A4616461F46002C03D0AC
:101D1000BAF1000F08D011E0102080F31188BFF352
:101D20004F8FBFF36F8FFEE7206C38B1102080F328
:101D30001188BFF34F8FBFF36F8FFEE7022F0AD1D9
:101D4000E06B012807D0102080F31188BFF34F8F7C
:101D5000BFF36F8FFEE7FFF7D3FC1020EFF311887E
:101D600080F31188BFF34F8FBFF36F8FA06BE16BD0
:101D7000884206D3022F04D0002088F31188BDE8E2
:101D8000F08794F94550D4F838903A4651462046A9
:101D9000FEF7CAFE681C06D07F2D22D06D1C84F889
:101DA00045500120E9E7A06C012568B1022F02D15E
:101DB000B9F1000FF5D12046FFF740F80028F0D028
:101DC000002EEED03560ECE7606A0028E9D004F11F
:101DD000240000F0E1F90028E3D0002EE1D03560C6
:101DE000DFE7102080F31188BFF34F8FBFF36F8FB1
:101DF000FEE700002DE9F74783B004468A46002637
:101E0000002C03D0BAF1000F08D011E0102080F3AD
:101E10001188BFF34F8FBFF36F8FFEE7206C38B18F
:101E2000102080F31188BFF34F8FBFF36F8FFEE751
:101E300000F0EEF848B9059838B1102080F3118809
:101E4000BFF34F8FBFF36F8FFEE700274FF080582F
:101E5000DFF8D890FFF7DAFBA56BC5B151462046F5
:101E6000FEF74EFE6D1EA563206950B104F110000F
:101E700000F092F928B1C9F80080BFF34F8FBFF38B
:101E80006F8FFFF7E3FB012006B0BDE8F0870598F0
:101E900008B126B107E0FFF7D9FB0020F4E701A85D
:101EA000FFF7A4FC0126FFF7D1FBFFF721FDFFF7A9
:101EB000ADFB94F94400401C01D184F8447094F9BE
:101EC0004500401C01D184F84570FFF7BFFB05A910
:101ED00001A800F02DF858B12046FFF751F900F0A5
:101EE00099F92046FEF78EFF0028B3D00020CBE7FB
:101EF0002046FEF787FF90B104F124000599FFF713
:101F000083FC2046FFF73CF900F084F90028A1D1BA
:101F1000C9F80080BFF34F8FBFF36F8F9AE7204659
:101F2000FFF72EF900F076F994E7000004ED00E0E9
:101F30002DE9F04105460C46002D14D0DCB1FFF729
:101F400065FB1A4EF0686B68C11A2268571C1AD0DC
:101F50002F68D6F820C00026674516D0834214D8D3
:101F6000012526601CE0102080F31188BFF34F8FFD
:101F7000BFF36F8FFEE7102080F31188BFF34F8F00
:101F8000BFF36F8FFEE700250AE08A4206D9501A98
:101F900020602846FFF72AFC002501E02660012585
:101FA000FFF754FB2846BDE8F08100001400002034
:101FB0002DE9FF5F8146DDE90E788A4616469B468D
:101FC000B000FFF71BF9054628000AD06020FFF794
:101FD00015F904460CB1256304E02846FFF74CFBD5
:101FE00000E000248CB10020CDE90240CDE900786A
:101FF0005B46324651464846FEF737FE2046FEF71E
:10200000FBFC012004B0BDE8F09F4FF0FF30F9E782
:1020100005484169002903D0406B18B10020704782
:102020000120704702207047140000200148C0685A
:1020300070470000140000202DE9F0410026304FC9
:10204000786B002805D0B869401CB8613046BDE8FF
:10205000F081FD686D1CFD609DB9386C006838B179
:10206000102080F31188BFF34F8FBFF36F8FFEE70F
:10207000386C796C39647864386A401C3862FFF7D0
:1020800001F8B86ADFF87C8085420DD3386C0068AF
:1020900038B1386CC068C4686068854212D2B862D2
:1020A00002E04FF0FF30B8623868C06A00EB800091
:1020B00058F82000012800D90126F8690028C5D069
:1020C0000126C3E7201DFFF75CFAA06A18B104F1EE
:1020D0001800FFF756FAE06A01213A69814011437E
:1020E000396100EB800008EB8000211DFFF782FAC8
:1020F000E06A3968C96A8842C8D30126C6E7000089
:1021000014000020A000002070B504460020002C20
:102110003DD01F4D29688C4207D0102080F31188D4
:10212000BFF34F8FBFF36F8FFEE7216D69B1491E7B
:102130002165E36CE26A9A4229D0002927D1201D4B
:10214000FFF71FFA012140B10EE0102080F3118843
:10215000BFF34F8FBFF36F8FFEE794F82C2001FA87
:1021600002F02A6982432A61E06CE062C0F120003B
:10217000A061E06A2A69814011432961054900EBA9
:10218000800001EB8000211DFFF734FA012070BDB3
:1021900014000020A00000202DE9F041C068C468B0
:1021A000002C15D004F118000746FFF7EAF9164D88
:1021B0006A6B0126A2B139461448FFF71BFAE06AA0
:1021C0002968C96A88421DD90120EE61BDE8F08105
:1021D000102080F31188BFF34F8FBFF36F8FFEE79E
:1021E000201DFFF7CEF9E06A2A6906FA00F11143D3
:1021F0002961074900EB800001EB8000211DFFF7FA
:10220000F9F9DCE70020E1E7140000204803002092
:10221000A00000202DE9F041002400272D4D686B1F
:10222000002807D0FFF7F2F9686B401E6863686BFF
:1022300040B149E0102080F31188BFF34F8FBFF306
:102240006F8FFEE7A868E0B3DFF88C8001261DE001
:10225000D8F80C00C46804F11800FFF792F9201DAB
:10226000FFF78FF9E06A2A6906FA00F11143296144
:102270001A4900EB800001EB8000211DFFF7BAF93D
:10228000E06A2968C96A884200D3EE61D8F8000084
:102290000028DDD10CB1FEF7F5FEAC6944B1FFF7C3
:1022A000CBFE00B1EE61641E002CF8D10020A861C5
:1022B000E86930B101270A4938070860BFF34F8F3A
:1022C00000E001E0BFF36F8FFFF7C0F93846BDE8CB
:1022D000F08100001400002048030020A00000202E
:1022E00004ED00E01CB50024FEF7CCFB0C480068B0
:1022F00058B10B480A21001DCDE9001000238022AF
:1023000008A10A48FFF754FE04460CB120461CBD44
:10231000102080F31188BFF34F8FBFF36F8FFEE75C
:102320005C000020546D7220537663006D110090A4
:10233000FEB50646089F9C460020002E13D0154D82
:102340002C68002C0ED0009101920296062919DA11
:10235000FFF75EFE02280ED000231A466946286861
:10236000FFF708FCFEBD102080F31188BFF34F8FEC
:10237000BFF36F8FFEE700233A4669462868FFF7F0
:10238000F9FBFEBD0023624669462046FFF7B8FC14
:10239000FEBD00005C0000204FF04070E1EE100A2E
:1023A000704701020408102000000000010203042D
:1023B0000000000001020304000000000000000013
:1023C00001020304060708090102040810200000A6
:1023D00000000000000001020304060708090000D5
:040000050800020DE0
:00000001FF
