:020000040800F2
:1000000098C80120AD02000825090008EB0400088B
:1000100021090008E5040008B909000800000000F3
:10002000000000000000000000000000BF02000807
:10003000E904000800000000C3020008C50200082F
:10004000C7020008C7020008C7020008C70200086C
:10005000C7020008C7020008C7020008C70200085C
:10006000C7020008C7020008C7020008C70200084C
:10007000C7020008C7020008C7020008C70200083C
:10008000C7020008C7020008C7020008C70200082C
:10009000C7020008C7020008C7020008C70200081C
:1000A000C7020008C7020008C7020008C70200080C
:1000B000C7020008C7020008C7020008C7020008FC
:1000C000C7020008C7020008C7020008C7020008EC
:1000D000C7020008C7020008C7020008C7020008DC
:1000E000C7020008C7020008C7020008C7020008CC
:1000F000C7020008C7020008C7020008C7020008BC
:10010000C7020008C7020008C7020008C7020008AB
:10011000C7020008C7020008C7020008C70200089B
:10012000C7020008C7020008C7020008C70200088B
:10013000C7020008C7020008C7020008C70200087B
:10014000C7020008C7020008C7020008C70200086B
:10015000C7020008C702000800000000C70200082C
:10016000C7020008C70200080000000000000000ED
:10017000C7020008C7020008C7020008000000000C
:1001800000000000C7020008C7020008C7020008FC
:10019000C70200080000000000000000000000008E
:1001A000000000000000000000000000C70200087E
:1001B000C702000800000000C7020008000000009D
:1001C000000000000000000000000000000000002F
:1001D0000000000000000000C7020008C70200087D
:1001E000C7020008C7020008C7020008C7020008CB
:1001F000C7020008C7020008C7020008C7020008BB
:10020000C7020008C7020008C702000800F002F891
:1002100000F03CF80AA090E8000C82448344AAF164
:100220000107DA4501D100F031F8AFF2090EBAE862
:100230000F0013F0010F18BFFB1A43F0010318471A
:10024000B0140000D0140000103A24BF78C878C160
:10025000FAD8520724BF30C830C144BF04680C60CC
:10026000704700000023002400250026103A28BF14
:1002700078C1FBD8520728BF30C148BF0B60704718
:100280001FB501F012FA1FBD10B510BD00F0E4F863
:100290001146FFF7F5FF00F0BBFE00F016F903B4BE
:1002A000FFF7F2FF03BC00F089FB0000094880471C
:1002B00009480047FEE7FEE7FEE7FEE7FEE7FEE748
:1002C000FEE7FEE7FEE7FEE704480549054A064B60
:1002D00070470000290900080D02000898C201209B
:1002E00098C8012098C4012098C40120704753EA9F
:1002F000020C00F069802DE9F04B4FF00006002B56
:100300001FBFB3FA83F503FA05F424FA05F65E403D
:1003100012BF1643B2FA82F502FA05F4C5F12005C0
:100320001EBF22FA05FC44EA0C04203556EA044CB0
:100330004FEA144418BF641C4FF000084FF0000946
:10034000904271EB030C39D3002919BFB1FA81F740
:1003500001FA07F6B0FA80F700FA07F6C7F12007AE
:100360001EBF20FA07FC46EA0C062037B6FBF4FC59
:10037000A7EB0507103F07F01F0BCBF120060CFA87
:100380000BFB2CFA06F644BFB3460026202FA4BF71
:100390005E464FF0000B5BEA060C08BF4FF0010B06
:1003A00019EB0B09ABFB027C48EB0608C01B06FBF4
:1003B00002CC0BFB03CC71EB0C01C1E70B460246F0
:1003C00041464846BDE8F08B13B54FF000004FF0B2
:1003D0000001AFF30080BDE81C4070470FB4044932
:1003E00010B503AA029800F009F810BC5DF814FBE0
:1003F000280000207047704770477047074B70B562
:100400000D467B4400F011F80446284600F020F821
:1004100010B14FF0FF3070BD204670BD0F0B0000D3
:1004200001694A1C02610878704700B58FB0CDE9B8
:1004300001310021059105497944CDE903101146A8
:10044000684600F02EF80FB000BD0000E5FFFFFF8A
:10045000007B00F080007047754600F03FF8AE4624
:1004600005006946534620F00700854618B020B5C0
:10047000FFF72AFFBDE820404FF000064FF00007CD
:100480004FF000084FF0000B21F00701AC46ACE83C
:10049000C009ACE8C009ACE8C009ACE8C0098D46A9
:1004A00070472DE9F04106460024D6E90170F56851
:1004B0008046304603E04146B847641C3046A847B2
:1004C0000028F8D12046BDE8F08110B50446AFF30E
:1004D00000802046BDE81040FFF7E1BE00487047AD
:1004E00034C2012000BFFEE7704700BFFEE72DE9E0
:1004F000F04107460C4615461E462A2000F0E2F958
:10050000384600F0CFF9284600F0CCF92B2000F057
:10051000D9F9204600F0C6F9304600F0C3F92C2086
:1005200000F0D0F9BDE8F0812DE9F04385B0064632
:100530000F4614461D46DDF83080A01B401CE91B09
:10054000491C00FB01F901212C4800F0F7FC681E52
:1005500083B2601E82B239463046FFF7C8FF0121E0
:10056000274800F04BFB0121264800F05DFE26489D
:1005700000F08CFC684600F034FC1FFA89F0ADF8FE
:100580000A001020ADF80800CDF8048001208DF895
:100590000F008DF80D001B480C30009001208DF8E5
:1005A0000E0000208DF80C0001208DF811000020B5
:1005B0008DF810006946144800F036FC01211248FD
:1005C000083800F09BFC0B210F48FC3000F09DFC2C
:1005D00010210E4800F0B0FC01210B4800F0FCFB9C
:1005E00000BF022000F00AFC0028FAD010210748C2
:1005F00000F0A4FC05B0BDE8F08300000004024058
:100600001600300000300140086402400000024043
:100610001FB501214FF4401000F0F0FA01213048DD
:1006200000F0ECFA02A800F08BFC00208DF80C0022
:1006300001208DF80F0002208DF80E00202002907E
:1006400002A9284800F086FC2020029002A9264832
:1006500000F080FC01208DF80E001820029002A905
:10066000204800F077FC0920029002A91E4800F003
:1006700071FC052211461B4800F0A9FC0522114619
:10068000194800F0A4FC0121184800F0B7FA6846A8
:1006900000F0BAFD03208DF8000001208DF8010064
:1006A00000208DF802008DF803008DF80400012071
:1006B0008DF805008DF806008DF8070069460C4896
:1006C00000F0C6FD01210A4800F0B5FD01210848EF
:1006D00000F0A5FD01210248153000F08FFA1FBD82
:1006E0000100300000000240000402400C00440001
:1006F0000030014010B5FFF78BFF0821674800F07C
:100700001BFC642000F02EFB0821644800F016FC5E
:10071000642000F027FB0821614800F00FFC6420F2
:1007200000F020FB112000F0CDF8782000F01AFB3B
:10073000362000F0C7F8002000F0BDF83A2000F0A5
:10074000C1F8052000F0B7F8B22000F0BBF80C208B
:1007500000F0B1F80C2000F0AEF8002000F0ABF88B
:10076000332000F0A8F8332000F0A5F8B72000F0FF
:10077000A9F8352000F09FF8BB2000F0A3F819205D
:1007800000F099F8C02000F09DF82C2000F093F8BC
:10079000C22000F097F8012000F08DF8C32000F08F
:1007A00091F8122000F087F8C42000F08BF8202088
:1007B00000F081F8C62000F085F80F2000F07BF8EB
:1007C000D02000F07FF8A42000F075F8A12000F000
:1007D00072F8E02000F076F8D02000F06CF80420E9
:1007E00000F069F80D2000F066F8112000F063F8C1
:1007F000132000F060F82B2000F05DF83F2000F09F
:100800005AF8542000F057F84C2000F054F8182003
:1008100000F051F80D2000F04EF80B2000F04BF8DE
:100820001F2000F048F8232000F045F8E12000F0F8
:1008300049F8D02000F03FF8042000F03CF80C20EC
:1008400000F039F8112000F036F8132000F033F8EA
:100850002C2000F030F83F2000F02DF8442000F06C
:100860002AF8512000F027F82F2000F024F81F204C
:1008700000F021F81F2000F01EF8202000F01BF8E7
:10088000232000F018F8212000F01CF8112000F0BF
:1008900019F8292000F016F810BD000000040240ED
:1008A0000000024010B50446201200F01BF8E0B230
:1008B00000F018F810BD10B50446204600F012F8FC
:1008C00010BD000010B504460121054800F034FBBE
:1008D000204600F007F80121014800F02FFB10BD71
:1008E0000004024010B5044610210B4800F024FB20
:1008F00000210A4800F098FC2146084800F099FCC5
:1009000000BF8021054800F09BFC0128F9D0102190
:10091000014800F013FB10BD000002400030014010
:1009200000BFFEE7704700001F48006840F47000F9
:100930001D4908601D48006820F00100401C1B494B
:10094000086000BF19480068C0F340000028F9D0D3
:1009500016480830006820F0030014490831086088
:1009600000BF124808300068C0F381000028F8D1A9
:100970000E4800680E4908400C49086000200B49E9
:10098000083108600B48091F086000200749A031A2
:1009900008604FF41F0005490C3108604FF00060FB
:1009A000014980390860704788ED00E00038024056
:1009B000FFFFF2FE0230030000BFFEE700BF7047FA
:1009C0000349096860F30711014A1160704700008C
:1009D000083802400349096860F38C21014A11601C
:1009E00070470000083802400349096860F34F313E
:1009F000014A11607047000008380240012807D101
:100A00000749096821F030013031054A116005E0DD
:100A10000349096821F03001014A11607047000064
:100A2000A438024005282BD2DFE800F0030A111891
:100A30002100154A126861F30002134B1A6020E08E
:100A4000114A126861F310420F4B1A6019E00E4A06
:100A5000126861F318620C4B1A6012E00A4A703295
:100A6000126861F30002084B70331A6009E0064A0D
:100A70007432126861F30002034B74331A6000E0B1
:100A800000BF00BF70470000003802402DE9FE4F54
:100A900004464FF00009CA46CB4600200290019060
:100AA0000025002600F03AF90090009820B10128B6
:100AB00012D002283FD112E031480068C0F38030E4
:100AC00038B12F480068C0F3003010B12D482060C5
:100AD00001E02D48206031E02B4820602EE02848BE
:100AE0009C380068C0F38050029025489C3800680C
:100AF000C0F3881922489C38006800F00F0A20488B
:100B00009C380068C0F30240204911F800B00298F8
:100B100010B91D48019001E01B4801900AFB0BFC35
:100B20000198A0FB09700146624600233846FFF792
:100B3000DEFB206002E01448206000BF00BF1048C8
:100B400098380068C0F303151148465D2068F040EE
:100B500060600B4898380068C0F382250D48465DF8
:100B60006068F040E060064898380068C0F342359D
:100B70000948465D6068F040A060BDE8FE8F000057
:100B8000A0380240006CDC0200127A00D416000883
:100B9000B4160008C4160008CC16000810B50146AB
:100BA0000020094B03EB1142D2F8002801F01F048A
:100BB0000123A3401A4001F01F040123A3409A42DD
:100BC00000D000E0012010BD0030024030B500240C
:100BD000002500E0641C1120FFF7E0FF012802D08F
:100BE000B4F5405FF6D31120FFF7D8FF012801D0FC
:100BF000002500E00125284630BD000010B5012980
:100C00000FD1104B03EB1042D2F8002800F01F0464
:100C10000123A3401A430B4C04EB1043C3F80028F4
:100C20000EE0084B03EB1042D2F8002800F01F043E
:100C30000123A3409A43034C04EB1043C3F800285C
:100C400010BD00000030024030B538B90F4C2468A8
:100C500024F4805404F580540C4D2C600B4C9C3CC7
:100C6000246860F39654094D9C3D2C602C46246802
:100C700061F38E142C602C46246862F303042C600C
:100C80002C46246863F312442C6030BDA038024027
:100C90001A48006820F00100401C1849086000BF95
:100CA00016480068C0F340000028F9D01348083007
:100CB000006820F0030011490831086000BF0F48A8
:100CC00008300068C0F381000028F8D10B480068A4
:100CD0000B490840094908600020084908310860AC
:100CE0000848091F086000200449A03108604FF43B
:100CF0001F0002490C3108607047000000380240B4
:100D0000FFFFF2FE023003000349096860F30101AE
:100D1000014A11607047000008380240024800682C
:100D2000C0F38100704700000838024010B504206D
:100D300000F000FC074800680749B0FBF1F00749E4
:100D40000860084600684FF47A7148430449086017
:100D500010BD00003000002040420F0020000020A5
:100D600024000020002131E032280ADD194A1268EF
:100D700032235A434FF0E0235A61A0F1320290B27D
:100D800006E0144A126842434FF0E0235A61002003
:100D900000224FF0E0239A611A46126942F00102E4
:100DA0001A6100BF4FF0E022116901F001021AB18F
:100DB00001F48032002AF5D04FF0E022126922F0CF
:100DC00001024FF0E0231A6100229A610028CBD182
:100DD0007047000024000020026861F300020260F6
:100DE00070470021016041600181418101734173BD
:100DF0008173C17301744174704700000146002281
:100E0000B1F1805F02D90648026801E00548026836
:100E100002EA010008B1012070470020FCE7000051
:100E2000006602400064024002684BF6EF731A400D
:100E3000026002680B891A4302604B7C026863F30C
:100E40000D320260CB7B026863F38B2202608B7BE6
:100E5000026863F3092202604B7B026863F3C712E6
:100E600002600B7B026863F3861202600B7C0268EF
:100E700063F3451202604B89426863F30F024260DC
:100E80000A6882604A68C2607047000000210268F8
:100E900022F0010202600022026042608260C260B1
:100EA000014640F2FF620A40B2F5C16F0DD2CAB2EC
:100EB000083A1423B2FBF3F293000F229A400D4B31
:100EC0001B681A430B4B1A6012E040F2FF620A40A3
:100ED000B2F5D16F0CD2CAB2083A1423B2FBF3F2C6
:100EE00093000F229A40044B1B681A43024B1A606E
:100EF000704700000464024004660240D0F80021FC
:100F000061F30002C0F800217047026861F3060235
:100F10000260704770B504460D4600BF8021054849
:100F200000F05FFB0028F9D0A1B2024800F050FBAE
:100F3000204670BD0010014081627047816170479A
:100F40004FF6FF7101600021817101714171012132
:100F5000C171704770B50A4600211488A3B233E00E
:100F600003F001046CB304684E000325B540AC43A4
:100F7000046094794D00AC4005682C4304604468DB
:100F800001258D40AC434460446815798D402C4365
:100F9000446084684E000325B540AC438460D47936
:100FA0004D00AC4085682C438460C4684E00032526
:100FB000B540AC43C46054794D00AC40C5682C4387
:100FC000C4605B104C1CA1B2002BC9DC70BDF0B535
:100FD000002300244D07ED0E02FA05F3CD105DB19C
:100FE000456A4E07F70E0F26BE40B5434562456A77
:100FF00045EA030444620AE0056A4E07F70E0F262D
:10100000BE40B5430562056A45EA03040462F0BDCB
:1010100008B500F0C9F9032000F0E2F80022012130
:10102000382000F079F8FFF781FE4FF4E13000F04E
:1010300095FAFFF75FFB67E034A0FFF7CFF90020D8
:1010400005E04FF47841334A22F81010401CB0F507
:10105000614FF6DB2F48F0231A4600210090084626
:10106000FFF762FA4FF47A70FFF77CFE27A0FFF7D4
:10107000B5F9002005E047F67C51264A22F8101009
:10108000401CB0F5614FF6DB2248F0231A460021E0
:1010900000900846FFF748FA4FF47A70FFF762FEB7
:1010A0001AA0FFF79BF9002005E042F61231194A19
:1010B00022F81010401CB0F5614FF6DB1548F02304
:1010C0001A46002100900846FFF72EFA4FF47A7076
:1010D000FFF748FE0DA0FFF781F9002005E04FF66D
:1010E000FF710C4A22F81010401CB0F5614FF6DB7E
:1010F0000848F0231A46002100900846FFF714FA2A
:101100004FF47A70FFF72EFE96E70000646F696E69
:10111000670D0A00340000202DE9F0470B46144605
:101120004FF0000C00BF2C4A1268C2F302211D468A
:1011300026460A46C2F10709B9F1040F02D94FF059
:10114000040901E0C2F10709C84602F10409B9F136
:10115000070F02D24FF0000901E0A2F103094F4648
:101160004FF0010909FA08F9A9F1010909EA05098D
:1011700009FA07F94FF0010A0AFA07FAAAF1010A77
:101180000AEA060A49EA0A09CC46014662460029EB
:1011900004DB15072E0E114D6E5407E015072F0EB8
:1011A0000D4D0C3501F00F06361FAF5500BF01463F
:1011B00000290DDB00BF00BF01F01F050122AA407E
:1011C0004D09AD0005F1E025C5F8002100BF00BFC5
:1011D00000BFBDE8F08700000CED00E000E400E097
:1011E00000BF00F00702064B19684FF6FF031940D5
:1011F000044B0B4343EA0221014B196000BF7047C7
:101200000CED00E00000FA050021017041708170D2
:10121000C1700171417181710121C1717047026812
:1012200061F3861202607047026861F3CB220260AC
:101230007047C1607047426861F341024260704785
:101240000246002093680B4003B900E0012070477C
:10125000C26922F40062C2610A7862B9026822F4AB
:1012600000420260026822F480420260026822F4B6
:101270008062026036E00A78012A0ED1026822F408
:1012800000420260026822F480420260026822F496
:10129000806202F58062026024E00A78022A0ED1A0
:1012A000026822F4004202F500420260026822F461
:1012B00080420260026822F48062026012E00A78D2
:1012C000032A0FD1026822F4004202F500420260B4
:1012D000026822F4804202F580420260026822F431
:1012E00080620260CB79026863F3492202604A7827
:1012F000012A09D1CA79012A06D1026822F4807232
:1013000002F58072026003E0026822F480720260DB
:101310004B78026863F3820202608A78072A0DDC48
:10132000426822F400724260426822F48072426095
:101330008B78026863F3C502026020E08A780A2A8B
:101340000ED1426822F4007202F5007242604268D7
:1013500022F480724260026822F0380202600EE0DD
:10136000426822F400724260426822F4807202F500
:10137000807242608A78036862F3C5030360CB78A9
:10138000026863F3C71202600B79026863F3CB2231
:1013900002604B79026863F3410202608B79026854
:1013A00063F300020260704710B5FFF771FC012182
:1013B0002148FFF723FC2148006920F00700401C6A
:1013C0001E4908611E48006820F00300401C1C49AB
:1013D000086001210846FFF725FB00BFFFF7F6FB79
:1013E0000028FBD00223012290211046FFF72CFC9D
:1013F00001210220FFF716FB00BF1920FFF7CEFBEB
:101400000128FAD10020FFF7DBFA0420FFF7ECFAFD
:101410000420FFF7DFFA0120FFF7F0FA0220FFF7C0
:1014200073FC00BFFFF77AFC0228FBD10020FFF716
:10143000E5FA00F007F810BD1C0040000070004005
:10144000603C02402DE9FC5F002400250026A146F7
:10145000A246A34600200190FFF760FC0090009890
:1014600020B1012814D0022841D115E02B48006892
:10147000C0F3803040B129480068C0F3003018B193
:1014800027482849086002E027482649086032E0DA
:101490002548244908602EE020489C380068C0F3A5
:1014A00080591E489C380068C0F388141B489C383B
:1014B000006800F00F0519489C380068C0F302402E
:1014C0001A490E5CB9F1000F02D1DFF85CA001E00F
:1014D000DFF854A005FB06FCAAFB04700146624637
:1014E00000233846FEF703FF0E49086003E00E486C
:1014F0000C49086000BF00BF084898380068C0F376
:10150000031B0B4810F80B00019006480068019976
:10151000C84004490860BDE8FC9F0000A0380240B4
:10152000006CDC023000002000127A00EA1600088D
:10153000DA160008042808D14FF0E021096941F0CB
:1015400004014FF0E022116107E04FF0E02109694A
:1015500021F004014FF0E022116170471CB50446F0
:1015600001211848FFF74AFB01214FF44010FFF713
:1015700045FB6846FFF7E4FC01208DF807000020DA
:101580008DF8040002208DF8060000020090002073
:101590008DF8050069460C48FFF7DCFC072209219D
:1015A0000948FFF714FD002301222146074800F0F7
:1015B00021F80121054800F073F80121034800F0EB
:1015C0000BF81CBD04004400000002400010014064
:1015D000C1F3080242607047C26861F34D32C260D5
:1015E000704702461068084008B10120704700208B
:1015F000FCE700002DE9FF47044688461646994659
:101600006846FFF743FA2448844202D023488442C4
:1016100001D1029F00E0039F07EB87004000B0FB71
:10162000F8F50A20B5FBF0F100FB1150052803D2B4
:101630000A20B5FBF0F503E00A20B5FBF0F0451CED
:10164000A06865F30F00A06056B9E06820F08050F4
:1016500000F18050E060E06820F48050E06014E029
:10166000012E08D1E06820F08050E060E06820F4AE
:101670008050E06009E0E06820F08050E060E068C1
:1016800020F4805000F58050E060206969F30D304F
:101690002061BDE8FF8700000010014000140140F8
:1016A000C26861F3C302C26070474FF04070E1EE60
:1016B000100A70470000000000000000010203044F
:1016C00006070809000000000102030400000000F2
:1016D00001020304010204081020000000000000C1
:1016E0000000010203040607080901020408102093
:1016F0001017000800000020340000004802000815
:10170000441700083400002064C801006402000887
:10171000000C0240000C0240000C0240002000407F
:1017200000800000030030000300300003003000A0
:1017300000000000000000000000000001000000A8
:0417400000127A0019
:040000050800020DE0
:00000001FF
