:020000040800F2
:1000000050CA0020C10300081B0D0008130D000892
:10001000170D00080D0D0008F10D0008000000008C
:1000200000000000000000000000000001030008C4
:10003000110D0008000000005D0300082D0D0008F0
:10004000DB030008DB030008DB030008DB03000818
:10005000DB030008DB030008DB030008DB03000808
:10006000DB030008DB030008DB030008DB030008F8
:10007000DB030008DB030008DB030008DB030008E8
:10008000DB030008DB030008DB030008DB030008D8
:10009000DB030008DB030008DB030008DB030008C8
:1000A000DB030008DB030008DB030008DB030008B8
:1000B000DB030008DB030008DB030008DB030008A8
:1000C000DB030008DB030008DB030008DB03000898
:1000D000DB030008DB030008DB030008DB03000888
:1000E000DB030008DB030008DB030008DB03000878
:1000F000DB030008DB030008DB030008DB03000868
:10010000DB030008DB030008DB030008DB03000857
:10011000DB030008DB030008DB030008DB03000847
:10012000DB030008DB030008DB030008DB03000837
:10013000DB030008DB030008DB030008DB03000827
:10014000DB030008DB030008DB030008DB03000817
:10015000DB030008DB03000800000000DB030008ED
:10016000DB030008DB0300080000000000000000C3
:10017000DB0300081D0D0008DB0300080000000081
:1001800000000000DB030008DB030008DB030008BD
:10019000DB03000800000000000000000000000079
:1001A000000000000000000000000000DB03000869
:1001B000DB03000800000000DB0300080000000073
:1001C000000000000000000000000000000000002F
:1001D0000000000000000000DB030008DB03000853
:1001E000DB030008DB030008DB030008DB03000877
:1001F000DB030008DB030008DB030008DB03000867
:10020000DB030008DB030008DB03000800F002F852
:1002100000F067F80AA090E8000C82448344AAF139
:100220000107DA4501D100F05CF8AFF2090EBAE837
:100230000F0013F0010F18BFFB1A43F0010318471A
:1002400040800000608000000A444FF0000C10F86D
:10025000013B13F0070408BF10F8014B1D1108BF44
:1002600010F8015B641E05D010F8016B641E01F8E4
:10027000016BF9D113F0080F1EBF10F8014BAD1C34
:100280000C1B09D16D1E58BF01F801CBFAD505E052
:1002900014F8016B01F8016B6D1EF9D59142D6D3AC
:1002A000704700000023002400250026103A28BFD4
:1002B00078C1FBD8520728BF30C148BF0B607047D8
:1002C000642900F07F81782900F0B881732900F05B
:1002D0008583002070471FB507F06EFF1FBD10B566
:1002E00010BD00F095FB1146FFF7F5FF03F00CFA87
:1002F00000F0B3FB03B4FFF7F2FF03BC00F07AFD9C
:100300002C4B19680868B0E8F04F80F30988BFF3F8
:100310006F8F4FF0000080F31188704700000000DD
:1003200008480068006880F308884FF0000080F3F8
:10033000148862B661B6BFF34F8FBFF36F8F00DFD3
:1003400000BF00BF08ED00E0DFF80C00016841F4D9
:1003500070010160704700BF88ED00E0EFF3098095
:10036000BFF36F8F134B1A681EF0100F08BF20EDFC
:10037000108A20E9F04F106009B44FF0100080F3AC
:100380001188BFF34F8FBFF36F8F07F039F84FF02D
:10039000000080F3118809BC19680868B0E8F04FC4
:1003A0001EF0100F08BFB0EC108A80F30988BFF36D
:1003B0006F8F7047BC010020EFF30580704700008D
:1003C0000948804709480047FEE7FEE7FEE7FEE7E9
:1003D000FEE7FEE7FEE7FEE7FEE7FEE70448054925
:1003E000054A064B70470000610D00080D02000829
:1003F00050C4002050CA002050C6002050C6002023
:10040000704753EA020C00F069802DE9F04B4FF081
:100410000006002B1FBFB3FA83F503FA05F424FA94
:1004200005F65E4012BF1643B2FA82F502FA05F4F1
:10043000C5F120051EBF22FA05FC44EA0C04203554
:1004400056EA044C4FEA144418BF641C4FF00008ED
:100450004FF00009904271EB030C39D3002919BF0A
:10046000B1FA81F701FA07F6B0FA80F700FA07F659
:10047000C7F120071EBF20FA07FC46EA0C0620370A
:10048000B6FBF4FCA7EB0507103F07F01F0BCBF101
:1004900020060CFA0BFB2CFA06F644BFB3460026E6
:1004A000202FA4BF5E464FF0000B5BEA060C08BF8E
:1004B0004FF0010B19EB0B09ABFB027C48EB060874
:1004C000C01B06FB02CC0BFB03CC71EB0C01C1E79C
:1004D0000B46024641464846BDE8F08B13B54FF047
:1004E00000004FF00001AFF30080BDE81C407047F2
:1004F0000FB4044910B503AA029800F073FA10BCB7
:100500005DF814FB440000202DE9F0410E4604463E
:10051000002020622046E168884730B3252805D0B6
:10052000D4E901219047206A401CF2E7E1682046A7
:1005300000278847050018D0A5F14100192802D8E6
:1005400020354FF400673246294620462760FFF7E2
:10055000B7FE40B1012804D0F61D26F00706083684
:10056000D8E7361DD6E72846DAE7206ABDE8F081ED
:1005700070B50C460546012A05D02878800600D5BE
:10058000EA69002302E0012305E05B1C934202D2EA
:10059000E05C0028F9D1A869E618C01AA861286AA9
:1005A000184428622846AFF3008004E0D5E9012111
:1005B00014F8010B9047B442F8D32846AFF30080FB
:1005C00070BD00002DE9F041064600241068752931
:1005D000314616A510D0AFF30080002802DA404261
:1005E00013A507E031688A0701D512A502E0490783
:1005F00004D511A5012401E0AFF3008000210A22F7
:1006000006F1240709E0B0FBF2FCB0FBF2F302FBB9
:100610001C00303078541846491C0028F3D123467A
:100620002A463046BDE8F04100F055B90000000010
:100630002D0000002B0000002000000070B50446D3
:100640000D4621461068AFF300802188090502D5C8
:100650000F4A7A4402E00E4A7A440E32002104F135
:10066000240305E000F00F060009965D5E54491C66
:100670000028F7D120780023000704D5702D02D080
:1006800009B1022311322046BDE8704000F023B9C1
:10069000E27B0000401ECAB210F8011F8A4202D05D
:1006A0000029F9D10020704740EA010310B59B07EB
:1006B0000FD1042A0DD310C808C9121F9C42F8D0CC
:1006C00020BA19BA884201D9012010BD4FF0FF307D
:1006D00010BD1AB1D30703D0521C07E0002010BD93
:1006E00010F8013B11F8014B1B1B07D110F8013B1F
:1006F00011F8014B1B1B01D1921EF1D1184610BD00
:1007000010B5431C02E010F8011B71B18107FAD14A
:100710004FF0013202C88C1A8C4314EAC211F9D08E
:10072000C01A0A0603D0C01E10BDC01A10BD0A04AC
:1007300001D0801E10BD0902FCD0401E10BD032A4E
:1007400040F2308010F0030C00F0158011F8013BEE
:10075000BCF1020F624498BF11F801CB00F8013BD5
:1007600038BF11F8013BA2F1040298BF00F801CB99
:1007700038BF00F8013B11F0030300F02580083A70
:10078000C0F0088051F8043B083A51F804CBA0E8C7
:100790000810F5E7121D5CBF51F8043B40F8043B1C
:1007A000AFF30080D20724BF11F8013B11F801CB51
:1007B00048BF11F8012B24BF00F8013B00F801CB22
:1007C00048BF00F8012B704710B5203AC0F00B80ED
:1007D000B1E81850203AA0E81850B1E81850A0E845
:1007E0001850BFF4F5AF5FEA027C24BFB1E818509F
:1007F000A0E8185044BF18C918C0BDE810405FEA0F
:10080000827C24BF51F8043B40F8043B08BF70478A
:10081000D20728BF31F8023B48BF11F8012B28BF8F
:1008200020F8023B48BF00F8012B704702F0FF039D
:1008300043EA032242EA024200F002B84FF000020B
:100840000429C0F0128010F0030C00F01B80CCF1E2
:10085000040CBCF1020F18BF00F8012BA8BF20F850
:10086000022BA1EB0C0100F00DB85FEAC17C24BFA4
:1008700000F8012B00F8012B48BF00F8012B70474E
:100880004FF0000200B5134694469646203922BF29
:10089000A0E80C50A0E80C50B1F12001BFF4F7AF74
:1008A000090728BFA0E80C5048BF0CC05DF804EB56
:1008B000890028BF40F8042B08BF704748BF20F8C4
:1008C000022B11F0804F18BF00F8012B70477047C2
:1008D0007047704770472DE9F0470D46994692469C
:1008E000044600F124080168880604D5E06921F077
:1008F0001001216000E00120A84201DD471B00E05B
:100900000027A1697A1902EB0900081AA061207872
:10091000C00602D42046AFF30080002608E0D4E9E8
:1009200001211AF806009047206A401C761C2062BC
:100930004E45F4DB2078C0060AD52046AFF3008090
:1009400006E0D4E9012130209047206A401C206253
:10095000381EA7F10107F4DC07E0D4E9012118F8FB
:1009600005009047206A401C2062281EA5F1010561
:10097000F3DC2046AFF300802078000602D5022089
:10098000BDE8F0870120FBE701694A1C0261087895
:10099000704700B58FB0CDE90131002105910549BF
:1009A0007944CDE9031011466846FFF7ADFD0FB05D
:1009B00000BD0000E5FFFFFF10B5436913B1AFF3C1
:1009C000008001E0FFF7D4FD012010BD127800F196
:1009D00024010A7000224A700122EDE711684FF0ED
:1009E000FF32E9E7074B70B50D467B44FFF7D1FFB7
:1009F0000446284600F008F810B14FF0FF3070BDF3
:100A0000204670BD0F290000007B00F08000704779
:100A1000754600F02BF8AE4605006946534620F0B7
:100A20000700854618B020B5FFF7D8FCBDE8204088
:100A30004FF000064FF000074FF000084FF0000B9A
:100A400021F00701AC46ACE8C009ACE8C009ACE84D
:100A5000C009ACE8C0098D46704710B50446AFF335
:100A600000802046BDE81040FFF744BC00487047B6
:100A7000F0C300201FB5684601F028FA41A0FFF737
:100A800037FD47A00099FFF733FD4BA00199FFF711
:100A90002FFD4FA00399FFF72BFD53A00299FFF7FD
:100AA00027FD012256A1574802F034F904460D2CC7
:100AB00027D155A0FFF71CFD4FF48053594A002160
:100AC0004FA001F0ADFD0446214657A0FFF710FDF1
:100AD00001224BA1002002F01DF90446214652A03C
:100AE000FFF706FD012246A1464802F013F904462D
:100AF00021464DA0FFF7FCFC3CB94EA0FFF7F8FCE7
:100B000003E014B94BA0FFF7F3FC13224DA15048AA
:100B100002F02AF90446002C27D14EA0FFF7E8FC8A
:100B200052480068FFF7ECFD0546514B2A465149F3
:100B3000474802F01BFA48B94E494FA0FFF7D8FCCE
:100B40004B4801684FA0FFF7D3FC02E055A0FFF728
:100B5000CFFC3F4801F052FD18B956A0FFF7C8FC82
:100B600007E059A0FFF7C4FC03E021465BA0FFF7B4
:100B7000BFFC06E05FA0FFF7BBFC4FF4FA5006F0A5
:100B800069FBF7E753797374656D20436C6F636B92
:100B900020696E666F726D6174696F6E0D0A000078
:100BA000535953434C4B5F4672657175656E63795B
:100BB000203D2025640D0A0048434C4B5F4672657A
:100BC0007175656E63792020203D2025640D0A0033
:100BD00050434C4B315F4672657175656E63792089
:100BE000203D2025640D0A0050434C4B325F467275
:100BF000657175656E637920203D2025640D0A00BE
:100C0000303A00001C120020726573203D204652CD
:100C10005F4E4F5F46494C4553595354454D0D0A5D
:100C2000000000001C020020726573203D20256436
:100C30000D0A00006D6F756E7420737563636573C4
:100C4000730D0A00303A7469616E2E747874000076
:100C5000502200206F70656E2066696C6520737588
:100C60006363657373210D0A00000000100000200B
:100C7000180000207832002072656164203D202534
:100C8000730D0A0072656164207375636365737325
:100C90002C726561645F62797465733D25640D0A29
:100CA0000000000072656164206661696C757265A0
:100CB000210D0A00636C6F73652073756363657340
:100CC00073210D0A00000000636C6F73652066617C
:100CD000696C757265210D0A000000006F70656E09
:100CE0002066696C65206661696C75726521256492
:100CF0000D0A0000617070206D61696E207461736F
:100D00006B20646F696E670D0A00000000BFFEE78C
:100D1000704700BFFEE700BFFEE7704710B502480E
:100D200005F09CFE10BD00009034002010B500BFFF
:100D3000102080F31188BFF34F8FBFF36F8F00BF78
:100D400006F0FEFF18B14FF080500449086000BF64
:100D5000002080F3118800BF10BD000004ED00E00A
:100D60001F48006840F470001D4908601D48006875
:100D700020F00100401C1B49086000BF19480068B2
:100D8000C0F340000028F9D016480830006820F071
:100D9000030014490831086000BF12480830006899
:100DA000C0F381000028F8D10E4800680E490840C1
:100DB0000C49086000200B49083108600B48091FE6
:100DC000086000200749A03108604FF41F00054962
:100DD0000C3108604FF000600149803908607047AD
:100DE00088ED00E000380240FFFFF2FE0230030011
:100DF00000BFFEE700BF704730B90A4A126822F010
:100E00000202084B1A6006E0064A126822F002024B
:100E1000921C044B1A60034A126861F30002014BF2
:100E20001A60704704740140024909680143014A8D
:100E30001160704704740140014908607047000068
:100E40000C740140014908607047000010740140B3
:100E500001490860704700001474014070B50546F0
:100E60002E467068446A41F22400015941F2440060
:100E7000015141F22800015941F2480001514FF45B
:100E8000815000592149884214D10121304605F092
:100E9000DAFC1F280ED141F22D00005D012809DC8B
:100EA00041F22E00005D012804DB41F22E00005DBE
:100EB00010280ADD20220521284600F06BFB0220C5
:100EC0006070284600F06CFB1FE0284600F0AEF88A
:100ED00018B1284600F064FB17E02078012814D0F0
:100EE0002078022811D0207804280ED0A06920B9DB
:100EF0000021284600F004FB07E0A06928B104F1B6
:100F00001C012846A26900F01DFB70BD55534243E9
:100F100010B502460C4613465868416A00208861A5
:100F200010BD2DE9F04107460C46B846D8F804003C
:100F3000456A05F11C0605F10C0000EB8402001F58
:100F400000EB8401204602F0A9FD05F1080050F8ED
:100F50002400401E000E307005F1080050F82400F7
:100F6000401E000C707005F1080030F82400401E8F
:100F7000000AB07005F1080010F82400401EF0705F
:100F800005F10C0050F82400000E307105F10C0042
:100F900050F82400000C707105F10C0030F82400AA
:100FA000000AB07105F10C0010F82400F07108205F
:100FB000A8610020BDE8F0812DE9F04304460D460C
:100FC00016461F46A046D8F80400D0F82490F11920
:100FD00009F1080050F82500814207D92122052196
:100FE000204600F0D7FA0120BDE8F0830020FBE79F
:100FF0002DE9F04104460E4627467868456A687830
:10100000022806D18121384605F031FF00206870A2
:101010000AE006F08000802806D16878012803D015
:101020000121204600F06CFABDE8F0812DE9F04185
:10103000054601262F467868446A41F22F00005D7C
:10104000232876D00EDC1A2829D006DC002856D0BA
:1010500003284CD0122874D111E01B2817D01E2869
:101060006FD12CE02A285AD004DC252837D0282834
:1010700067D12CE02F284AD05A2862D117E041F2DC
:101080002D00015D284600F019F9064660E041F2A6
:101090002D00015D284600F0A5FA064658E041F211
:1010A0002D00015D284600F051F9064650E041F25E
:1010B0002D00015D284600F031F9064648E041F276
:1010C0002D00015D2846FFF723FF064640E041F270
:1010D0002D00015D284600F051F9064638E041F246
:1010E0002D00015D2846FFF71CFF064630E041F267
:1010F0002D00015D284600F0CBF9064628E041F2BC
:101100002D00015D284600F076FA064620E041F207
:101110002D00015D284600F086FA064618E041F2EF
:101120002D00015D284600F0B6FA064610E000E00A
:1011300007E041F22D00015D284600F04BF806461D
:1011400006E020220521284600F024FA012600BFEF
:1011500000BF3046BDE8F0812DE9F04104460F465E
:1011600026467068456A2878012804D003280CD0E8
:1011700004280FD108E02046FFF758FF18B10121DD
:10118000204600F0BDF906E000BF0021204600F037
:10119000B7F900E000BF00BFBDE8F0812DE9F041E4
:1011A00004460F4626467068456A2878022805D00E
:1011B00007280CD12046FFF751FE08E02046FFF734
:1011C00035FF18B10121204600F09AF900BF00BF99
:1011D000BDE8F0812DE9F04107460D46B846D8F844
:1011E0000400466A06F11C04002020706070A070A4
:1011F0000820E07006F10C0000EB8502001F00EBF8
:101200008501284602F04AFC06F1080050F8250046
:10121000401E000E207106F1080050F82500401E07
:10122000000C607106F1080030F82500401E000A2D
:10123000A07106F1080010F82500401EE0710220A0
:10124000207206F10C0050F82500000C607206F1C7
:101250000C0030F82500000AA07206F10C0010F80E
:101260002500E0720C20B0610020BDE8F081000094
:1012700070B505462E467068446A0720207000202D
:10128000607060600C494FF482500151002141F2BE
:10129000480001514FF482500151001D01510121BC
:1012A000304605F023FA1F2304F581520121304610
:1012B00005F098F870BD0000555342532DE9F047F2
:1012C000074688460024A146BA46DAF80400456A73
:1012D00041F23000405D00F0010010B10E4E0524D7
:1012E0000DE0404602F032F9064641F2280040592E
:1012F000242803D241F22800445900E02424AC61A0
:1013000004E0641E315D05F11C000155002CF8D18C
:101310004846BDE8F08700004C01002070B5024649
:101320000D46082114466068436A0820986106E06B
:10133000481EC1B20448465C03F11C004654002913
:10134000F6D1002070BD00007401002070B5024687
:101350000D46082114466068436A0820986106E03B
:10136000481EC1B20448465C03F11C0046540029E3
:10137000F6D1002070BD00006C0100202DE9F0477F
:1013800080460F46C146D9F80400446A04F58150EE
:1013900000F10F052078072844D141F22C00005DB0
:1013A00000F08000802807D020220521404600F070
:1013B000F1F80120BDE8F087A8780006E97840EA56
:1013C0000140297940EA0120697908432061287A9F
:1013D000E97940EA0120606139464046D4E90423B6
:1013E000FFF7EAFD08B10120E4E704F10C0151F830
:1013F000271020694843206104F10C0151F827109F
:1014000060694843606141F228000059616988427F
:1014100006D020220521404600F0BCF80120C9E793
:10142000012020704FF48050A0616069B0F5805FAA
:1014300001D2606901E04FF4805086B2334604F176
:101440001C023846216902F047FB30B13A220421E0
:10145000404600F09FF80120ACE7B3B204F11C0253
:101460008121484605F048F82069304420616069D0
:10147000801B606141F248000059811B41F2480025
:101480000151606908B904202070002092E7000033
:10149000F0B503460F4612221E467068416A01F1FC
:1014A0001C040A4D02E0521EA85CA054002AFAD186
:1014B00041F228004058122804D241F22800405836
:1014C000886101E0122088610020F0BD54010020F5
:1014D00070B505462E467068446A072020700120CA
:1014E0006070002060600121304605F0FFF81F2386
:1014F00004F581520121304604F074FF70BD0000F4
:101500002DE9F04105460E462F467868446A41F2BF
:101510004C0006510A494FF48250015107202070B7
:101520000D2304F582528121384604F0E5FF1F2384
:1015300004F581520121384604F054FFBDE8F081E2
:10154000555342532DE9F04706460F469046B146A3
:10155000D9F80400446A41F228000059404501D9F5
:10156000404602E041F22800005985B241F24800AD
:101570000059411B41F2480001510021001D015159
:10158000032020702B463A468121484604F0B4FFE0
:10159000BDE8F087014B99701A7470475401002020
:1015A00070B505462E467068446A41F2280000591D
:1015B00048B141F22C00005D28B9607818B90121CA
:1015C000304605F054FC8121304605F050FC60782F
:1015D000022806D11F2304F581520121304604F070
:1015E00001FF70BD10B502460C4613465868416AAB
:1015F0000020886110BD2DE9F04104468846002690
:1016000027467868456A41F22800405938B12022BF
:1016100005212046FFF7BEFF0120BDE8F081002034
:10162000A8613046F9E72DE9F04106460F46B0467D
:10163000D8F80400446A04F5815000F10F0541F226
:101640003000005D00F00200022807D124220521AD
:101650003046FFF79FFF0120BDE8F081A878000623
:10166000E97840EA0140297940EA01206979084394
:101670002061287AE97940EA0120606139463046E4
:10168000D4E90423FFF798FC08B10120E4E7002027
:10169000A06100BFE0E72DE9F04780460F46C14654
:1016A000D9F80400446A04F5815000F10F0620784F
:1016B000072855D141F22C00005D00F08000802801
:1016C00007D1202205214046FFF764FF0120BDE835
:1016D000F087B0780006F17840EA0140317940EABD
:1016E0000120717908432061307AF17940EA0120C4
:1016F000606139464046D4E90423FFF75DFC08B138
:101700000120E4E704F10C0151F827102069484357
:10171000206104F10C0151F82710606948436061B1
:1017200041F2280000596169884206D02022052133
:101730004046FFF72FFF0120C9E7022020706069B3
:10174000B0F5805F01D2606901E04FF4805085B24E
:101750002B4604F11C020121484604F043FE3BE005
:101760006069B0F5805F01D2606901E04FF480509C
:1017700085B22B4604F11C023846216902F0BDF9FE
:1017800030B13A2204214046FFF704FF01209EE7D2
:101790002069284420616069401B606141F2480073
:1017A0000059411B41F248000151606920B90021F4
:1017B0004046FFF7A5FE0FE06069B0F5805F01D2FB
:1017C000606901E04FF4805085B22B4604F11C02A1
:1017D0000121484604F006FE002078E72DE9F0419B
:1017E000044688460020E070401E206341462046A3
:1017F00002F03AF910B10420BDE8F08104F2322081
:1018000001F07BFF074694F83450EB2D03D0E92D0F
:1018100001D0E82D43D14AF65520874208D108224D
:1018200023A104F18600FEF73FFF08B90020E3E79B
:1018300004F13F0001F061FF06464120055D701E86
:10184000304060BBB6F5007F29DBB6F5805F26DC53
:101850002DB3681E284010BB04F1420001F04DFF7B
:10186000E8B14420005D401E012818D804F145006D
:1018700001F043FF98B104F1470001F03EFF8028DA
:1018800006DA04F1540001F02CFFB0F5803F06D3D6
:1018900004F14A0001F031FF08B10020ACE74AF63C
:1018A0005520874201D10220A6E70320A4E70000CB
:1018B00046415433322020200000000070B5044619
:1018C000002526468121304604F03FFD01213046A7
:1018D00004F03BFD284670BD2DE9F041044600258B
:1018E00026460021304604F0AEFF07462846BDE8F4
:1018F000F08101460020704702460020012904D0F3
:10190000022903D0032903D101E002E001E000E055
:1019100000BF00BF70472DE9F04104460D46002688
:10192000274605F07F01384604F0E0FE29462046B0
:10193000FFF712FC3046BDE8F08170B50446002583
:101940002646402302228121304604F01EFD40231A
:1019500002220121304604F018FD2046FFF788FCE2
:10196000284670BD70B504460D460026294620461F
:10197000FFF714FC304670BD2DE9F04105460C46DA
:101980004FF000082F467868466A207800F0600023
:10199000D0B1202857D16078FE2802D0FF280DD181
:1019A00005E00122311D384604F082FB0AE028469A
:1019B000FFF78EFD384604F08FFB03E0384604F055
:1019C00097FB00BF00BF42E06078012817D00628CF
:1019D00004D00A2806D00B2832D10BE0384604F098
:1019E00087FB2EE0012241F21C003118384604F03A
:1019F0005FFB26E0618841F21C00815121E02179E2
:101A0000384604F0A2FC207900F0800080280CD138
:101A1000207900F07F01384604F068FE21794023E8
:101A20000222384604F0B1FC05E02179402302226D
:101A3000384604F0AAFC21792846FFF7D9FA00E0DD
:101A400000BF00BF03E0384604F052FB00BF00BFF8
:101A50004046BDE8F0810146002070470246891EDD
:101A60009069801E884201D8002070475389D06A4F
:101A700003FB0100F9E72DE9F04782468846DAF8D2
:101A80000040B8F1000F06D1276917B1A069B8422C
:101A900015D8012713E04146504601F0BDFC05462C
:101AA000022D02D20120BDE8F087681C08B9284643
:101AB000F9E7A069A84201D92846F4E747466069DA
:101AC00008B90020EFE70026474518D17E1CA06921
:101AD000B04200D802263146504601F09DFC054632
:101AE000012D01D0681C08B92846DCE73DB1256905
:101AF000022D03D3A069A84200D92F460026E6B9DB
:101B00003E4600BF761CA069B04204D80226BE4201
:101B100001D90020C7E73146504601F07DFC05465B
:101B200005B909E0012D01D0681C08B92846BAE7BB
:101B3000BE42E7D10020B6E700BF4FF0FF3231468A
:101B4000204602F0A0FD8146B9F1000F08D1B8F19E
:101B5000000F05D032464146204602F094FD8146F2
:101B6000B9F1000F0DD12661D4E90510801E814224
:101B700002D86069401E6061207940F00100207148
:101B800007E0B9F1010F02D14FF0FF3000E0012072
:101B90000646304687E700002DE9F35F8946D9F80D
:101BA0000080009800F1200520220B212846FEF736
:101BB0003DFE0020074606464FF0080B00BF3046AA
:101BC000761C18F80040202C00DC4AE02F2C01D0B5
:101BD0005C2C0AD100E0761C18F806002F28FAD0F9
:101BE00018F806005C28F6D03BE02E2C01D05F45AB
:101BF0000BD3BBF10B0F01D02E2C02D00620BDE879
:101C0000FC9F08274FF00B0BD9E7204600F0E0FAC5
:101C1000A8B13046761C18F800A0504600F0F2FA41
:101C200018B1ABF10100B84201D80620E7E7384609
:101C30007F1C2C5438467F1C05F800A010E021467C
:101C400014A0FEF727FD08B10620D8E7612C04DBBD
:101C50007A2C02DCA4F12000C4B238467F1C2C543C
:101C6000ADE700BF08EB0600C9F800000FB9062079
:101C7000C5E72878E52801D105202870202C03DD50
:101C800018F80600202801DC042000E00020E8729B
:101C90000020B4E72A2B2C3A3B3C3D3E5B5D7C2286
:101CA0003F7F00002DE9FF4F85B09A4603AA01212E
:101CB000059800F05FFC18B1012009B0BDE8F08F75
:101CC000DDF80C904FF03F08082701E07806070E7A
:101CD00037B1B9FBF7F0B0FBF8F0B0F5806FF5D88D
:101CE00007B9FF274FF480515046FEF7A7FD0AF5CC
:101CF000DF764FF0000B444669E0069850F82B5011
:101D0000642D07D801D1484603E06420B9FBF0F008
:101D1000684305466019484501D8601901D3A9EB0D
:101D2000040505B959E0214606F1080003F012F94F
:101D3000294606F10C0003F00DF907983071B4FB49
:101D4000F8F0B0FBF7F00490B4FBF8F0B0FBF7F15B
:101D500007FB1100C0B20290B4FBF8F008FB104082
:101D6000401CC0B2019002987070C021049801EA32
:101D7000900001990843B0700498F0706019401EFB
:101D8000B0FBF8F0B0FBF7F004906019401EB0FB18
:101D9000F8F0B0FBF7F107FB1100C0B20290601938
:101DA000401EB0FBF8F108FB1100401CC0B20190CE
:101DB00002987071C021049801EA900001990843CB
:101DC000B0710498F07110360BF1010B2C44BBF18B
:101DD000040F02D20CB14C458FD300BF4AF65521F7
:101DE0000AF5FF7003F0C2F801230022514605985E
:101DF00000F0F0FB08B101205FE700205DE7000084
:101E00000349096860F30711014A11607047000037
:101E1000083802400349096860F38C21014A1160C7
:101E200070470000083802400349096860F34F31E9
:101E3000014A11607047000008380240012807D1AC
:101E40000749096821F030013031054A116005E089
:101E50000349096821F03001014A11607047000010
:101E6000A438024005282BD2DFE800F0030A11183D
:101E70002100154A126861F30002134B1A6020E03A
:101E8000114A126861F310420F4B1A6019E00E4AB2
:101E9000126861F318620C4B1A6012E00A4A703241
:101EA000126861F30002084B70331A6009E0064AB9
:101EB0007432126861F30002034B74331A6000E05D
:101EC00000BF00BF70470000003802402DE9FE4F00
:101ED00004464FF00009CA46CB460020029001900C
:101EE0000025002600F052F90090009820B101284A
:101EF00012D002283FD112E031480068C0F3803090
:101F000038B12F480068C0F3003010B12D48206070
:101F100001E02D48206031E02B4820602EE0284869
:101F20009C380068C0F38050029025489C380068B7
:101F3000C0F3881922489C38006800F00F0A204836
:101F40009C380068C0F30240204911F800B00298A4
:101F500010B91D48019001E01B4801900AFB0BFCE1
:101F60000198A0FB09700146624600233846FEF73F
:101F700048FA206002E01448206000BF00BF10480B
:101F800098380068C0F303151148465D2068F0409A
:101F900060600B4898380068C0F382250D48465DA4
:101FA0006068F040E060064898380068C0F3423549
:101FB0000948465D6068F040A060BDE8FE8F000003
:101FC000A0380240006CDC0200127A001C8200087B
:101FD000FC8100080C8200081482000810B501463C
:101FE0000020094B03EB1142D2F8002801F01F0436
:101FF0000123A3401A4001F01F040123A3409A4289
:1020000000D000E0012010BD0030024030B50024B7
:10201000002500E0641C1120FFF7E0FF012802D03A
:10202000B4F5405FF6D31120FFF7D8FF012801D0A7
:10203000002500E00125284630BD0000034909685D
:1020400060F30C31014A116070470000A038024073
:1020500000B503460120FFF7F1FF0348006863F372
:102060008E300149086000BDA038024010B501293A
:102070000FD1104B03EB1042D2F8002800F01F04E0
:102080000123A3401A430B4C04EB1043C3F8002870
:102090000EE0084B03EB1042D2F8002800F01F04BA
:1020A0000123A3409A43034C04EB1043C3F80028D8
:1020B00010BD00000030024030B538B90F4C246824
:1020C00024F4805404F580540C4D2C600B4C9C3C43
:1020D000246860F39654094D9C3D2C602C4624687E
:1020E00061F38E142C602C46246862F303042C6088
:1020F0002C46246863F312442C6030BDA0380240A3
:102100001A48006820F00100401C1849086000BF10
:1021100016480068C0F340000028F9D01348083082
:10212000006820F0030011490831086000BF0F4823
:1021300008300068C0F381000028F8D10B4800681F
:102140000B49084009490860002008490831086027
:102150000848091F086000200449A03108604FF4B6
:102160001F0002490C31086070470000003802402F
:10217000FFFFF2FE023003000349096860F301012A
:10218000014A1160704700000838024002480068A8
:10219000C0F3810070470000083802400349096815
:1021A00060F30F31014A116070470000A43802400B
:1021B00010B50446012C01D1FFF74AFF034800681F
:1021C00064F34D300149086010BD0000A0380240A2
:1021D00001460B48007888420FDC09484078884265
:1021E00001DB0120704706488078884205DC0448FE
:1021F000C078884201DB0120F4E70020F2E700000C
:10220000C4810008014610480079884219DC0E4854
:102210004079884201DB012070470B488079884271
:1022200005DC0948C079884201DB0120F4E7064853
:10223000007A884205DC0448407A884201DB0120AC
:10224000EAE70020E8E70000C48100082DE9F0413A
:1022500004460E46D4F800800021204600F019F90B
:102260000546EDB9002700BF4046A16901F0FCFB1F
:10227000054605B113E0E0690078E52802D0E06981
:10228000007820B9781C0746B04201D107E000274A
:102290000121204600F06FF80546002DE4D000BF74
:1022A000042D00D107252846BDE8F0812DE9F0472F
:1022B00004468946204602F0A5FE10B10120BDE883
:1022C000F08749462046FFF7C9FB064626634FF4D0
:1022D000805104F13400FEF7D3FA04F134080127E9
:1022E000002500E03D446089A84207D97219607852
:1022F0003B46414600F06EF90028F3D06089A842C1
:1023000001D00120DBE70020D9E72DE9F0410446A8
:1023100027680021204600F0BCF8054615B1284684
:10232000BDE8F08100BF3846A16901F09DFB05467C
:1023300005B11DE0E06906780EB9042518E0E069F2
:10234000C07A00F03F00A071E069C07A00F0080098
:1023500038B90B2204F12001E069FEF7A5F900B9B4
:1023600006E00021204600F006F80546002DDAD0F0
:1023700000BF2846D4E72DE9F04104468846266888
:10238000206900F12007B7F5001F01D30020A061EC
:10239000A06910B90420BDE8F081B089B7FBF0F165
:1023A00000FB1170002847D1A069401CA061606942
:1023B00038B93089B0EB571F3ED80020A061042007
:1023C000E9E7B089B7FBF0F07189491E084098BB76
:1023D0002046616901F020F80546012D01D8022050
:1023E000D9E7681C08B90120D5E7B069A8421DD813
:1023F000B8F1000F03D10020A0610420CBE72046F4
:102400006169FFF738FB05460DB90720C3E7012DC9
:1024100001D10220BFE7681C08B90120BBE72946AB
:102420003046FFF743FF08B10120B4E76561294654
:102430003046FFF713FBA0612761B089B7FBF0F1CD
:1024400000FB117106F134000844E0610020A2E7AE
:1024500070B50446266801212046FFF7F7FE0546C1
:10246000ADB93046A16901F0FFFA05467DB92021DA
:10247000E069FEF7E3F9E069216A0160616A4160A1
:10248000218D018194F82A1081720120F070284674
:1024900070BD2DE9F04104460E462568B6F5001FD3
:1024A00002D206F01F0010B10220BDE8F0812661C3
:1024B000A7681FB92878032800DBAF6A47B92889C5
:1024C000B0EB561F01D80220EFE7A86AA0611DE01B
:1024D0006889A98900FB01F811E03946204600F01F
:1024E0009BFF0746781C08B90120DEE7022F02D3C4
:1024F000A869B84201D80220D7E7A6EB08064645EE
:10250000EBD239462846FFF7A9FAA0616761A069B6
:1025100008B90220C9E7A889B6FBF0F0A169084410
:10252000A061A889B6FBF0F100FB116105F1340050
:102530000844E0610020B8E770B5044654B902F0E1
:10254000A3FB02F031FC0546294603A0FDF7D0FFAE
:10255000002070BD0120FCE7666174667320696E1F
:10256000697420666C6173683B69643A30782578D9
:102570000D0A00000346A3B9012904D0022906D0A0
:1025800003290BD107E04FF48060106006E04FF4A0
:102590008050108002E00120108000BF00BF0020AA
:1025A00070470120FCE72DE9F04104460F4615462F
:1025B0001E463CB932032803394602F0C5FA002012
:1025C000BDE8F0810120FBE7014609B9002000BF0A
:1025D00000BF70472DE9F04105460F4614461E46E0
:1025E00055B9200302F032FB32032003394602F0D2
:1025F000E9FA0020BDE8F0810120FBE738B5054687
:10260000284600F09BFD04463CB96946284604F084
:102610005DFF04460CB900202860204638BD00004C
:102620002DE9FF4F99B00E4619A800F09DFF0390C9
:102630000398002803DA0B201DB0BDE8F08FF7499E
:10264000039851F8200028B10021F44A039852F869
:10265000200001700398C0B216900020159006B9B2
:10266000EF4E1698FFF768FF0290029800F0010005
:1026700008B10320E0E7029800F0040008B10A2046
:10268000DAE770681290129838B912AA03211698E6
:10269000FFF770FF08B101201290129840B1129814
:1026A000B0F5004F04D81298401E1299084008B1A6
:1026B0000120129014AA02211698FFF75BFF08B1BF
:1026C0000120B9E7BDF85000B0F5805F0BDCBDF824
:1026D0005000B0F5007F06DBBDF85000401EBDF88D
:1026E0005010084008B10120A6E7307800F00F0034
:1026F00018907078012804DB7078022801DC70786B
:1027000000E001200590B16889B1B168B1F5004FD2
:102710000DD8BDF85000C11700EBD1614911B26866
:10272000B2FBF1F301FB132109B9B16801E04FF4E9
:1027300000710491F068B0F1807F05D8F068411E07
:10274000084008B9F06800E000200690BDF850107D
:102750000698B0FBF1F00690BDF850101C98B0FB45
:10276000F1F01390139808B9112065E71B9C0CB980
:10277000112061E74FF0000ACDF83CA000BF0FAA7E
:1027800001211698FFF7F6FE08B1012054E71898CA
:1027900000F0080040B90F983F2805D94FF03F0AD4
:1027A0000F98A0EB0A000F900F98802801D20E20FE
:1027B00042E700BF00BF0698802801D9802006901C
:1027C000189800F0020028B1189800F0010008B92C
:1027D000032707E0189800F0010008B913202BE741
:1027E000022700BF00BF8F490F980844109000BF18
:1027F000069D032F2DD195B90F984FEA50494FF000
:10280000000B012502E00BF1010B6D00864830F84A
:102810001B0020B1844830F81B004845F3D90F98BD
:10282000B0FBF5F8082000EB8800BDF85010084414
:10283000401EB0FBF1F00890202009900020079086
:102840004FF6F570804502D97848804539D90E2079
:10285000F2E695B90F984FEA10394FF0000B0125B9
:1028600002E00BF1010B6D00714830F81B0020B144
:102870006F4830F81B004845F3D90F98B0FBF5F8C6
:1028800040F6F570804503D9042000EB480906E0C6
:10289000012708EB4800401C032101EB5009BDF85B
:1028A00050004844401EBDF85010B0FBF1F00890B5
:1028B0000120099004984001BDF85010B0FBF1F0E0
:1028C0000790099850440E90059A08990E9801FBBC
:1028D0000201079808440D9012990D980844401E73
:1028E000491E20EA01010D98A1EB0009032F06D132
:1028F0000998484409900E9848440E9013E00598B2
:10290000B9FBF0F100FB119038B1A9F10109099868
:10291000401C09900E98401C0E900598B9FBF0F1F0
:102920000898084408900D9800EB0510A0EB0A00E9
:102930000F99884201D90E207EE60F9909980A1A4C
:102940000599089800FB11210798081AB0FBF5F8C3
:10295000032F0BD14FF6F570804507D8069818B9AC
:102960006808069000B135E00E2065E6022F28D1F8
:102970004FF6F570804517D9069830B94020B0EB76
:10298000450F02D36800069024E0189800F002007A
:1029900008B103271EE0069820B968000690802839
:1029A00000D817E00E2047E640F6F570804508D8BD
:1029B000069820B968000690802800D80AE00E200A
:1029C0003AE6012F05D140F6F570804501D90E2079
:1029D00032E600E00CE700BFBDF850102046FDF7DE
:1029E0002DFF14A001682160416861600189218187
:1029F000807AA072BDF8501004F10B0002F0B6FA14
:102A00006573099881B204F10E0002F0AFFA0598DF
:102A10002074032F14D1002013E000007800002060
:102A2000EC81000800002150DC810008F5FFFF0F59
:102A3000CE810008EBFE904D53444F53352E3000AD
:102A4000049881B204F1110002F090FA0F98B0F5E9
:102A5000803F06D20F9881B204F1130002F086FA8B
:102A600004E004F120000F9902F074FAF820607578
:102A70003F2104F1180002F079FAFF2104F11A0055
:102A800002F074FA514604F11C0002F063FA032FBD
:102A900025D104F14300109902F05CFA04F12400FE
:102AA000089902F057FA022104F12C0002F052FAC0
:102AB000012104F1300002F059FA062104F132003C
:102AC00002F054FA802084F84000292084F8420063
:102AD000132283A104F14700FDF731FE16E004F153
:102AE0002700109902F036FA089881B204F1160016
:102AF00002F03CFA802084F82400292084F8260083
:102B000013227CA104F12B00FDF719FE4AF6552192
:102B100004F5FF7002F02AFA012352462146169866
:102B2000FFF758FD08B1012086E5032F33D10123BB
:102B30000AF1060221461698FFF74CFDBDF8501029
:102B40002046FDF77BFE7049204602F003FA6F49EC
:102B500004F5F27002F0FEF9A8F1010104F5F47039
:102B600002F0F8F9022104F5F67002F0F3F94AF6E2
:102B7000552104F5FF7002F0F9F901230AF107026B
:102B800021461698FFF726FD01230AF1010221468E
:102B90001698FFF71FFDBDF85020139800FB02F1B7
:102BA0002046FDF74BFE0E980C904FF0000B40E0D6
:102BB000032F0FD16FF00701204602F0CBF9391F28
:102BC000201D02F0C7F96FF0704104F1080002F017
:102BD000C1F909E0012F01D14D4801E06FF0070074
:102BE0000146204602F0B6F90898119000BF1399EB
:102BF0001198884201D9139800E0119881464B46FC
:102C000021460C9A1698FFF7E5FC08B1012013E560
:102C1000BDF850102046FDF711FE0C9848440C906A
:102C20001198A0EB0900119011980028DFD10BF149
:102C3000010B05988345BBD3032F01D1284600E043
:102C40000798119000BF13991198884201D91398E1
:102C500000E0119881464B4621460C9A1698FFF7E2
:102C6000B9FC08B10120E7E40C9848440C90119895
:102C7000A0EB0900119011980028E4D100BF032FA8
:102C800002D10C2017900CE00F98B0F5803F02D3D2
:102C90000620179005E0022F01D1042000E001205A
:102CA000179000BF189800F0080070B90F980A90AC
:102CB00000200B9023460AA9DDE91602FEF7F2FF79
:102CC0000190019808B10198B6E4002211461698C7
:102CD000FFF750FC08B10120AEE40020ACE4000096
:102CE0004E4F204E414D4520202020464154333246
:102CF000202020004E4F204E414D452020202046D0
:102D000041542020202020005252614172724161C2
:102D1000F8FFFF00F7B582B016460398019001A8AE
:102D200000F022FC0546002D02DA0B2005B0F0BDB4
:102D30000C4850F825400CB100202070029810B1CA
:102D40000020029908700749029841F825000EB941
:102D50000020EBE7002202A903A800F00BFD0746C4
:102D60003846E3E7780000202DE9F74F8EB004469F
:102D700016461CB9092011B0BDE8F08F06F03F06D9
:102D8000324602A90FA800F0F5FC0546002D6FD1D0
:102D90000298039003A80F9900F05CFA05462DB93C
:102DA0009DF8370000F0800000B1062506F01C00F9
:102DB000002855D045B1042D03D103A8FFF748FBE7
:102DC000054646F008060AE09DF8120000F01100E2
:102DD00008B1072503E006F0040000B10825002D26
:102DE00050D106F0080000284CD05F4801900A99A5
:102DF00001F10E00019902F0ADF80A9901F11600F7
:102E0000019902F0A7F80A99029800F057FC814650
:102E100020200A99C87200220A99029802F088F8C4
:102E20000A9901F11C00002102F094F80120029996
:102E3000C870B9F1000F25D00298D0F830A0002258
:102E4000494603A802F027F80546DDB95146029825
:102E500000F00AFE0546A9F101000299086111E09F
:102E600085B99DF8120000F0100010B1042509E0AA
:102E700063E006F0020028B19DF8120000F00100A6
:102E800000B107254DB906F0080008B146F040062C
:102E90000298006B20620A986062002D5ED10A9948
:102EA000029800F00BFCA0600A9901F11C0000F0F0
:102EB00018FCE060029820600298C088A080267408
:102EC00000206074E06160614FF4805104F12800DB
:102ED000FDF7D6FC06F0200078B3E06868B3E06840
:102EE0006061029840890299898900FB01FBA7680B
:102EF000D4F80C800CE03946204600F08DFA0746E5
:102F0000012F00D80225781C00B90125A8EB0B0879
:102F10000DB9D845EFD8A7617DB902988089B8FB73
:102F2000F0F100FB118040B139460298FEF796FDA2
:102F30008246BAF1000F01D102250FE00298808984
:102F4000B8FBF0F05044E061E2690299487801234F
:102F500004F12801FFF727FB00B101250DB1002086
:102F60002060284607E70000000021502DE9FF4FB0
:102F700085B0044615469A46DDF818B00020CAF818
:102F8000000003A9204604F0A1FA0490049810B9A7
:102F9000607C049018B1049809B0BDE8F08F207CE3
:102FA00000F0010008B90720F6E76169E068401AFF
:102FB00001900198854200D9019DB9E060690399AB
:102FC0008989B0FBF1F201FB1200002876D160691B
:102FD00003998989B0FBF1F003994989491E00EAF8
:102FE0000109B9F1000F17D1606910B9A06802900A
:102FF00004E02046A16900F00FFA0290029802282E
:1030000002D202206074C7E70298401C10B9012068
:103010006074C1E70298A061A1690398FEF71EFDE4
:10302000064616B902206074B6E74E4403988089BC
:10303000B5FBF0F8B8F1000F2DD009EB08000399AB
:103040004989884203D903984089A0EB090803996C
:103050004878434632465946FFF7A5FA10B1012099
:10306000607499E7207C00F0800078B1E069801BF3
:1030700040450BD2E169891B039B9B8901FB03B08F
:1030800003998A8904F12801FDF759FB0398808987
:1030900000FB08F742E0E069B04220D0207C00F05D
:1030A000800080B1E26903994878012304F1280186
:1030B000FFF790FA18B1012060746DE710E0207CF2
:1030C00000F07F002074039948780123324604F110
:1030D0002801FFF768FA10B1012060745CE7E6612F
:1030E000606903998989B0FBF1F201FB1200039931
:1030F00089890F1AAF4200D92F46606903998989DF
:10310000B0FBF1F201FB120104F1280008443A4639
:10311000014600905846FDF712FB00BFED1BDAF8A0
:1031200000003844CAF80000BB446069384460615C
:10313000002D7FF443AF00202EE70000F8B50446D1
:103140006946204604F0C2F90646002E42D1207C92
:1031500000F0400000283DD0207C00F0800070B1DD
:10316000E26900994878012304F12801FFF732FA57
:1031700008B10120F8BD207C00F07F002074164FBC
:10318000216A009800F070FC06461EBB656AE87A6A
:1031900040F02000E8722946A268206801F0C8FECD
:1031A00005F11C00E16801F0D5FE394605F1160075
:1031B00001F0D0FE002105F1120001F0D7FE012040
:1031C0000099C870009801F0D7FE0646207C00F0F8
:1031D000BF0020743046CDE7000021502DE9FF41AB
:1031E00007460D4600213846FEF7F8FA0646022E3D
:1031F00006D0032E00D21DB9304604B0BDE8F081E0
:1032000000BF00240AE007F5F97101EB041101F198
:10321000080000F066FA4DF82400641C042CF2D378
:103220000DB1681E00E00020044600BF5DF82400D8
:1032300028B15DF824103846FEF7D0FA00E00320EC
:1032400006462DB9022E03D3601C04460428EDD394
:103250003046D2E72DE9F3410446276802E00198A1
:10326000401C0190019800782F28F8D00198007830
:103270005C28F4D00020A06001980078202808D2B3
:1032800080212B20015500212046FFF702F9054639
:1032900031E000BF01A92046FEF77EFC054605B1DE
:1032A00028E02046FFF731F805462B20065D3DB1AA
:1032B000042D04D100BF06F0040000B9052519E073
:1032C00006F0040000B115E0A07900F0100008B984
:1032D00005250FE0B9892069B0FBF1F201FB12016D
:1032E00007F1340001EB00084146384600F0E6F9EA
:1032F000A060CFE700BF2846BDE8FC8170B504465A
:103300000D4600BF8021054801F0ABFF0028F9D031
:10331000A1B2024801F09CFF204670BD00100140A0
:1033200010B5054905A003F001FE094908800248CF
:103330004860084610BD0000E44700204D617373EB
:103340002053746F7261676520436F6E6669670012
:1033500044010020004870472C01002000487047BD
:103360002401002010B5054905A003F0DFFD0A493E
:10337000088002484860084610BD0000E44700206D
:103380004D6173732053746F7261676520496E7469
:103390006572666163650000440100200048704763
:1033A0003401002010B5054905A003F0BFFD064912
:1033B000088002484860084610BD0000E44700202D
:1033C000417274657279000044010020002070474A
:1033D00010B5054905A003F0A9FD09490880024878
:1033E0004860084610BD0000E447002041543332D5
:1033F000204D6173732053746F7261676500000024
:10340000440100200020704710B500F0D5F80148B5
:1034100010BD00003C0100202DE9F05F81460D4603
:10342000D9F80040022D02D3A069A84202D84FF07B
:10343000010887E04FF0FF382078012804D00228E7
:103440003AD003287AD156E02E4606EB5606A089DC
:10345000B6FBF0F0616A00EB010A5146204600F02D
:1034600003FB00B16DE03046761CA189B0FBF1F2A0
:1034700001FB120104F13400475CA089B6FBF0F0B7
:10348000616A00EB010A5146204600F0EDFA00B1F6
:1034900057E0A089B6FBF0F100FB116104F13400A4
:1034A000405C47EA002705F0010008B1380901E057
:1034B000C7F30B00804644E0B4F80CA00AEBDA70C6
:1034C0004010B5FBF0F0616A00EB010B5946204655
:1034D00000F0CAFA00B134E06800A189B0FBF1F253
:1034E00001FB120104F1340001EB000A504600F028
:1034F00004F9804625E0B4F80CA04FEAEA700AEB24
:1035000090708010B5FBF0F0616A00EB010B59463A
:10351000204600F0A9FA00B113E0A800A189B0FB91
:10352000F1F201FB120104F1340001EB000A5046F4
:1035300000F0D7F820F0704803E0FFE74FF00108F3
:1035400000BF00BF4046BDE8F09F000001460129D2
:1035500005DA01EBC100034A02EB8000704700204E
:10356000FCE700005400002070B504464FF0FF3027
:1035700026683146324601B970BD00BF12F8013BE2
:10358000212B01D33A2BF9D13A2B11D101250E78F9
:10359000302E08DB0E78392E05DC8E1C964202D1C7
:1035A0000E78A6F13005012D01DA28462260E3E706
:1035B000002000BFE0E7000070B50A480468001D65
:1035C0000568001D0668344454B1082206492046A7
:1035D00003F009FA042204491031284603F003FAE3
:1035E00070BD0000E8F7FF1F0A0100204FF6FF71D1
:1035F000016000218171017141710121C171704728
:1036000070B50A4600211488A3B233E003F0010428
:103610006CB304684E000325B540AC430460947954
:103620004D00AC4005682C430460446801258D4082
:10363000AC434460446815798D402C4344608468F1
:103640004E000325B540AC438460D4794D00AC40B6
:1036500085682C438460C4684E000325B540AC43A4
:10366000C46054794D00AC40C5682C43C4605B1005
:103670004C1CA1B2002BC9DC70BDF0B500230024A6
:103680004D07ED0E02FA05F3CD105DB1456A4E0708
:10369000F70E0F26BE40B5434562456A45EA03046E
:1036A00044620AE0056A4E07F70E0F26BE40B54396
:1036B0000562056A45EA03040462F0BD70B505467B
:1036C0000C4604F11A0000F018F806462878032882
:1036D00005D104F1140000F010F846EA0046304627
:1036E00070BD0146C8788A7842EA00204A7842EAEA
:1036F00000200A7842EA00207047014648780A789C
:1037000042EA0020704700001CB5032000F06EFA6A
:1037100001F09EFC4FF4E13001F060FD0BA0FCF7DE
:10372000E7FE01F0C5FE03F085FC0D4801210023F2
:103730000A02CDE900100BA10D4804F0BBFA03F01A
:10374000A3FC03F003FE00201CBD00007374617233
:103750007420696E697420757362640D0A0000003C
:10376000080000204170705F6D61696E000000000C
:10377000750A00082DE9F74F84B000210598016013
:103780000498FFF7F1FE03900398002803DA0B205A
:1037900007B0BDE8F08FAF49039851F820400CB94D
:1037A0000C20F5E705980460069800F0FE000690EE
:1037B000207878B16078FEF707FF074607F0010030
:1037C00040B9069820B107F0040008B10A20DFE7ED
:1037D0000020DDE700202070039860706078FEF71D
:1037E000ABFE074607F0010008B10320D0E70698BA
:1037F00020B107F0040008B10A20C9E7607804F19D
:103800000C020221FEF7B6FE08B10120C0E7A08934
:10381000B0F5805F07DCA089B0F5007F03DBA089ED
:10382000411E084008B10120B2E700212046FFF701
:10383000D5FC0546042D01D10120A9E7022D01D3B5
:103840000D20A5E7D4F8309004F13F00FFF755FFB5
:10385000A189884201D00D209AE704F14A00FFF7C0
:103860004CFF064626B904F15800FFF73AFF06461A
:10387000E6614420005DA070A078012804D0A07803
:10388000022801D00D2083E7A07846434120005D47
:103890006081608918B16089411E084008B10D201F
:1038A00076E704F14500FFF728FF2081A089C117C2
:1038B00000EBD1614911228992FBF1F301FB132145
:1038C00009B10D2064E704F14700FFF716FF8246B7
:1038D000BAF1000F04D104F15400FFF702FF824651
:1038E00004F14200FFF709FF8346BBF1000F01D14D
:1038F0000D204DE7A089C11700EBD1614911228944
:1039000092FBF1F10BEB06021144029102998A45F8
:1039100001D20D203CE70298AAEB00006189B0FBC0
:10392000F1F8B8F1000F01D10D2031E700254A4828
:10393000804500D803254FF6F570804500D8022554
:1039400040F6F570804500D801250DB90D201FE720
:1039500008F10200A061C4F8209009EB0B0060623E
:1039600002984844E062032D13D104F15E00FFF792
:10397000C4FE08B10D200BE7208908B10D2007E730
:1039800004F16000FFF7ADFEA062A0698000019025
:1039900014E0208908B90D20FAE6606A3044A0627C
:1039A000022D02D1A069400007E0207E00F0010056
:1039B000A16901EB410100EB51000190A089401E7B
:1039C00001990844A189B0FBF1F0E169884201D96D
:1039D0000D20DDE64FF0FF30606120618020207116
:1039E000032D2DD104F16400FFF787FE012827D1B4
:1039F00009F10101204600F037F808BB00202071D2
:103A000004F23220FFF779FE4AF65521884217D199
:103A100004F13400FFF765FE1049884210D104F527
:103A20000670FFF75EFE0E49884209D104F5077063
:103A3000FFF757FE606104F50870FFF752FE206142
:103A4000257008480088401C80B206490880E08044
:103A500000209DE678000020F5FFFF0F52526141E3
:103A6000727241617C00002070B504460D4600264C
:103A7000206BA84210D0204601F0C4FA06465EB979
:103A8000607801232A4604F13401FEF78CFD10B161
:103A90004FF0FF3501262563304670BD10B5034653
:103AA0004FF480500A4C206080020A4C206053B9C9
:103AB00020460068064C2468B0FBF4F00860044817
:103AC0000068106000E000BF00BF002010BD0000D3
:103AD0004C000020500000202DE9F04107460C4624
:103AE00015461E462FB932462946204601F02CF8CD
:103AF00000BF00BF0020BDE8F0812DE9F04107467E
:103B00000C4615461E4647B9204601F09FF832463E
:103B10002946204601F056F800E000BF00BF002013
:103B2000BDE8F0812DE9F0470B4614464FF0000C3C
:103B300000BF2C4A1268C2F302211D4626460A46DF
:103B4000C2F10709B9F1040F02D94FF0040901E0ED
:103B5000C2F10709C84602F10409B9F1070F02D200
:103B60004FF0000901E0A2F103094F464FF00109AF
:103B700009FA08F9A9F1010909EA050909FA07F999
:103B80004FF0010A0AFA07FAAAF1010A0AEA060A3C
:103B900049EA0A09CC4601466246002904DB1507BA
:103BA0002E0E114D6E5407E015072F0E0D4D0C35DE
:103BB00001F00F06361FAF5500BF014600290DDB8F
:103BC00000BF00BF01F01F050122AA404D09AD0052
:103BD00005F1E025C5F8002100BF00BF00BFBDE82A
:103BE000F08700000CED00E000E400E000BF00F012
:103BF0000702064B19684FF6FF031940044B0B43AD
:103C000043EA0221014B196000BF70470CED00E050
:103C10000000FA052DE9F04105460E461C480768EC
:103C20001C480068001D03F0BAF950B91948006833
:103C300090F82C10012088401749096881431648E4
:103C40000160681C38B936B112480168091D134873
:103C500003F0E3F91AE07C190E4800684460BC42A6
:103C600007D20C480168091D0D48006803F0BBF934
:103C70000CE008480168091D0A48006803F0B3F920
:103C800009480068844201D207480460BDE8F08119
:103C9000D0010020BC010020D4010020B4C30020CA
:103CA000C4010020C0010020EC01002010B5044632
:103CB00003F0C0F924480068401C234908602348E9
:103CC000006840B9214804600846006801280DD109
:103CD00000F0CEF90AE01E48006838B91B480068B9
:103CE000C06AE16A884201D818480460194800682F
:103CF000401C1849086008460068606494F82C105D
:103D00000120884014490968084313490860E16AA2
:103D100001EB8101114A02EB8100211D03F07DF9C5
:103D200003F0B2F90A48006868B108480068C06A40
:103D3000E16A884207D24FF0805009490860BFF31A
:103D40004F8FBFF36F8F10BDCC010020BC0100204E
:103D5000D8010020E8010020D4010020E4C00020A8
:103D600004ED00E010B503F065F90C48006890B967
:103D70000B4803F028F90B4803F025F908480A49D5
:103D8000086008480949086000220C210F2003F050
:103D90006FFC0249086003F077F910BD10020020A3
:103DA000C8C30020DCC30020080200200C02002051
:103DB00010B516E003F03EF90C48C068C468201D39
:103DC00003F0EDF80A480068401E094908600948F8
:103DD0000068401E0749086003F056F9204600F0CD
:103DE0005FF8044800680028E4D110BDA0C300209B
:103DF000CC010020C801002070B504460D46206C9F
:103E000070B1216CE0680144E160D4E9021088429D
:103E100001D32168E1602846226CE168FCF78FFC41
:103E200070BD2DE9F04104460F4615464FF00008DD
:103E3000A66B206C48B9206800282CD1A06804F03B
:103E400023F880460020A06025E07DB93946226C29
:103E50006068FCF774FC216C606808446060D4E919
:103E60000101884217D32068606014E03946226C53
:103E7000E068FCF764FC216CE068411AE1602168AD
:103E8000E068884203D2216CA068411AE160022DEB
:103E900001D106B1761E701CA0634046BDE8F081DA
:103EA00010B50446206B03F00DF9204603F00AF923
:103EB00010BD00000146084A126812680AB90122C2
:103EC00000E000220A600A6822B9034A1268D26838
:103ED000106800E0002070470802002030B54FF461
:103EE000F043174800F007042CB1C01D20F0070074
:103EF000134C041B1B1B0246124C22600024114D64
:103F00006C60D018083820F007000F4C20600024A7
:103F10000D4D2D686C600C4D2D682C601146441AB7
:103F20004C60094C24680C60084D4C682C60084DAE
:103F30004C682C604FF00044064D2C6030BD0000F2
:103F4000E448002088010020900100209801002012
:103F500094010020A401002000BFFFF729FF0648BC
:103F600000680128F9D94FF0805004490860BFF378
:103F70004F8FBFF36F8FF0E7E4C0002004ED00E047
:103F80002DE9F04106460D4617469846069C0DB9A8
:103F9000246000E02760E66325640121204603F0E9
:103FA000B9FB84F850800020A064BDE8F0812DE9C1
:103FB000F05F82460E4690469B460A9F0C9C4FEA55
:103FC0008801A522206BFCF731FCA8F10100216BD0
:103FD00001EB800929F0070909F0070008B9012061
:103FE00000E0002050B900BF102080F31188BFF31B
:103FF0004F8FBFF36F8F00BF00BFFEE786B1002574
:1040000007E0715D04F134004155705D00B902E0D4
:104010006D1C102DF5D300BF00214320015502E097
:10402000002084F83400202F00D31F27E762E764C4
:1040300000202065201D02F0D3FF04F1180002F0DB
:10404000CFFF2461C7F12000A06164620020606599
:10405000A06584F85C005A465146484600F092FC40
:1040600020600B9808B10B980460BDE8F09F000039
:1040700010B5002407E004EB84010F4A02EB810035
:1040800002F0A1FF641C202CF5D30C4802F09BFF2A
:104090000B4802F098FF0B4802F095FF0A4802F027
:1040A00092FF0A4802F08FFF04480949086004485B
:1040B0000849086010BD0000E4C0002064C300206F
:1040C00078C300208CC30020A0C30020B4C300200C
:1040D000C0010020C401002010B50146164800E0D0
:1040E000006803688B42FBD30246436813448B424B
:1040F00004D143684C682344436001460A464B6838
:1041000013440468A34211D10C4C03682468A342F1
:1041100008D04B680468646823444B6003681B68DC
:104120000B6005E0054B1B680B6001E003680B604A
:10413000884200D0016010BD88010020900100205D
:104140002DE9F04104460D4616461F464FF0000883
:1041500065602461B5420CD8F01BA169884202D386
:104160004FF0010811E0211D0948006802F03BFFF3
:104170000BE0BE4204D2BD4202D34FF0010804E07E
:10418000211D0448006802F02EFF4046BDE8F08182
:104190000C0200200802002070B5054602F04AFF1C
:1041A000A86B08B9012400E0002402F06DFF20464E
:1041B00070BD70B5054602F03DFFA86BE96B884203
:1041C00001D1012400E0002402F05EFF204670BD12
:1041D000F1B50098846C002654B900BF102080F31C
:1041E0001188BFF34F8FBFF36F8F00BF00BFFEE793
:1041F000A06BE16B884201D2012000E0002050B9A1
:1042000000BF102080F31188BFF34F8FBFF36F8F73
:1042100000BF00BFFEE7A06BE16B88422CD294F98F
:104220004550002269462046FFF7FBFD0646681C04
:1042300060B9606A08B9012000E00020D8B904F133
:10424000240003F07FFEB0B1012614E07F2D01D0E1
:10425000012000E0002050B900BF102080F3118839
:10426000BFF34F8FBFF36F8F00BF00BFFEE7681C27
:1042700040B284F8450000BF3046F8BDF8B50546A9
:104280000F461A480068C068C468201D02F087FE07
:1042900094F8280000F00400E8B1A06941192B4609
:1042A0003A462046FFF74CFFD8B1002003462A4685
:1042B00001460090204603F03DFF064656B900BF78
:1042C000102080F31188BFF34F8FBFF36F8F00BFB3
:1042D00000BFFEE705E094F8280020F0010084F814
:1042E00028002046216A8847F8BD00000802002007
:1042F00070B586B08BE003980028FBDB059C6069F5
:1043000008B9012000E0002010B9201D02F047FE8E
:1043100002A800F0DBF8054603980A2875D2DFE80A
:1043200000F009050739416306083A4200BF00BFA3
:1043300000BF00BF94F8280040F0010084F8280076
:104340000498A269811803462A462046FFF7F8FE22
:10435000F8B12046216A884794F8280000F004004C
:10436000B8B1002000900498A169421800231946B2
:10437000204603F0DFFE064656B900BF102080F34A
:104380001188BFF34F8FBFF36F8F00BF00BFFEE7F1
:1043900000BF3BE000BF94F8280020F0010084F843
:1043A000280033E000BF94F8280040F0010084F8B2
:1043B00028000498A061A06908B1012000E0002055
:1043C00050B900BF102080F31188BFF34F8FBFF3A7
:1043D0006F8F00BF00BFFEE7A06941192B462A4638
:1043E0002046FFF7ADFE11E094F8280000F002002F
:1043F00018B9204602F066FE05E094F8280020F087
:10440000010084F8280001E0FFE700BF00BF0022A0
:1044100003A90448006803F051FB00287FF46BAF48
:1044200006B070BD10020020F8B505460C4602F03B
:10443000DFFF684600F04AF80646009820BB44B902
:10444000B54206D803F0CAFD31462846FFF716FFED
:104450001CE03CB10E480068006808B9012000E08B
:1044600000200446A91B22460A48006802F0CCFE40
:1044700003F0B4FD50B94FF0805007490860BFF316
:104480004F8FBFF36F8F01E003F0A8FDF8BD000070
:104490000C0200201002002004ED00E00948006832
:1044A000006808B9012000E0002020B14FF0FF3083
:1044B0000549086005E003480068C06800680249D3
:1044C00008607047C0010020EC01002070B5044670
:1044D00003F030FC054607480068854204D200F02E
:1044E0000BF80120206001E00020206001480560F9
:1044F000284670BD180200202DE9F84334E0254815
:104500000068C068056823480068C068C468201D4A
:1045100002F045FD2046216A884794F8280000F003
:10452000040008B3A0694619AE4207D96660246149
:10453000211D1848006802F056FD15E000200346D2
:104540002A4601460090204603F0F4FD074657B97D
:1045500000BF102080F31188BFF34F8FBFF36F8F20
:1045600000BF00BFFEE700BF0A480068006808B946
:10457000012000E000200028C1D00648D0F80080CB
:1045800005480068034908600348C0F80080BDE89A
:10459000F8830000080200200C0200200E4800688A
:1045A000401C08B9012000E0002050B900BF1020D5
:1045B00080F31188BFF34F8FBFF36F8F00BF00BF31
:1045C000FEE700BF102080F31188BFF34F8FBFF3C9
:1045D0006F8F00BF00BFFEE7AC01002008B500BF31
:1045E0006846FFF767FC044620460099FFF71CFF6A
:1045F000FFF77EFEF4E770B5044602F01BFD94F968
:10460000455019E0A06C30B12046FFF7E1FD88B1BC
:1046100002F05AFE0EE0606A08B9012000E00020B6
:1046200038B904F1240003F08DFC18B102F04CFEFF
:1046300000E003E0681E45B2002DE3DC00BFFF2070
:1046400084F8450002F020FD02F0F4FC94F9445097
:1046500010E0206908B9012000E0002048B904F109
:10466000100003F06FFC08B102F02EFE681E45B288
:1046700000E001E0002DECDC00BFFF2084F84400E6
:1046800002F002FD70BD2DE9F05F04460D461646AE
:104690004FF00209022D72D3A069A8426FD9207889
:1046A000012804D0022857D0032811D179E02F46E1
:1046B00007EB5707A089B7FBF0F0616A00EB010A2E
:1046C00051462046FFF7D0F98146B9F1000F00D0DE
:1046D0009DE038467F1CA189B0FBF1F201FB12017D
:1046E00004F1340001EB000805F0010028B1F1B23B
:1046F00098F8000061F31F1000E0304688F80000D1
:104700000120E070A089B7FBF0F0616A00EB010ABC
:1047100051462046FFF7A8F98146B9F1000F00D0B5
:1047200075E0A089B7FBF0F100FB117104F13400D2
:1047300001EB000805F0010010B1C6F3071006E018
:1047400098F8000000F0F000C6F30321084388F851
:1047500000000120E0705AE0B4F80CA00AEBDA7017
:104760004010B5FBF0F0616A00EB010B59462046A2
:10477000FFF77AF98146B9F1000F01D047E047E031
:104780006800A189B0FBF1F201FB120104F13400D1
:1047900001EB000AB1B2504600F0E8FB0120E070E6
:1047A00035E0B4F80CA04FEAEA700AEB9070801084
:1047B000B5FBF0F0616A00EB010B59462046FFF7AC
:1047C00053F98146B9F1000F00D020E0A800A1897B
:1047D000B0FBF1F201FB120104F1340001EB000A1D
:1047E0005046FEF77EFF66F31B000646A800A1892F
:1047F000B0FBF1F201FB120104F1340001EB000AFD
:104800003146504600F0A6FB0120E07000BF00BF1B
:104810004846BDE8F09F00002DE9F04104464FF006
:10482000000802F0E5FD5148006808B9FFF756FBA3
:104830004F480068204000287ED13CB304F10800B6
:10484000A04223D9083404F0070000B304F00700A5
:10485000C0F108002044A04216D904F00700C0F1BE
:104860000800044404F0070008B9012000E000201B
:1048700068B900BF102080F31188BFF34F8FBFF3DA
:104880006F8F00BF00BFFEE7002400E00024002C73
:1048900054D038480068844250D8374E30460568B6
:1048A00001E02E462D686868A04202D228680028E0
:1048B000F7D12E480068854240D0306800F10808E2
:1048C000286830606868001B102819D92F1907F074
:1048D000070008B9012000E0002050B900BF1020F7
:1048E00080F31188BFF34F8FBFF36F8F00BF00BFFE
:1048F000FEE76868001B78606C603846FFF7ECFBE9
:104900001C4968680968081A1A490860084600685E
:104910001A490968884203D2164800681749086096
:1049200013496868096808436860002028601448D3
:104930000068401C124900E000E0086003F04EFBF4
:1049400008F0070008B9012000E0002050B900BFBE
:10495000102080F31188BFF34F8FBFF36F8F00BF1C
:1049600000BFFEE74046BDE8F08100009001002056
:10497000A40100209401002088010020980100205B
:104980009C010020001F4FF080730360001F21F086
:1049900001030360001F054B036014380260001F11
:1049A0006FF0020303602038704700009D45000847
:1049B000026961F3124202617047014691F80001F9
:1049C000704780F800117047026961F302020261CA
:1049D000704710B50246002300204C6814600B7A23
:1049E0000C7C43EA0443CC7843EA04630C7843EA42
:1049F00004735360CC6894600C7D6000CC7C40EA0A
:104A000084008C7C40EAC4004C7C40EA44104C7822
:104A100040EA04408C7840EA0460D06010BD012276
:104A2000426270470246002001290CD0022902D0C0
:104A300004290CD103E09369C3F3400008E09369B3
:104A400003F0010004E0536A03F0010000E000BF3E
:104A500000BF704710B5094800F027F8074908481B
:104A6000FFF7B7FF00BF01210548FFF7DBFF002874
:104A7000F9D001210248FFF7D2FF10BD78340020A1
:104A8000001000A0002202704270202282700122D9
:104A9000C2704160032202720022C260027442743A
:104AA0008274C27401220275704700210170417046
:104AB000052181700121C170002141600172C16036
:104AC0000174417481740121C17400210175704722
:104AD000002303704370EB2383700123C370416094
:104AE00003230372C2600623037404234374002368
:104AF0008374C374037570470021017041700621EF
:104B000081700121C170002141600172C160017496
:104B100041748174C17401210175704700230370D1
:104B20004370322383700123C370416003230372F7
:104B3000C260002303740223437400238374C3748C
:104B400001230375704700002DE9F04106460D462C
:104B50001446A046224631461848FFF7B9FF1749C8
:104B60001748FFF736FF00BFB4F5805F02D34FF45C
:104B7000805800E0A04600BF02211148FFF752FF15
:104B80000028F9D0002705E00D48FFF716FF05F8CB
:104B9000010B7F1C4745F7D3A4EB0804002CE3D19D
:104BA00000BF01210648FFF73DFF0028F9D0012191
:104BB0000348FFF734FFBDE8F0810000783400209F
:104BC000001000A02DE9F04104460F46154600BF35
:104BD00000F018F9012000EB1420C4EB0026B542C8
:104BE00000D22E46324621461648FFF797FF154958
:104BF0001548FFF7EEFE4FF000080DE000BF04215E
:104C00001148FFF70FFF0028F9D017F8011B0E48D5
:104C1000FFF7D7FE08F10108B045EFD3AD1B3444D0
:104C200000BF01210848FFF7FDFE0028F9D001214F
:104C30000548FFF7F4FEFFF70DFF002DC8D1BDE8D2
:104C4000F081000078340020001000A010B5044668
:104C500000F0D8F821460A48FFF714FF0849094830
:104C6000FFF7B7FE00BF01210648FFF7DBFE002873
:104C7000F9D001210348FFF7D2FEFFF7EBFE10BD8C
:104C800078340020001000A01CB501214048FDF739
:104C9000EDF901213F48FDF7E9F901213D48FDF714
:104CA000E5F901214FF44010FDF7E0F901214FF43F
:104CB0004010FDF7DBF901213648401CFDF7D6F91D
:104CC00001213448401CFDF7D1F96846FEF78EFCFF
:104CD00001208DF8070000208DF8040002208DF8D7
:104CE000060000208DF805004FF4806000906946B2
:104CF0002948FEF785FC0220009069462648FEF709
:104D00007FFC4020009069462448FEF779FC802013
:104D1000009069462148FEF773FC10200090694618
:104D20001F48FEF76DFC2020009069461C48FEF7E6
:104D300067FC09220A211848FEF79FFC092201217D
:104D40001548FEF79AFC0A2206211448FEF795FC46
:104D50000A2207211148FEF790FC0A22042110487C
:104D6000FEF78BFC0A2205210D48FEF786FC002188
:104D70000C4800F064F801210A48FFF725FE0021E5
:104D8000084800F057F800210648FFF711FE1CBD47
:104D90000100380001003000000402400000024021
:104DA00000080240001000A010B5022200211348A4
:104DB000FFF78EFE9420114988701148FFF709FE15
:104DC00000BF02210E48FFF72DFE0028F9D00C4845
:104DD000FFF7F3FD44EA00240948FFF7EEFD044322
:104DE00000BF01210648FFF71DFE0028F9D0012170
:104DF0000348FFF714FE204610BD00007834002061
:104E0000001000A010B50948FFF776FE07490848D2
:104E1000FFF7DFFD00BF01210548FFF703FE002873
:104E2000F9D001210248FFF7FAFD10BD78340020C7
:104E3000001000A0026961F3041202617047026968
:104E4000C2F300528A4200D1704700BF826902F06B
:104E50000102002AFAD0026922F4002202F500229F
:104E6000026100BF0269C2F30022002AFAD102697E
:104E700061F31452026100BF0269C2F30022002AEA
:104E8000FAD1012905D100BFC26BC2F3C002002ACA
:104E9000FAD100BFD8E72DE9F04781460E46174604
:104EA0004FF00008D9F80040022E02D3A069B042AA
:104EB00002D80220BDE8F08767B100BF4FF0FF3293
:104EC00039462046FFF7DFFB8046B8F1000F01D0DE
:104ED0004046EFE700BF31464846FEF79DFA0546DB
:104EE00005B922E0012D01D10220E3E7681C08B9D1
:104EF0000120DFE7002231462046FFF7C4FB804651
:104F0000B8F1000F01D04046D4E7D4E90510801E67
:104F1000814206D26069401C6061207940F0010046
:104F200020712E46A069B042D5D800BF0020C1E74D
:104F300070B506460C461546A9B204F11A0000F0F9
:104F400015F83078032804D1290C04F1140000F07E
:104F50000DF870BD00F8011B090A00F8011B090AD1
:104F600000F8011B090A00F8011B704700F8011B3B
:104F7000091200F8011B704770B50446204600F086
:104F800041F80546002D37D1207803282DD120790E
:104F900001282AD1010304F13400FBF771FC4AF621
:104FA000552104F23220FFF7E1FF144904F13400E7
:104FB000FFF7D0FF124904F50670FFF7CBFF04F5A9
:104FC00007706169FFF7C6FF04F508702169FFF7F4
:104FD000C1FF206A401C20636078012304F1340182
:104FE000226BFDF7F7FA002020716078002211464D
:104FF000FDF7C0FA00B10125284670BD525261414B
:105000007272416170B504460025E078E8B16078BD
:10501000012304F13401226BFDF7DCFAA0B9002072
:10502000E070616A206B401AE16988420DD2A07875
:1050300002280AD1E369216BCA186078012304F1C0
:105040003401FDF7C7FA00E00125284670BD0000D5
:1050500010B5FDF755F801212148FDF707F8214863
:10506000006920F00700401C1E4908611E480068C6
:1050700020F00300401C1C49086001210846FCF791
:10508000F1FE00BFFCF7C2FF0028FBD00223012283
:1050900090211046FDF710F801210220FCF7E2FEF6
:1050A00000BF1920FCF79AFF0128FAD10020FCF775
:1050B000A7FE0420FCF7B8FE0420FCF7ABFE01209D
:1050C000FCF7BCFE0220FDF757F800BFFDF75EF8C5
:1050D0000228FBD10020FCF7B1FE00F007F810BD5C
:1050E0001C00400000700040603C02402DE9FC5F65
:1050F000002400250026A146A246A34600200190D8
:10510000FDF744F80090009820B1012814D002283F
:1051100041D115E02B480068C0F3803040B12948E8
:105120000068C0F3003018B127482849086002E041
:1051300027482649086032E02548244908602EE0C7
:1051400020489C380068C0F380591E489C3800688D
:10515000C0F388141B489C38006800F00F051948FC
:105160009C380068C0F302401A490E5CB9F1000F88
:1051700002D1DFF85CA001E0DFF854A005FB06FCDB
:10518000AAFB04700146624600233846FBF739F952
:105190000E49086003E00E480C49086000BF00BFDC
:1051A000084898380068C0F3031B0B4810F80B0040
:1051B0000190064800680199C84004490860BDE8AC
:1051C000FC9F0000A0380240006CDC02800100203F
:1051D00000127A0032820008228200081CB50446C0
:1051E00001211848FCF742FF01214FF44010FCF761
:1051F0003DFF6846FEF7FAF901208DF80700002010
:105200008DF8040002208DF80600000200900020B6
:105210008DF8050069460C48FEF7F2F907220921CE
:105220000948FEF72AFA002301222146074800F028
:1052300021F80121054800F073F80121034800F02E
:105240000BF81CBD040044000000024000100140A7
:10525000C1F3080242607047C26861F34D32C26018
:10526000704702461068084008B1012070470020CE
:10527000FCE700002DE9FF4704468846164699469C
:105280006846FCF723FE2448844202D02348844227
:1052900001D1029F00E0039F07EB87004000B0FBB5
:1052A000F8F50A20B5FBF0F100FB1150052803D2F8
:1052B0000A20B5FBF0F503E00A20B5FBF0F0451C31
:1052C000A06865F30F00A06056B9E06820F0805038
:1052D00000F18050E060E06820F48050E06014E06D
:1052E000012E08D1E06820F08050E060E06820F4F2
:1052F0008050E06009E0E06820F08050E060E06805
:1053000020F4805000F58050E060206969F30D3092
:105310002061BDE8FF87000000100140001401403B
:10532000C26861F3C302C2607047000010B5044652
:10533000D4B90120FCF73CFF01213C48FCF796FE64
:1053400041F62C70FBF778FD4FF4FA50FBF77AFD2D
:1053500041F65470FBF77CFD0420FBF765FD01214D
:105360000220FBF749FD5FE031480068314A811AAD
:1053700090423ED016DC304AA0EB020190422CD085
:1053800008DC2E490844F8B14FEA610108440028BE
:1053900048D11EE02A48084418B329490844002887
:1053A00040D122E0274A881A91422ED006DC2448B8
:1053B000084410B32249084478BB22E0204908443D
:1053C00038B3084448BB29E04FF00100FCF7E6FE83
:1053D00029E00020FCF7E2FE25E00320FCF7DEFEDA
:1053E00021E00220FCF7DAFE1DE00520FCF7D6FEE6
:1053F00019E00420FCF7D2FE15E00720FCF7CEFEF2
:1054000011E00620FCF7CAFE0DE00920FCF7C6FEFD
:1054100009E00820FCF7C2FE05E003E00B20FCF7E2
:10542000BDFE00E000BF00BF10BD00001D00440035
:1054300080010020007A030A00D8B805009423FDFB
:1054400000CA91FE00A24A0440F60401095821F066
:10545000020240F604010A507047024682F8F41234
:1054600040F2FD2081540023801C8354801C83540F
:1054700040234FF43E7083520823401E83544FF460
:10548000A073C01C8352012902D10223801C8354C3
:10549000012340F2013083540020704740F604019C
:1054A000095821F00201891C40F60402115070478E
:1054B00008B500F037FB01210948FCF7D7FD0120B2
:1054C000FFF734FF002211464D20FEF72BFB054865
:1054D000054B012211460090044801F050FA08BD26
:1054E0001D003000A8000020800000209034002023
:1054F0004FF410610958CA0AD2024FF410610A50E1
:1055000040F60401095821F4807240F604010A5063
:105510007047014601F530600022026101230269F3
:1055200063F3DC42026102696FF312021832026116
:10553000026922F0C04202F1C0420261704710B518
:105540008A7812BB0A7800F5106303EB42121268E6
:1055500022F400140A7803EB42121460CA78032A7A
:1055600002D0CA78022A32D10A7800F5106303EB20
:105570004212126822F0805202F180520B7800F53C
:10558000106404EB43131A6021E00A7800F53063DD
:1055900003EB4212126822F400140A7803EB421261
:1055A0001460CA78032A02D0CA78022A0FD10A7876
:1055B00000F5306303EB4212126822F0805202F1D0
:1055C00080520B7800F5306404EB43131A6010BD71
:1055D00010B58A78B2B940F61C0212580C78012333
:1055E000A3409A4340F61C031A500A7800F5106352
:1055F00003EB4212126822F400440A7803EB4212D1
:10560000146016E040F61C0213580C780122A240E8
:1056100023EA024340F61C0213500A7800F5306377
:1056200003EB4212126822F400440A7803EB4212A0
:10563000146010BD10B50146002000BF37E000EB3C
:10564000400202EBC00301F10C0202F8230000EB60
:10565000400202EBC00301F10C0202EB8302507026
:10566000002300EB400202EBC00401F10C0202EB4C
:105670008402937000EB400202EBC00401F10C02C3
:1056800002EB8402936000EB400202EBC00401F1E4
:105690000C0202EB8402536100EB400202EBC004F7
:1056A00001F10C0202EB84029361421CD0B2082883
:1056B000C5DB002038E000EB400202EBC00301F53F
:1056C000B67202F8230000EB400202EBC00301F5C2
:1056D000B67202EB83025070012300EB400202EB32
:1056E000C00401F5B67202EB84029370002300EB54
:1056F000400202EBC00401F5B67202EB8402936033
:1057000000EB400202EBC00401F5B67202EB84022A
:10571000536100EB400202EBC00401F5B67202EBEC
:1057200084029361421CD0B20828C4DB10BD00F58E
:10573000106303EB41139A60704730B502464FF493
:105740000165AB5840F63405AC5824FA01F505F074
:10575000010543EAC51302F5106505EB4115AD6877
:1057600005EA030030BD30B500220B788BB98B6899
:10577000402B00D10DE08B68202B01D1012208E0E5
:105780008B68102B01D1022203E08B68082B00D11B
:1057900003228B78002B61D140F61C031B580D7837
:1057A0000124AC40234340F61C0423500B7873B90A
:1057B0000B7800F5106404EB43131B6862F30A03D3
:1057C0000C7800F5106505EB441423600EE00D899C
:1057D0000B7800F5106404EB43131C6865F30A04AE
:1057E0000B7800F5106505EB43131C60CD780B7842
:1057F00000F5106404EB43131C6865F393440B78C5
:1058000000F5106505EB43131C600D7800F510647E
:1058100004EB45131B6865F399532C4600F510659E
:1058200005EB441423600B782C4604EB43131B68F0
:1058300023F0805303F180530C7805EB441423606C
:105840000B782C4604EB43131B6823F4004303F549
:1058500000430C7805EB4414236053E040F61C032E
:105860001C580D780123AB4044EA034440F61C0366
:105870001C500B7873B90B7800F5306404EB4313BC
:105880001B6862F30A030C7800F5306505EB4414DD
:1058900023600EE00D890B7800F5306404EB4313B0
:1058A0001C6865F30A040B7800F5306505EB4313BB
:1058B0001C60CD780B7800F5306404EB43131B6853
:1058C00065F393430C7800F5306505EB44142360D1
:1058D0000B782C4604EB43131B6823F0805303F131
:1058E00080530C7805EB441423600B782C4604EBB2
:1058F00043131B6823F4004303F500430C7805EBC6
:105900004414236030BD00F5306303EB41139A600B
:105910007047024602F5306000EB4110836840F6A4
:10592000140080581840704710B58A7812BB0A7866
:1059300000F5106303EB42121268D20F4AB90A78DD
:1059400003EB4212126822F080440A7803EB421201
:1059500014600A7800F5106303EB4212126822F417
:10596000001202F500120B7800F5106404EB4313EB
:105970001A6021E00A7800F5306303EB42121268E6
:10598000D20F4AB90A7803EB4212126822F080441F
:105990000A7803EB421214600A7800F5306303EBD7
:1059A0004212126822F4001202F500120B7800F580
:1059B000306404EB43131A6010BD0000002102693B
:1059C00022F010021032026105E00A46491C054B24
:1059D0009A4200D904E00269C2F30012002AF4D10D
:1059E00000BF7047400D030010B50022036961F34A
:1059F0008A130361036923F020032033036105E068
:105A00001346521C054CA34200D904E00369C3F3BA
:105A10004013002BF4D100BF10BD0000400D030067
:105A2000014640F618004258001D4058104080B210
:105A30007047014640F618004258001D405810407B
:105A4000000C70474161704701464A6988691040FF
:105A5000704710B50446204600F012F8A06B20F401
:105A6000803000F58030A06310BD012A03D1836926
:105A70000B43836102E083698B43836170470000BD
:105A80000146002205E01046521C0F4B984200D9F7
:105A900003E00869C00F0028F5D000BF00220869A4
:105AA00020F00100401C086105E01046521C064B26
:105AB000984200D904E0086900F001000028F4D100
:105AC00000BF012070470000400D0300014611B9DE
:105AD0004FF0A04070470148FCE700000000044080
